S00E00006470313030302E7372656381
S1130000007000201104000051040000510400009D
S113001051040000510400005104000000000000DD
S1130020000000000000000000000000115E00005D
S11300305104000000000000116000007160000025
S11300405104000051040000510400005104000058
S11300505104000051040000510400005104000048
S11300605104000051040000510400005104000038
S11300705104000051040000510400005104000028
S11303F0510400005104000051040000FFFFFFFFFE
S1130400FFFFFFFFFFFFFFFFFFFFFFFFFE7FFFFF79
S113041072B60B490A4A0A4B094C094D084E084F5B
S1130420B846B946BA46BB46BC4606488546064861
S113043080470648804762B601F0F4F9FEE7000001
S11304400000000000700020415A0000995A00008A
S1130450FFF7FEBF81F0004102E000BF83F00043DC
S113046030B54FEA41044FEA430594EA050F08BF4B
S113047090EA020F1FBF54EA000C55EA020C7FEA0F
S1130480645C7FEA655C00F0E2804FEA5454D4EB8C
S11304905555B8BF6D420CDD2C4480EA020281EA56
S11304A0030382EA000083EA010180EA020281EA8E
S11304B00303362D88BF30BD11F0004F4FEA0131E0
S11304C04FF4801C4CEA113102D0404261EB4101EF
S11304D013F0004F4FEA03334CEA133302D0524275
S11304E063EB430394EA050F00F0A780A4F1010431
S11304F0D5F1200E0DDB02FA0EFC22FA05F280186B
S113050041F1000103FA0EF2801843FA05F3594150
S11305100EE0A5F120050EF1200E012A03FA0EFCCF
S113052028BF4CF0020C43FA05F3C01851EBE371F9
S113053001F0004507D54FF0000EDCF1000C7EEB16
S113054000006EEB0101B1F5801F1BD3B1F5001F54
S11305500CD349085FEA30004FEA3C0C04F1010473
S11305604FEA445212F5800F80F09A80BCF1004F9C
S113057008BF5FEA500C50F1000041EB045141EA1E
S1130580050130BD5FEA4C0C404141EB010111F41F
S1130590801FA4F10104E9D191F0000F04BF0146CA
S11305A00020B1FA81F308BF2033A3F10B03B3F1A8
S11305B020020CDA0C3208DD02F1140CC2F10C0238
S11305C001FA0CF021FA02F10CE002F11402D8BF96
S11305D0C2F1200C01FA02F120FA0CFCDCBF41EA62
S11305E00C019040E41AA2BF01EB0451294330BD31
S11305F06FEA04041F3C1CDA0C340EDC04F114040E
S1130600C4F1200220FA04F001FA02F340EA0300E4
S113061021FA04F345EA030130BDC4F10C04C4F12A
S1130620200220FA02F001FA04F340EA030029460A
S113063030BD21FA04F0294630BD94F0000F83F454
S1130640801306BF81F480110134013D4EE77FEA37
S1130650645C18BF7FEA655C29D094EA050F08BF83
S113066090EA020F05D054EA000C04BF1946104664
S113067030BD91EA030F1EBF0021002030BD5FEAA8
S1130680545C05D14000494128BF41F0004130BDD0
S113069014F580043CBF01F5801130BD01F0004524
S11306A045F0FE4141F470014FF0000030BD7FEA97
S11306B0645C1ABF194610467FEA655C1CBF0B4692
S11306C0024650EA013406BF52EA033591EA030FA9
S11306D041F4002130BD00BF90F0000F04BF0021A1
S11306E0704730B54FF4806404F132044FF00005D4
S11306F04FF0000150E700BF90F0000F04BF00214D
S1130700704730B54FF4806404F1320410F00045B2
S113071048BF40424FF000013EE700BF42004FEAAD
S1130720E2014FEA31014FEA02701FBF12F07F432A
S113073093F07F4F81F06051704792F0000F14BF27
S113074093F07F4F704730B54FF4607401F000456B
S113075021F0004120E700BF50EA010208BF7047C2
S113076030B54FF000050AE050EA010208BF7047B7
S113077030B511F0004502D5404261EB41014FF420
S1130780806404F132045FEA915C3FF4DCAE4FF024
S113079003025FEADC0C18BF03325FEADC0C18BF0B
S11307A0033202EBDC02C2F1200300FA03FC20FA5C
S11307B002F001FA03FE40EA0E0021FA02F11444A9
S11307C0C1E600BF70B54FF0FF0C4CF4E06C1CEABE
S11307D011541DBF1CEA135594EA0C0F95EA0C0F33
S11307E000F0DEF82C4481EA030621EA4C5123EAA6
S11307F04C5350EA013518BF52EA033541F48011D5
S113080043F4801338D0A0FB02CE4FF00005E1FB87
S113081002E506F00042E0FB03E54FF00006E1FBD1
S113082003569CF0000F18BF4EF0010EA4F1FF0414
S1130830B6F5007F64F5407404D25FEA4E0E6D4154
S113084046EB060642EAC62141EA55514FEAC52065
S113085040EA5E504FEACE2EB4F1FD0C88BFBCF5E1
S1130860E06F1ED8BEF1004F08BF5FEA500E50F192
S1130870000041EB045170BD06F0004646EA010158
S113088040EA020081EA0301B4EB5C04C2BFD4EB8A
S11308900C0541EA045170BD41F480114FF0000E83
S11308A0013C00F3AB8014F1360FDEBF002001F0F1
S11308B0004170BDC4F10004203C35DA0C341BDC6B
S11308C004F11404C4F1200500FA05F320FA04F03D
S11308D001FA05F240EA020001F0004221F0004171
S11308E010EBD37021FA04F642EB06015EEA430EE4
S11308F008BF20EAD37070BDC4F10C04C4F1200514
S113090000FA04F320FA05F001FA04F240EA0200C6
S113091001F0004110EBD37041F100015EEA430E97
S113092008BF20EAD37070BDC4F1200500FA05F2B7
S11309304EEA020E20FA04F301FA05F243EA020336
S113094021FA04F001F0004121FA04F220EA020045
S113095000EBD3705EEA430E08BF20EAD37070BD8B
S113096094F0000F0FD101F00046400041EB01016B
S113097011F4801F08BF013CF7D041EA060195F04D
S1130980000F18BF704703F00046520043EB030307
S113099013F4801F08BF013DF7D043EA06037047F4
S11309A094EA0C0F0CEA135518BF95EA0C0F0CD0FF
S11309B050EA410618BF52EA4306D1D181EA030145
S11309C001F000414FF0000070BD50EA410606BF3F
S11309D01046194652EA430619D094EA0C0F02D184
S11309E050EA013613D195EA0C0F05D152EA0336C9
S11309F01CBF104619460AD181EA030101F00041E7
S1130A0041F0FE4141F470014FF0000070BD41F02F
S1130A10FE4141F4780170BD70B54FF0FF0C4CF409
S1130A20E06C1CEA11541DBF1CEA135594EA0C0F28
S1130A3095EA0C0F00F0A7F8A4EB050481EA030E75
S1130A4052EA03354FEA013100F088804FEA03335C
S1130A504FF0805545EA131343EA12634FEA02222A
S1130A6045EA111545EA10654FEA00260EF00041EB
S1130A709D4208BF964244F1FD0404F5407402D23D
S1130A805B084FEA3202B61A65EB03055B084FEACE
S1130A9032024FF480104FF4002CB6EB020E75EBCB
S1130AA0030E22BFB61A754640EA0C005B084FEAF3
S1130AB03202B6EB020E75EB030E22BFB61A754670
S1130AC040EA5C005B084FEA3202B6EB020E75EBBB
S1130AD0030E22BFB61A754640EA9C005B084FEA33
S1130AE03202B6EB020E75EB030E22BFB61A754640
S1130AF040EADC0055EA060E18D04FEA051545EA2F
S1130B0016754FEA06164FEAC30343EA52734FEAD7
S1130B10C2025FEA1C1CC0D111F4801F0BD141EA50
S1130B2000014FF000004FF0004CB6E711F4801FB5
S1130B3004BF01430020B4F1FD0C88BFBCF5E06F95
S1130B403FF6AFAEB5EB030C04BFB6EB020C5FEAA5
S1130B50500C50F1000041EB045170BD0EF0004EFA
S1130B604EEA113114EB5C04C2BFD4EB0C0541EA2C
S1130B70045170BD41F480114FF0000E013C90E629
S1130B8045EA060E8DE60CEA135594EA0C0F08BFED
S1130B9095EA0C0F3FF43BAF94EA0C0F0AD150EAEC
S1130BA001347FF434AF95EA0C0F7FF425AF10467F
S1130BB019462CE795EA0C0F06D152EA03353FF4A7
S1130BC0FDAE1046194622E750EA410618BF52EA24
S1130BD043067FF4C5AE50EA41047FF40DAF52EAF8
S1130BE043057FF4EBAE12E74FF0FF3C06E000BF95
S1130BF04FF0010C02E000BF4FF0010C4DF804CDA2
S1130C004FEA410C7FEA6C5C4FEA430C18BF7FEA61
S1130C106C5C1BD001B050EA410C0CBF52EA430C8F
S1130C2091EA030F02BF90EA020F0020704710F10F
S1130C30000F91EA030F58BF994208BF90422CBF9E
S1130C40D8176FEAE37040F0010070474FEA410C97
S1130C507FEA6C5C02D150EA013C07D14FEA430CB5
S1130C607FEA6C5CD6D152EA033CD3D05DF8040B26
S1130C70704700BF8446104662468C461946634658
S1130C8000E000BF01B5FFF7B7FF002848BF10F12F
S1130C90000F01BD4DF808EDFFF7F4FF0CBF012074
S1130CA000205DF808FB00BF4DF808EDFFF7EAFFF0
S1130CB034BF012000205DF808FB00BF4DF808EDAB
S1130CC0FFF7E0FF94BF012000205DF808FB00BFA0
S1130CD04DF808EDFFF7CEFF94BF012000205DF82A
S1130CE008FB00BF4DF808EDFFF7C4FF34BF012037
S1130CF000205DF808FB00BF4FEA410212F5001224
S1130D0015D211D56FF47873B3EB625212D94FEA4E
S1130D10C12343F0004343EA505311F0004F23FA38
S1130D2002F018BF404270474FF00000704750EA8D
S1130D30013005D111F0004008BF6FF0004070474A
S1130D404FF00000704700BF53B94AB9002908BFEB
S1130D5000281CBF4FF0FF314FF0FF3000F03CB8CB
S1130D6082B0EC462DE9005000F01EF8DDF804E0F6
S1130D7002B00CBC704700BF2DE9F041069C15463B
S1130D8006460F46984600F029F805FB01F300FBE0
S1130D900838A5FB0023B21A434467EB0303C4E9F4
S1130DA00023BDE8F08100BF2DE9F041069C904688
S1130DB006460F461D4600F05FF900FB05F5A0FB53
S1130DC0082308FB0155B21A2B4467EB0303C4E95B
S1130DD00023BDE8F08100BF704700BF00292DE962
S1130DE0F043C0F2A6800026002BC0F29C80884607
S1130DF094469E46154604460F46002B3DD18A4232
S1130E0059D9B2FA82F33BB1C3F120029F4020FAD0
S1130E1002F29D4017439C40290C220CB7FBF1FEC3
S1130E20A8B201FB1E7742EA074700FB0EF3BB4260
S1130E300AD97F190EF1FF3280F00581BB4240F2DE
S1130E400281AEF1020E2F44FF1AA4B2B7FBF1F3F4
S1130E5001FB137744EA074700FB03F0B84208D9C3
S1130E607F1903F1FF3280F0F080B84240F2ED8048
S1130E70023B43EA0E43002203E08B420FD90022D7
S1130E801346341C18BF012460424FF0000565EB83
S1130E9045015840514000196941BDE8F083B3FA57
S1130EA083F2002A40F086808B4202D3844500F20C
S1130EB0DB800123E5E712B90123B3FBF2F5B5FAB0
S1130EC085F000283BD1781B4FEA154E1FFA85FCAC
S1130ED00122B0FBFEF8210C0EFB180741EA07477C
S1130EE00CFB08F3BB4207D97F1908F1FF3102D28A
S1130EF0BB4200F2BD808846FF1AA4B2B7FBFEF3E2
S1130F000EFB137744EA07470CFB03FCBC4507D9E7
S1130F107F1903F1FF3102D2BC4500F2A7800B46D2
S1130F2043EA0843ADE752426FEA060663EB430324
S1130F305DE7404261EB41014FF0FF3654E7C0F1F9
S1130F40200224FA02F107FA00F385404FEA154E15
S1130F50D7401943B7FBFEF20B0C0EFB12771FFAB6
S1130F6085FC43EA07430CFB02F79F4204FA00F4B2
S1130F7007D95B1902F1FF3074D29F4272D9023A49
S1130F802B44DF1B89B2B7FBFEF80EFB187341EA52
S1130F9003430CFB08F79F4208D95B1908F1FF31A2
S1130FA05CD29F425AD9A8F102082B44D81B48EAC4
S1130FB002428EE7C2F120032CFA03F10EFA02FE7C
S1130FC020FA03F741EA0E0E08FA02F028FA03F1B8
S1130FD04FEA1E453843B1FBF5F8030C05FB181125
S1130FE01FFA8EF743EA014107FB08F38B420CFA20
S1130FF002FC09D911EB0E0108F1FF3930D28B4202
S11310002ED9A8F102087144C91A80B2B1FBF5F3D4
S113101005FB131140EA014107FB03F78F4208D98E
S113102011EB0E0103F1FF3016D28F4214D9023BAB
S1131030714443EA0843C91BA3FB0C89494509D3FE
S113104005D000221DE79646FEE6134611E79440BC
S11310504445F6D2013BF4E70346EAE78846A5E7B0
S1131060C846D1E702468CE713460AE7023B57E736
S1131070A8F102082F443FE72DE9F041002B44D1A9
S11310808A42154604464FD9B2FA82F70E464FB14A
S1131090C7F12003B94020FA03F602FA07F50E431C
S11310A000FA07F44FEA154E230CB6FBFEF0AFB27C
S11310B00EFB106143EA014307FB00F1994209D991
S11310C05B1900F1FF3280F0EC80994240F2E98034
S11310D002382B445A1AA4B2B2FBFEF30EFB1322BD
S11310E044EA024207FB03F7974208D9521903F175
S11310F0FF3180F0D880974240F2D580023B43EA2A
S1131100004000263146BDE8F0818B4247D8B3FA4F
S113111083F6002E48D18B4202D3824200F2CD8066
S113112001203146BDE8F08112B90125B5FBF2F585
S1131130B5FA85F8B8F1000F77D14A1B4FEA154E7E
S1131140AFB20126B2FBFEF0230C0EFB102143EAE2
S1131150014107FB00F38B4207D9491900F1FF3223
S113116002D28B4200F2BA801046C91AA4B2B1FB73
S1131170FEF30EFB131144EA014407FB03F7A742F5
S113118008D9641903F1FF3280F08F80A74240F23E
S11311908C80023B43EA00403146BDE8F0810026E2
S11311A030463146BDE8F081C6F1200422FA04F548
S11311B0B3402B4320FA04FC01FA06F721FA04F5A4
S11311C04FEA134E4CEA0707B5FBFEF8390C0EFB49
S11311D018551FFA83FC41EA05450CFB08F1A942A6
S11311E002FA06F204D9ED1808F1FF3467D3A046D9
S11311F06D1ABFB2B5FBFEF40EFB145547EA054168
S11312000CFB04FC8C4504D9C91804F1FF355CD3EC
S11312102C4644EA0844CCEB0101A4FB0223994286
S113122048D344D0204600266CE7C8F1200401FAD4
S113123008F305FA08F520FA04F7E1404FEA154EE1
S11312401F43B1FBFEF63A0C0EFB16111FFA85FC88
S113125042EA01430CFB06F29A4200FA08F407D969
S11312605B1906F1FF3137D29A4235D9023E2B443D
S11312709B1ABFB2B3FBFEF00EFB103347EA0343E5
S11312800CFB00F1994207D95B1900F1FF3221D21E
S113129099421FD902382B445A1A40EA0646674637
S11312A050E7104616E70B4629E7134672E7B040AD
S11312B09042B7D2601E002624E7304622E7A942B6
S11312C095D9A8F102081D4492E78C45A0D9023CA7
S11312D019449EE71046DFE70E46C9E70238294461
S11312E043E700BF80B500AF094B1B68002B0DD14D
S11312F0012006F0E3FA0246054B1A60044B1B6812
S1131300184600210022002306F024FB80BD00BF04
S1131310000000200FB480B582B000AF07F11403C1
S11313207B600D4B1B68184600214FF0FF320023F1
S113133006F092FC3869796806F092FF064B1B6848
S1131340184600210022002306F004FB0837BD469E
S1131350BDE8804004B070470000002080B582B032
S113136000AF78607B68184605F026FB0837BD4659
S113137080BD00BF80B5ADF59D6D00AF5548FFF74A
S1131380C9FF07F52B730020194602F089FA0346BA
S113139087F8E73497F8E734002B08D097F8E73458
S11313A04D481946FFF7B6FF4FF0FF338DE04B4829
S11313B0FFF7B0FF07F1880318464949132202F0EA
S11313C099FA034687F8E73497F8E734002B05D0F9
S11313D04448FFF79FFF4FF0FF3376E04248FFF7A2
S11313E099FF07F188031846002102F063FF07F113
S11313F0880207F1840310463C49092202F014FDD7
S1131400034687F8E73497F8E734002B05D03548CE
S1131410FFF780FF4FF0FF3357E03548FFF77AFFBF
S11314203B1D18460021802206F08BFF07F188033C
S11314301846002102F03EFF07F188013A1D3B46A1
S113144008461146092202F099FB034687F8E7345F
S113145097F8E734002B05D02648FFF75BFF4FF0E1
S1131460FF3332E03B461B68092B08D03B461B6820
S113147021481946FFF74EFF4FF0FF3325E03B1D8F
S113148018461A4906F070FF0346002B07D03B1D8F
S11314901A481946FFF73EFF4FF0FF3315E018488E
S11314A0FFF738FF07F18803184602F0EFFE034602
S11314B087F8E73497F8E734002B05D01148FFF795
S11314C029FF4FF0FF3300E00023184607F59D671E
S11314D0BD4680BDA09B0000B49B0000D49B0000CF
S11314E0E89B0000F49B0000049C0000189C000092
S11314F0249C0000409C00004C9C0000609C000068
S1131500749C0000809C000090B593B000AF78609C
S11315107B687B647B6C5B683B647B6C9B680A3395
S1131520FB637B6C1B68184600214FF0FF320023DD
S113153006F092FBFB6B386C19460822204B04F032
S1131540FBF97B6C1B68184600210022002306F07F
S113155001FA7B6C1B68184600214FF0FF32002310
S113156006F07AFB07F1340207F12C03386C1146BC
S11315701A4604F01BFAB8637B6C1B6818460021FA
S11315800022002306F0E6F9BB6B002B12D17C6B22
S113159007F12C0207F10C03104608211A4600F04B
S11315A005FA03460748396C2246FFF7B3FE7B6C05
S11315B001221A614FF47A70FFF7D0FEB1E700BF41
S11315C0909C00009C9C000090B595B004AF002353
S11315D0FB63012006F072F938636C4B1B681846F4
S11315E000210022002306F0B5F90023BB63B7E015
S11315F0BB6B5A1C664B83FB0231D317C91A0B46CB
S11316005B000B44D31AFB626248B96BFA6AFFF7BA
S113161081FE07F1180300221A60043300221A60C5
S1131620043300221A60043300221A6004330022B7
S11316301A6004333B6BBB61BB6BFB61FB6A3B62AF
S113164007F118040123009307F118030C330193E5
S113165000230293002303934F4850494FF48072B0
S1131660234605F059F80346012B05D04C484D4953
S11316704D4AFFF74FFEFEE73B1D00221A6004337C
S113168000221A60043300221A60043300221A6014
S1131690043300221A6004333B6B7B60FB6ABB603B
S11316A0BB6BFB603C1D012300933B1D0C3301937A
S11316B0002302930023039337483C494FF480727C
S11316C0234605F029F80346012B05D03448354953
S11316D0374AFFF71FFEFEE700237B630DE0BB6A7A
S11316E0002B03D07B69002B00D009E04FF47A7003
S11316F0FFF734FE7B6B01337B637B6B042BEEDDE6
S1131700BB6A002B0FD07B69002B0CD02948B96B26
S1131710FA6AFFF7FFFD0122BB6B02FA03F31A46D4
S1131720FB6B1343FB63BB6A002B03D12248B96BE9
S1131730FFF7F0FD7B69002B03D11F48F96AFFF71F
S1131740E9FD7B6A184605F0B5F83B69184605F0D3
S1131750B1F84FF4FA70FFF701FEBB6B0133BB63C2
S1131760BB6B022B7FF744AFFB6B072B04D11348F1
S1131770FFF7D0FD002304E01148FFF7CBFD4FF045
S1131780FF3318464437BD4690BD00BF000000201B
S113179056555555C89C000009150000DC9C0000F6
S11317A0E89C0000689F0000009D00004C9D000024
S11317B0589D0000A49D0000AC9D0000D49D000035
S11317C0E89D000080B584B000AF78600F481049F0
S11317D0104AFFF79FFD0023FB6013E00E48FFF75C
S11317E099FD0E4AFB6852F833300D481946FFF74D
S11317F091FD0A4AFB68DB0013445B689847FB6869
S11318000133FB60FB68012BE8D9FEE7009E000072
S1131810249E0000309E00003C9E0000749F000047
S1131820409E000080B584B004AF03F0B7F803F025
S113183047F803F06BF803F09BF803F0C5F803F0E6
S1131840D9F803F07DFF002003F074F900200A2189
S1131850164A03F0C9FF01200B21144A03F0C4FF08
S113186002200C21114A03F0BFFFFFF73BFD0123C7
S113187000930F4B019300230293002303930D481D
S11318800D494FF48062002304F046FF0346012B08
S113189005D00A480A490B4AFFF73CFDFEE705F06C
S11318A0DDF800231846BD4680BD00BF20A1070017
S11318B004000020C5170000449E0000E89C0000BE
S11318C0849F0000509E000080B582B000AF786015
S11318D0396003483968FFF71DFD0837BD4680BDF0
S11318E0949E000080B500AF0148FFF713FD80BD52
S11318F0B89E000080B483B000AF78607B68002B92
S113190001DA302316E07B68002B07DB7B68092BA8
S113191004DC7B68DBB23033DBB20BE07B68092B81
S113192007DD7B680F2B04DC7B68DBB25733DBB24B
S113193000E0662318460C37BD465DF8047B70470B
S113194090B589B000AFF860B9607A60FB68FB615C
S11319507B68BB6100237B611FE0FB695A1CFA6151
S11319601B78FB74BC69631CBB61FB7C1B09DBB289
S113197003F00F031846FFF7BDFF03462370BC694D
S1131980631CBB61FB7C03F00F031846FFF7B2FF37
S1131990034623707B6901337B617A69BB689A4291
S11319A0DBDB7B6818462437BD4690BD80B586B026
S11319B000AFF860B9607A60F868B9687A68FFF7D0
S11319C0BFFF7861BB685B001A467B691344002241
S11319D01A707B6918461837BD4680BD80B485B03F
S11319E000AF78607B68FB60FB681B78BB60BB68FA
S11319F01B02BB60FB6801331B781A46BB681344A7
S1131A00BB60BB681B02BB60FB6802331B781A46D1
S1131A10BB681344BB60BB681B02BB60FB68033339
S1131A201B781A46BB681344BB60BB68184614375E
S1131A30BD465DF8047B704780B485B000AF786024
S1131A4039603B68FB607B681B0EDAB2FB681A7076
S1131A50FB6801337A68120CD2B21A70FB68023345
S1131A607A68120AD2B21A70FB6803337A68D2B267
S1131A701A70FB6818461437BD465DF8047B70473E
S1131A8080B487B000AFF860B9607A60FB687B61AE
S1131A90BB683B6107E07B695A1C7A613A69511C57
S1131AA0396112781A707B685A1E7A60002BF2D161
S1131AB01C37BD465DF8047B704700BF80B487B017
S1131AC000AFF860B9607A60FB687B6105E07B6910
S1131AD05A1C7A61BA68D2B21A707B685A1E7A604C
S1131AE0002BF4D11C37BD465DF8047B704700BF62
S1131AF080B489B000AFF860B9607A60FB68FB61BC
S1131B00BB68BB6100237B6100BF7B685A1E7A609F
S1131B10002B0DD0FB695A1CFA611B781946BB696E
S1131B205A1CBA611B78CB1A7B617B69002BECD001
S1131B307B6918462437BD465DF8047B704700BFB7
S1131B4080B483B000AF7860396002E07B68013311
S1131B507B607B681B78002B05D07B681B781A465A
S1131B603B689A42F2D17B681B7818460C37BD4615
S1131B705DF8047B704700BF80B584B000AF786027
S1131B807B681B79002B3AD07B685B6BFB607B68BE
S1131B905A787B68383310461946FA68012302F0F4
S1131BA05FFD0346002B01D0012329E07B6800225E
S1131BB01A717B689A6AFB689A4220D87B689A6A91
S1131BC07B681B6A1A44FB689A4218D97B68DB78E5
S1131BD0BB6011E07B681B6AFA681344FB607B6896
S1131BE05A787B68383310461946FA68012302F0A4
S1131BF037FDBB68013BBB60BB68012BEAD80023FF
S1131C0018461037BD4680BD80B582B000AF7860FD
S1131C1039607B685A6B3B689A4219D07868FFF741
S1131C20ABFF0346002B01D0012312E07B685A78F6
S1131C307B683833104619463A68012302F0D2FC17
S1131C400346002B01D0012303E07B683A685A6302
S1131C50002318460837BD4680BD00BF80B584B058
S1131C6000AF78607868FFF787FF0346FB73FB7B60
S1131C70002B40F092807B681B78032B40F081801E
S1131C807B685B79002B7CD07B6800225A637B687D
S1131C903833184600214FF40072FFF70FFF7B68BA
S1131CA0552283F836227B68AA2283F837227B6880
S1131CB0522283F838207B68522283F839207B68CB
S1131CC0612283F83A207B68412283F83B207B68B9
S1131CD0722283F81C227B68722283F81D227B689F
S1131CE0412283F81E227B68612283F81F227B68CD
S1131CF01B69DAB27B6883F820227B681B699BB27C
S1131D001B0A9BB2DAB27B6883F821227B681B69C9
S1131D101B0CDAB27B6883F822227B681B691B0EDA
S1131D20DAB27B6883F823227B68DB68DAB27B68EB
S1131D3083F824227B68DB689BB21B0A9BB2DAB26D
S1131D407B6883F825227B68DB681B0CDAB27B682E
S1131D5083F826227B68DB681B0EDAB27B6883F883
S1131D6027227B6859787B6803F138027B685B69BA
S1131D70084611461A46012302F072FC7B680022D1
S1131D805A717B685B7818460021002202F0A6FC99
S1131D900346002B01D00123FB73FB7B184610374D
S1131DA0BD4680BD80B483B000AF786039603B68C5
S1131DB0023B3B607B68DB699A1E3B689A4201D810
S1131DC0002308E07B689B781A463B6803FB02F219
S1131DD07B681B6B134418460C37BD465DF8047BC7
S1131DE0704700BF80B586B000AF786039603B684B
S1131DF0012B04D97B68DA693B689A4201D8012334
S1131E0098E07B681B78022B48D0032B67D0012B0A
S1131E1040F08E803B687B617B695B087A69134480
S1131E207B617B689A6A7B695B0A1344786819460C
S1131E30FFF7EAFE0346002B00D079E07B69C3F389
S1131E4008037A68134493F838303B617B690133A3
S1131E507B617B689A6A7B695B0A134478681946DC
S1131E60FFF7D2FE0346002B00D061E07B69C3F389
S1131E7008037A68134493F838301B021A463B6906
S1131E8013433B613B6803F00103002B02D03B6921
S1131E901B094FE03B69C3F30B034BE07B689A6A71
S1131EA03B681B0A134478681946FFF7ADFE0346E6
S1131EB0002B00D03CE03B685B0003F4FF73383335
S1131EC07A681344FB60FB6801331B781B029AB2E7
S1131ED0FB681B789BB213439BB29BB22AE07B68DE
S1131EE09A6A3B68DB09134478681946FFF78CFE4D
S1131EF00346002B00D01BE03B689B0003F4FE73F9
S1131F0038337A681344FB60FB6803331B781A0682
S1131F10FB6802331B781B041343FA6801321278FE
S1131F2012021343FA681278134323F0704301E05A
S1131F304FF0FF3318461837BD4680BD80B588B0D2
S1131F4000AFF860B9607A60BB68012B04D9FB6804
S1131F50DA69BB689A4202D80223FB77E3E0FB68A4
S1131F601B78022B70D0032B00F09280012B40F0E1
S1131F70D580BB68BB61BB695B08BA691344BB61AC
S1131F80FB689A6ABB695B0A1344F8681946FFF751
S1131F903BFE0346FB77FB7F002B00D0C0E0BB6910
S1131FA0C3F308033833FA6813447B61BB6803F056
S1131FB00103002B0DD07B691B78DBB203F00F0308
S1131FC0DAB27B68DBB21B01DBB21343DBB2DBB2F8
S1131FD001E07B68DBB27A691370BB690133BB61D2
S1131FE0FB6801221A71FB689A6ABB695B0A134495
S1131FF0F8681946FFF708FE0346FB77FB7F002BC2
S113200000D08DE0BB69C3F308033833FA68134486
S11320107B61BB6803F00103002B03D07B681B09C1
S1132020DBB20EE07B691B78DBB223F00F03DAB27C
S11320307B681B0ADBB203F00F03DBB21343DBB292
S1132040DBB27A6913706BE0FB689A6ABB681B0A9F
S11320501344F8681946FFF7D7FD0346FB77FB7F67
S1132060002B00D05CE0BB685B0003F4FF733833E3
S1132070FA6813447B617B68DAB27B691A707B6906
S113208001337A6892B2120A92B2D2B21A7047E05D
S1132090FB689A6ABB68DB091344F8681946FFF7C2
S11320A0B3FD0346FB77FB7F002B00D038E0BB6811
S11320B09B0003F4FE733833FA6813447B617B6935
S11320C003331B781A067B6902331B781B04134302
S11320D07A6901321278120213437A69127813432F
S11320E003F070437A6813437B607B68DAB27B69E0
S11320F01A707B6901337A6892B2120A92B2D2B230
S11321001A707B6902337A68120CD2B21A707B6936
S113211003337A68120ED2B21A7001E00223FB77FD
S1132120FB6801221A71FB7F18462037BD4680BD2B
S113213080B584B000AF786039603B68012B04D966
S11321407B68DA693B689A4202D80223FB7337E062
S11321500023FB732FE078683968FFF743FEB8600B
S1132160BB68002B00D12BE0BB68012B02D10223FA
S1132170FB7325E0BB68B3F1FF3F02D10123FB737E
S11321801EE0786839680022FFF7D8FE0346FB7327
S1132190FB7B002B00D013E07B681B69B3F1FF3F8E
S11321A007D07B681B695A1C7B681A617B68012213
S11321B05A71BB683B607B68DA693B689A42CAD84B
S11321C0FB7B18461037BD4680BD00BF80B586B086
S11321D000AF786039603B68002B0DD17B68DB6809
S11321E03B613B69002B04D07B68DA693B699A4206
S11321F015D801233B6112E078683968FFF7F2FDD6
S1132200B860BB68012B01D8012366E07B68DA69FA
S1132210BB689A4201D9BB685FE03B683B613B699C
S11322207B617B6901337B617B68DA697B699A42F4
S113223007D802237B617A693B699A4201D900235A
S11322404BE078687969FFF7CDFDB860BB68002B77
S11322500CD100BF786879696FF07042FFF76EFEA9
S11322600346FB73FB7B002B1AD10FE0BB68B3F171
S1132270FF3F02D0BB68012B01D1BB682DE07A6916
S11322803B699A4201D1002327E0CAE73B68002B4F
S113229006D0786839687A69FFF750FE0346FB7305
S11322A0FB7B002B10D17B687A69DA607B681B6941
S11322B0B3F1FF3F10D07B681B695A1E7B681A611B
S11322C07B6801225A7107E0FB7B012B02D14FF09E
S11322D0FF3300E001237B617B6918461837BD4654
S11322E080BD00BF80B584B000AF78600B467B80B2
S11322F07B687A88DA807B689B68FB60FB68012BCB
S113230005D07B681B68DA69FB689A4201D802230E
S113231065E0FB68002B08D17B681B681B78032BE6
S113232003D17B681B68DB6AFB60FB68002B14D15C
S11323307B68FA68DA607B681B681B897A889A4232
S113234001D302234BE07B681B68DB6A7A8812099D
S113235092B21A447B681A6136E07B681B689B78EA
S11323609BB21B017B811BE07B681B681846F968E4
S1132370FFF738FDF860FB68B3F1FF3F01D101239B
S11323802DE0FB68012B05D97B681B68DA69FB68C3
S11323909A4201D8022322E07A887B89D31A7B806F
S11323A07A887B899A42DFD27B68FA68DA607B6834
S11323B01B681846F968FFF7F5FC02467B881B0981
S11323C09BB21A447B681A617B681A687B8803F0A5
S11323D00F035B0138331A447B685A6100231846A3
S11323E01037BD4680BD00BF90B585B000AF7860A2
S11323F039607B68DB8801333B813B89002B03D048
S11324007B681B69002B01D10423BAE03B8903F0EC
S11324100F039BB2002B40F0A6807B681B695A1CFB
S11324207B681A617B68DB68002B08D17B681B68BA
S11324301B893A899A42C0F096800423A1E03B8923
S11324401B099BB21A467B681B689B78013B1340AF
S1132450002B40F088807B681A687B68DB68104634
S11324601946FFF7BFFCF860FB68012B01D8022373
S113247087E0FB68B3F1FF3F01D1012381E07B6872
S11324801B68DA69FB689A4261D83B68002B01D16A
S1132490042376E07B681A687B68DB68104619467B
S11324A0FFF794FEF860FB68002B01D1072368E076
S11324B0FB68012B01D1022363E0FB68B3F1FF3F0A
S11324C001D101235DE07B681B681846FFF754FBCC
S11324D00346002B01D0012353E07B681B6838338B
S11324E0184600214FF40072FFF7E8FA7B681C6875
S11324F07B681B681846F968FFF754FC034663635E
S11325000023FB7215E07B681B6801221A717B684B
S11325101B681846FFF730FB0346002B01D001234C
S11325202FE07B681B685A6B01325A63FB7A0133D4
S1132530FB727B681B689B78FA7A9A42E3D37B68C8
S11325401B687A681268516BFA7A8A1A5A637B6834
S1132550FA68DA607B681B681846F968FFF722FCA2
S113256002467B681A617B683A89DA807B681A685C
S11325703B8903F00F035B0138331A447B685A61CB
S1132580002318461437BD4690BD00BF80B584B003
S113259000AF7860396078680021FFF7A3FE034636
S11325A0FB73FB7B002B2DD10023BB607B681A6877
S11325B07B681B6910461946FFF726FB0346FB732D
S11325C0FB7B002B00D01DE07B685B691B78E52B4F
S11325D004D07B685B691B78002B08D1BB6801338E
S11325E0BB60BA683B689A4200D10BE001E000236B
S11325F0BB6078680121FFF7F7FE0346FB73FB7BA2
S1132600002BD3D0FB7B042B01D10723FB73FB7B73
S113261018461037BD4680BD80B485B000AF7860E1
S113262039603B681B331B781B029AB23B681A3330
S11326301B789BB213439BB29BB2FB607B681B78F5
S1132640032B0FD13B6815331B781B029AB23B68EE
S113265014331B789BB213439BB29BB21B04FA68DE
S11326601343FB60FB6818461437BD465DF8047BD2
S1132670704700BF80B483B000AF786039607B6876
S11326801A333A68D2B21A707B681B333A6892B232
S1132690120A92B2D2B21A707B6814333A68120CDE
S11326A0D2B21A707B6815333A68120C92B2120ACD
S11326B092B2D2B21A700C37BD465DF8047B7047F3
S11326C080B586B000AF786039603B681B7823F032
S11326D040035A1E13465B0013449B0013447B6162
S11326E000233B610123FB812B4A3B6913441B7884
S11326F001333A6813441B781B0299B2264A3B699A
S113270013441B781A463B6813441B789BB20A4651
S113271013439BB2BB81FB89002B19D0BB8918469C
S113272002F0A0F80346FB817B69FE2B0ED87B697F
S11327305A1C7A615B007A6813441B88184602F0BD
S113274091F803461A46FB89934208D000231FE000
S1132750BB894FF6FF72934201D0002318E03B6916
S113276001333B613B690C2BBED93B681B7803F0FA
S11327704003002B0BD0FB89002B08D07B695B0046
S11327807A6813441B88002B01D0002300E0012346
S113279018461837BD4680BD0CA0000080B489B02F
S11327A000AFF860B96011461A460B46FB71134638
S11327B0BB71BB680D33BA791A70BB680B330F2237
S11327C01A70BB680C3300221A70BB681A330022DB
S11327D01A70BB681B3300221A70FB795A1E134609
S11327E05B0013449B001344FB610023FB82002322
S11327F0BB61FB8A4FF6FF72934207D0FB695A1CF8
S1132800FA615B00FA6813441B88FB821C4ABB69AB
S113281013441B781A46BB681344FA8AD2B21A705E
S1132820174ABB6913441B780133BA681344FA8A04
S1132830120A92B2D2B21A70FB8A002B02D14FF65E
S1132840FF73FB82BB690133BB61BB690C2BD0D91D
S1132850FB8A4FF6FF72934206D0FB695B00FA686D
S113286013441B88002B03D1FB7943F04003FB7115
S1132870BB68FA791A702437BD465DF8047B70474B
S11328800CA0000080B58AB000AFF860B9607A602F
S11328907B80F868B9680B22FFF7F2F87B88052B78
S11328A00FD97B889AB25208DB0313439AB27B6830
S11328B0991C79601B8813447B807B681B88002BE0
S11328C0EFD107233B627B88DBB203F00F03DBB25B
S11328D0303387F8273097F82730392B04D997F805
S11328E02730073387F827303B6A5A1E3A6207F1CC
S11328F02802134497F8272003F8142C7B881B091B
S11329007B807B88002BDED107F114023B6A1344E1
S11329107E221A700023FB6102E0FB690133FB6134
S1132920FA693B6A9A4205D2FA68FB6913441B7838
S1132930202BF2D1FB695A1CFA61FA681A443B6AEB
S1132940072B08D83B6A591C396207F128010B444C
S113295013F8143C00E020231370FB69072BE9D91A
S11329602837BD4680BD00BF80B485B000AF786015
S11329700023FB730B23BB60FB7BDAB25208DB0141
S11329801343DAB27B68591C79601B781344FB73D8
S1132990BB68013BBB60BB68002BEDD1FB7B1846D9
S11329A01437BD465DF8047B704700BF80B586B020
S11329B000AF786078680021FFF794FC0346FB754C
S11329C0FB7D002B01D0FB7D94E0FF233B753B7D19
S11329D07B757B681A687B681B6910461946FFF78C
S11329E013F90346FB75FB7D002B00D081E07B6867
S11329F05B693B613B691B78BB75BB7D002B02D1D6
S1132A000423FB7575E03B690B331B7803F03F032C
S1132A10FB73BB7DE52B07D0FB7B03F00803002B86
S1132A2005D0FB7B0F2B02D0FF237B7557E0FB7B8C
S1132A300F2B2FD17B68DB69002B50D0BB7D03F0BB
S1132A404003002B0CD03B695B7B3B75BB7D23F0C3
S1132A504003BB75BB7D7B757B68DA887B681A8411
S1132A60BA7D7B7D9A4212D13B690D331B783A7D46
S1132A709A420CD17B68DB6918463969FFF720FE5E
S1132A800346002B03D07B7D013BDBB200E0FF2338
S1132A907B7524E07B7D002B08D13869FFF764FF48
S1132AA003461A463B7D934200D122E0FF237B7507
S1132AB07B684FF6FF721A847B689B690B331B7823
S1132AC003F00103002B0AD17B689B69386919461E
S1132AD00B22FFF70DF80346002B00D109E07868BC
S1132AE00021FFF781FC0346FB75FB7D002B3FF4BF
S1132AF070AFFB7D18461837BD4680BD80B58AB0DF
S1132B0000AF78607B689B69FB617B68DB69BB61B4
S1132B1007F108031846F9690C22FEF7B1FFFB7CA4
S1132B2003F02003002B01D00623E3E0FB7C03F039
S1132B300103002B35D0FB690B3300221A707B682C
S1132B400022DA610123BB8415E007F10802BB8C83
S1132B50F8691146BA69FFF795FE7868FFF726FF12
S1132B60034687F8273097F82730002B00D005E07C
S1132B70BB8C0133BB84BB8C632BE6D9BB8C642B2D
S1132B8001D10723B6E097F82730042B02D097F839
S1132B902730AFE0FB690B33FA7C1A707B68BA69A3
S1132BA0DA61FB7C03F00203002B16D00023BB8404
S1132BB002E0BB8C0133BB84BB8C5B00BA69134459
S1132BC01B88002BF5D1BB8C19334C4A82FB0312B2
S1132BD09210DB17D31A7B8401E001237B847B8C66
S1132BE078681946FFF7D2FC034687F8273097F830
S1132BF02730002B4AD17B8C013B7B847B8C002BC0
S1132C0044D07B68DA887B8CD31A9BB278681946E7
S1132C10FFF768FB034687F8273097F82730002B27
S1132C2034D17B689B691846FFF79EFE0346FB750B
S1132C307B681A687B681B6910461946FEF7E4FF37
S1132C40034687F8273097F82730002B00D01DE083
S1132C507B68D8697B6859697B8CDAB2FB7DFFF7A6
S1132C609DFD7B681B6801221A7178680021FFF7BB
S1132C70BBFB034687F8273097F82730002B05D194
S1132C807B8C013B7B847B8C002BD1D197F8273044
S1132C90002B2DD17B681A687B681B691046194686
S1132CA0FEF7B2FF034687F8273097F82730002B4A
S1132CB01ED17B685B69184600212022FEF7FEFEC8
S1132CC07B685A697B689B69104619460B22FEF79C
S1132CD0D7FE7B685B690C337A6892690B32127891
S1132CE002F01802D2B21A707B681B6801221A71B2
S1132CF097F8273018462837BD4680BD4FECC44EA0
S1132D0080B58AB000AF786039603B681B683B616E
S1132D1002E03B6901333B613B691B782F2BF8D000
S1132D203B691B785C2BF4D07B68DB69FB60002378
S1132D307B617B69BB61BB695A1CBA613A69134404
S1132D401B78BB84BB8C1F2B2FD9BB8C2F2B2CD077
S1132D50BB8C5C2B29D07B69FE2B01D90623C4E1F3
S1132D60BB8CDBB2BB84BB8C1846012101F040FD57
S1132D700346BB84BB8C002B01D10623B5E1BB8C7D
S1132D807F2B09D8BB8CA5481946FEF7D9FE03460C
S1132D90002B01D00623A8E17B695A1C7A615B00F1
S1132DA0FA681344BA8C1A80C5E73A69BB691A44B5
S1132DB03B681A60BB8C1F2B01D8042300E000235E
S1132DC087F826307B69012B09D17B6903F1004325
S1132DD0013B5B00FA6813441B882E2B16D07B69D9
S1132DE0022B3AD17B6903F10043013B5B00FA6893
S1132DF013441B882E2B30D17B6903F10043023B23
S1132E005B00FA6813441B882E2B26D17B695B0078
S1132E10FA68134400221A8000233B620EE07B68A8
S1132E209A693B6A1344396A7A69914201D22E2223
S1132E3000E020221A703B6A01333B623B6A0A2B92
S1132E40EDD97B689A693B6A134497F8262042F0CF
S1132E502002D2B21A70002347E112E07B6903F129
S1132E600043013B5B00FA6813441B88BB84BB8CA2
S1132E70202B03D0BB8C2E2B00D005E07B69013BBB
S1132E807B617B69002BE9D17B69002B01D106238F
S1132E902BE17B695B00FA68134400221A807B688B
S1132EA09B69184620210B22FEF708FE0023BB6114
S1132EB002E0BB690133BB61BB695B00FA68134480
S1132EC01B88202BF5D0BB695B00FA6813441B8870
S1132ED02E2BEED0BB69002B05D097F8263043F09B
S1132EE0030387F8263002E07B69013B7B617B6941
S1132EF0002B09D07B6903F10043013B5B00FA68B6
S1132F0013441B882E2BEFD100233B62002387F848
S1132F1027300823FB61BB695A1CBA615B00FA685D
S1132F2013441B88BB84BB8C002B00D195E0BB8C65
S1132F30202B06D0BB8C2E2B0AD1BA697B699A420E
S1132F4006D097F8263043F0030387F8263083E051
S1132F503A6AFB699A4203D2BA697B699A4224D1DC
S1132F60FB690B2B06D197F8263043F0030387F84F
S1132F70263072E0BA697B699A4205D097F8263008
S1132F8043F0030387F82630BA697B699A4200D973
S1132F9063E07B69BB6108233B620B23FB6197F809
S1132FA027309B0087F8273056E0BB8C7F2B14D941
S1132FB0BB8C1846002101F01BFC0346BB84BB8C70
S1132FC0002B04D0BB8C803B154AD35CBB8497F8A0
S1132FD0263043F0020387F82630BB8C002B07D041
S1132FE0BB8C10481946FEF7ABFD0346002B08D0F6
S1132FF05F23BB8497F8263043F0030387F8263019
S113300021E0BB8C402B0FD9BB8C5A2B0CD897F8E2
S1133010273043F0020387F8273014E0FC9E0000B9
S11330208C9F0000089F0000BB8C602B0BD9BB8CCD
S11330307A2B08D897F8273043F0010387F8273014
S1133040BB8C203BBB847B689A693B6A591C396200
S11330501344BA8CD2B21A705DE77B689B691B7803
S1133060E52B03D17B689B6905221A70FB69082B49
S113307004D197F827309B0087F8273097F827303A
S113308003F00C030C2B05D097F8273003F003034F
S1133090032B05D197F8263043F0020387F8263036
S11330A097F8263003F00203002B17D197F8273046
S11330B003F00303012B05D197F8263043F01003E6
S11330C087F8263097F8273003F00C03042B05D13A
S11330D097F8263043F0080387F826307B689B690D
S11330E00B3397F826201A70002318462837BD465C
S11330F080BD00BF80B584B000AF786039603B68A4
S11331001B782F2B03D03B681B785C2B06D13B68C4
S113311001333B607B6800229A6004E07B681B6893
S11331209A697B689A603B681B781F2B09D878687A
S11331300021FFF7D7F80346FB737B6800225A612E
S113314053E03B4678681946FFF7DAFD0346FB7304
S1133150FB7B002B00D048E07868FFF727FC034690
S1133160FB737B689B69DB7ABB73FB7B002B1FD0F3
S1133170FB7B042B00D038E0BB7B03F02003002B47
S11331800DD07B6800229A607B6800225A6100237C
S1133190FB73BB7B03F00403002B08D124E0BB7B4F
S11331A003F00403002B02D10523FB731DE01CE094
S11331B0BB7B03F00403002B00D016E07B685B6943
S11331C0BB60BB680B331B7803F01003002B02D1E8
S11331D00523FB7309E07B681B681846B968FFF791
S11331E01BFA02467B689A60ABE7FB7B18461037F4
S11331F0BD4680BD80B582B000AF786039607B6821
S11332005A787B683833104619463A68012301F02E
S1133210E9F90346002B01D0032343E07B6893F8CC
S113322037321B029AB27B6893F836329BB213434F
S11332309BB21BB21D4A934201D0022332E07B6849
S113324093F871301A067B6893F870301B041343AB
S11332507A6892F86F20120213437A6892F86E200B
S1133260134323F07F43124A934201D1002319E010
S11332707B6893F88D301A067B6893F88C301B04B6
S113328013437A6892F88B20120213437A6892F8F7
S11332908A20134323F07F43054A934201D100233C
S11332A000E0012318460837BD4680BD55AAFFFF3C
S11332B04641540080B592B000AFF860B96013463F
S11332C0FB71FB681B68FB62FB6A1B78303B3B6449
S11332D03B6C092B0BD8FB6A01331B783A2B06D1C4
S11332E0FB6A0233FB62FB68FA6A1A6002E0B14BC4
S11332F01B783B64BB6800221A603B6C012B01D92C
S11333000B2393E2AC4A3B6C52F82330BB62BB6A9A
S1133310002B01D10C2389E2BB68BA6A1A60BB6A2C
S11333201B78002B1AD0BB6A5B78184601F040F971
S1133330034687F8273097F8273003F00103002B62
S11333400CD1FB79002B07D097F8273003F0040346
S1133350002B01D00A2369E2002367E2BB6A002242
S11333601A70964A3B6C12F81320BB6A5A70BB6AF7
S11333705B78184601F0F2F8034687F8273097F88F
S1133380273003F00103002B01D003234EE2FB7925
S1133390002B07D097F8273003F00403002B01D04B
S11333A00A2343E20023FB63B86AF96BFFF722FFA9
S11333B0034687F84730814A3B6C5B0013445B78D3
S11333C0002B06D097F84730002B02D1012387F851
S11333D0473097F84730012B37D1784A3B6C5B0074
S11333E013445B7887F8463097F84630002B04D0B6
S11333F097F84630013B87F8463097F846301B0172
S113340003F5DF733833BA6A13443B623B6A04330F
S11334101B78002B19D03B6A0B331B781A063B6AC6
S11334200A331B781B0413433A6A093212781202D6
S113343013433A6A083212781343FB63B86AF96B90
S1133440FFF7D8FE034687F8473097F84730032B39
S113345001D10123EAE197F84730002B01D00D2375
S1133460E4E1BB6A93F844301B029AB2BB6A93F856
S113347043309BB213439BB21BB2B3F5007F01D020
S11334800D23D3E1BB6A93F84F301B029AB2BB6A97
S113349093F84E309BB213439BB29BB2BB63BB6B9E
S11334A0002B12D1BB6A93F85F301A06BB6A93F8FB
S11334B05E301B041343BA6A92F85D201202134370
S11334C0BA6A92F85C201343BB63BB6ABA6B1A6294
S11334D0BB6A93F84830FB77BB6AFA7FDA70FB7FEC
S11334E0012B04D0FB7F022B01D00D239EE1FA7F38
S11334F0BB6B02FB03F3BB63BB6A93F84530FB77FA
S1133500BB6AFA7F9A70FB7F002B05D0FA7FFB7FA2
S1133510013B1340002B01D00D2387E1BB6A93F8D4
S11335204A301B029AB2BB6A93F849309BB21343E8
S11335309BB29AB2BB6A1A81BB6A1B8903F00F0360
S11335409BB2002B01D00D2370E1BB6A93F84C3081
S11335501B029AB2BB6A93F84B309BB213439BB2E3
S11335609BB27B637B6B002B12D1BB6A93F85B30FD
S11335701A06BB6A93F85A301B041343BA6A92F8CA
S1133580592012021343BA6A92F8582013437B63FA
S1133590BB6A93F847301B029AB2BB6A93F8463071
S11335A09BB213439BB2BB83BB8B002B08D10D236F
S11335B03CE100BF12000020080000200084FF1F2F
S11335C0BA8BBB6B1344BA6A1289120992B21344C0
S11335D0BB617A6BBB699A4201D20D2326E17A6BF7
S11335E0BB69D31ABA6A9278B3FBF2F37B617B6945
S11335F0002B01D10D2319E1012387F847307B69A2
S113360040F6F572934202D9022387F847307B696A
S11336104FF6F572934202D9032387F847307B694A
S11336209A1CBB6ADA61BB6AFA6B5A62BA8BFB6B8F
S11336301A44BB6A9A62FA6BBB691A44BB6A1A637E
S113364097F84730032B1ED1BB6A1B89002B01D08E
S11336500D23EBE0BB6A93F867301A06BB6A93F854
S113366066301B041343BA6A92F8652012021343AE
S1133670BA6A92F864201A43BB6ADA62BB6ADB69ED
S11336809B003B631FE0BB6A1B89002B01D10D2308
S1133690CCE0BB6A9A6ABB6B1A44BB6ADA6297F8DD
S11336A04730022B03D1BB6ADB695B000AE0BB6ACB
S11336B0DA6913465B0013445A08BB6ADB6903F0FA
S11336C0010313443B63BB6A1A6A3B6B03F2FF13A7
S11336D05B0A9A4201D20D23A8E0BB6A4FF0FF3285
S11336E01A61BB6A0022DA6097F84730032B40F076
S11336F08580BB6A00225A71BB6A93F869301B0249
S11337009AB2BB6A93F868309BB213439BB29BB2E4
S11337101A46FB6B1A44BB6A5A61BB6A5978BB6A86
S113372003F13802BB6A5B69084611461A46012355
S113373000F058FF0346002B60D1BB6A93F8373280
S11337401B029AB2BB6A93F836329BB213439BB204
S11337501BB2384A934251D1BB6A93F83B301A06E4
S1133760BB6A93F83A301B041343BA6A92F83920BF
S113377012021343BA6A92F8382013432E4A934232
S11337803CD1BB6A93F81F321A06BB6A93F81E3207
S11337901B041343BA6A92F81D2212021343BA6A35
S11337A092F81C221343254A934227D1BB6A93F80B
S11337B027321A06BB6A93F826321B041343BA6AEB
S11337C092F8252212021343BA6A92F824221A4369
S11337D0BB6ADA60BB6A93F823321A06BB6A93F8B1
S11337E022321B041343BA6A92F8212212021343B1
S11337F0BA6A92F820221A43BB6A1A61BB6A97F824
S113380047201A700E4B1B8801339AB20C4B1A8056
S11338100B4B1A88BB6ADA80BB6A00225A63BB6A04
S113382000221A71BB6A00229A61002318464837A5
S1133830BD4680BD55AAFFFF52526141727241617B
S11338401000002080B584B000AF78607B68FB6016
S1133850FB68002B0FD0FB681B68002B0BD0FB68A8
S11338601B681B78002B06D0FB681B68DA88FB6892
S11338709B889A4201D009230DE0FB681B685B78A2
S1133880184600F095FE034603F00103002B01D017
S1133890032300E0002318461037BD4680BD00BF57
S11338A080B485B000AF03463960FB71FB79012B0E
S11338B001D90B2316E0FB790D4A52F82330FB6043
S11338C0FB68002B02D0FB6800221A703B68002BB7
S11338D002D03B6800221A70FB7905493A6841F826
S11338E02320002318461437BD465DF8047B704737
S11338F00800002080B594B000AFF860B9601346AA
S1133900FB71FB68002B01D1092330E1FB68002225
S11339101A60FB7903F01F03FB71FB7923F00103A9
S1133920DBB207F1080107F11C02084611461A46EA
S1133930FFF7C0FC034687F84F3097F84F30002B51
S113394040F0138107F110037B638B4BBB63BB68AF
S113395007F11C0210461946FFF7CCFB034687F813
S11339604F303B6BBB6497F84F30002B05D1BB6CD9
S1133970002B02D1062387F84F30FB7903F01C0398
S1133980002B00F0908097F84F30002B12D097F85E
S11339904F30042B07D107F11C031846FFF7AEF88C
S11339A0034687F84F30FB7943F00803FB713B6B08
S11339B0BB6412E0BB6C0B331B7803F01103002BC8
S11339C003D0072387F84F3007E0FB7903F00403A3
S11339D0002B02D0082387F84F3097F84F30002B84
S11339E060D1FB7903F00803002B5BD000F0F8FEF4
S11339F07864BB6C0E337A6CD2B21A70BB6C0F3322
S1133A007A6C92B2120A92B2D2B21A70BB6C1033B0
S1133A107A6C120CD2B21A70BB6C11337A6C120E1F
S1133A20D2B21A70BB6C0B3300221A70BB6C1C33FD
S1133A3000221A70BB6C1D3300221A70BB6C1E333B
S1133A4000221A70BB6C1F3300221A70FB691846DF
S1133A50B96CFEF7E1FD3864B86C0021FEF70AFE8C
S1133A60FB6901221A713B6C002B1BD0FB695B6B59
S1133A707B64FB691846396CFEF75AFB034687F8EA
S1133A804F3097F84F30002B0CD1FB693A6C013A58
S1133A90DA60FB691846796CFEF7B6F8034687F8D6
S1133AA04F301EE01DE097F84F30002B19D1BB6C4E
S1133AB00B331B7803F01003002B03D0042387F887
S1133AC04F300EE0FB7903F00203002B09D0BB6CEE
S1133AD00B331B7803F00103002B02D0072387F874
S1133AE04F3097F84F30002B0FD1FB7903F00803C8
S1133AF0002B03D0FB7943F02003FB71FB695A6B65
S1133B00FB68DA61FB68BA6C1A6297F84F30002BD5
S1133B102BD1FB68FA799A71FB691846B96CFEF7E8
S1133B207BFD0246FB681A61BB6C1F331B781A06C7
S1133B30BB6C1E331B781B041343BA6C1D32127802
S1133B4012021343BA6C1C3212781A43FB68DA600F
S1133B50FB6800229A60FB6800229A61FA69FB689C
S1133B601A60FB69DA88FB689A8097F84F30184628
S1133B705037BD4680BD00BF1400002080B58CB016
S1133B8000AFF860B9607A603B60BB683B623B6839
S1133B9000221A60F868FFF755FE0346FB77FB7FA7
S1133BA0002B01D0FB7F3BE1FB689B79DBB25BB26E
S1133BB0002B01DA022333E1FB689B7903F0010354
S1133BC0002B01D107232BE1FB68DA68FB689B68B3
S1133BD0D31ABB617A68BB699A4201D9BB697B601D
S1133BE019E1FB689B68C3F30803002B40F0E580F0
S1133BF0FB689B685B0ADAB2FB681B689B78013B35
S1133C00DBB21340FB75FB7D002B2CD1FB689B685A
S1133C10002B03D1FB681B69FB6208E0FB681A6890
S1133C20FB685B6910461946FEF7DCF8F862FB6A2C
S1133C30012B08D8FB689B7963F07F03DAB2FB6839
S1133C409A710223ECE0FB6AB3F1FF3F08D1FB68F1
S1133C509B7963F07F03DAB2FB689A710123DFE09A
S1133C60FB68FA6A5A61FB681A68FB685B6910466C
S1133C701946FEF797F838613B69002B08D1FB68B9
S1133C809B7963F07F03DAB2FB689A710223C7E081
S1133C90FB7D3A6913443B617B685B0A7B627B6A08
S1133CA0002B44D0FA7D7B6A1344FA681268927838
S1133CB0934206D9FB681B689B781A46FB7DD31A8E
S1133CC07B62FB681B685A787B6ADBB21046396AF0
S1133CD03A6900F087FC0346002B08D0FB689B7907
S1133CE063F07F03DAB2FB689A71012398E0FB6802
S1133CF09B7903F04003002B15D0FB689A693B695C
S1133D00D21A7B6A9A420ED2FB689A693B69D31A2B
S1133D105B023A6A1A44FB682433104619464FF48E
S1133D200072FDF7ADFE7B6A5B02BB625FE0FB687D
S1133D309A693B699A423DD0FB689B7903F0400342
S1133D40002B20D0FB681B685978FB6803F1240220
S1133D50FB689B69084611461A46012300F080FC63
S1133D600346002B08D0FB689B7963F07F03DAB22B
S1133D70FB689A71012353E0FB689B7923F04003AD
S1133D80DAB2FB689A71FB681B685A78FB682433C3
S1133D90104619463A69012300F024FC0346002B1F
S1133DA008D0FB689B7963F07F03DAB2FB689A71F1
S1133DB0012335E0FB683A699A61FB689B68C3F3A9
S1133DC00803C3F50073BB62BA6A7B689A4201D9DF
S1133DD07B68BB62FB689B68C3F308032033FA6803
S1133DE013440433386A1946BA6AFDF749FE3A6A3D
S1133DF0BB6A13443B62FB689A68BB6A1A44FB685B
S1133E009A603B681A68BB6A1A443B681A607A680D
S1133E10BB6AD31A7B607B68002B7FF4E2AE00237D
S1133E2018463037BD4680BD80B58AB000AFF86013
S1133E30B9607A603B60BB68BB613B6800221A6072
S1133E40F868FFF7FFFC0346FB75FB7D002B01D0F0
S1133E50FB7D6AE1FB689B79DBB25BB2002B01DA84
S1133E60022362E1FB689B7903F00203002B01D17A
S1133E7007235AE1FB68DA687B681A44FB68DB684D
S1133E809A4201D200237B6039E1FB689B68C3F34B
S1133E900803002B40F0FE80FB689B685B0ADAB2E3
S1133EA0FB681B689B78013BDBB21340BB75BB7D91
S1133EB0002B3DD1FB689B68002B10D1FB681B696C
S1133EC07B627B6A002B13D1FB681B6818460021B8
S1133ED0FEF77CF97862FB687A6A1A6108E0FB688D
S1133EE01A68FB685B6910461946FEF76FF9786239
S1133EF07B6A002B00D106E17B6A012B08D1FB68A9
S1133F009B7963F07F03DAB2FB689A7102230CE1B8
S1133F107B6AB3F1FF3F08D1FB689B7963F07F03B1
S1133F20DAB2FB689A710123FFE0FB687A6A5A618E
S1133F30FB689B7903F04003002B20D0FB681B68CF
S1133F405978FB6803F12402FB689B690846114613
S1133F501A46012300F084FB0346002B08D0FB68BB
S1133F609B7963F07F03DAB2FB689A710123DCE08A
S1133F70FB689B7923F04003DAB2FB689A71FB6813
S1133F801A68FB685B6910461946FDF70BFF386138
S1133F903B69002B08D1FB689B7963F07F03DAB29D
S1133FA0FB689A710223C0E0BB7D3A6913443B610C
S1133FB07B685B0AFB61FB69002B46D0BA7DFB6919
S1133FC01344FA6812689278934206D9FB681B6816
S1133FD09B781A46BB7DD31AFB61FB681B685A7831
S1133FE0FB69DBB21046B9693A6900F039FB034654
S1133FF0002B08D0FB689B7963F07F03DAB2FB687F
S11340009A71012391E0FB689A693B69D21AFB69B2
S11340109A4216D2FB6803F12401FB689A693B6952
S1134020D31A5B02BA691344084619464FF4007266
S1134030FDF726FDFB689B7923F04003DAB2FB68A9
S11340409A71FB695B023B6245E0FB689A693B69D4
S11340509A421CD0FB689A68FB68DB689A4216D2C5
S1134060FB681B685A78FB682433104619463A6982
S1134070012300F0B7FA0346002B08D0FB689B79B4
S113408063F07F03DAB2FB689A7101234DE0FB68A9
S11340903A699A61FB689B68C3F30803C3F500732C
S11340A03B623A6A7B689A4201D97B683B62FB684F
S11340B09B68C3F308032033FA6813440433184697
S11340C0B9693A6AFDF7DCFCFB689B7943F040036D
S11340D0DAB2FB689A71BA693B6A1344BB61FB6844
S11340E09A683B6A1A44FB689A603B681A683B6AA0
S11340F01A443B681A607A683B6AD31A7B607B680F
S1134100002B7FF4C2AEFB689A68FB68DB689A42B6
S113411003D9FB689A68FB68DA60FB689B7943F013
S11341202003DAB2FB689A71002318462837BD468B
S113413080BD00BF80B586B000AF78607868FFF7B7
S113414081FB0346FB75FB7D002B40F099807B6867
S11341509B7903F02003002B00F092807B689B790D
S113416003F04003002B19D07B681B6859787B68E7
S113417003F124027B689B69084611461A46012311
S113418000F06EFA0346002B01D0012379E07B682E
S11341909B7923F04003DAB27B689A717B681A68D2
S11341A07B68DB6910461946FDF72EFD0346FB7557
S11341B0FB7D002B64D17B681B6A3B613B690B333D
S11341C03A690B32127842F02002D2B21A703B697B
S11341D01C337A68D268D2B21A703B691D337A688C
S11341E0D26892B2120A92B2D2B21A703B691E33EA
S11341F07A68D268120CD2B21A703B691F337A689B
S1134200D268120ED2B21A707B681B6938691946DB
S1134210FEF730FA00F0E4FAF8603B691633FA6806
S1134220D2B21A703B691733FA6892B2120A92B288
S1134230D2B21A703B691833FA68120CD2B21A70EF
S11342403B691933FA68120ED2B21A703B69123301
S113425000221A703B69133300221A707B689B7921
S113426023F02003DAB27B689A717B681B68012211
S11342701A717B681B681846FDF7F0FC0346FB7552
S1134280FB7D18461837BD4680BD00BF80B584B09D
S113429000AF78607868FFF74DFF0346FB73FB7B44
S11342A0002B02D17B6800221A60FB7B1846103772
S11342B0BD4680BD80B588B000AF7860396078684D
S11342C0FFF7C0FA0346FB75FB7D002B01D0FB7D95
S11342D040E17B689B79DBB25BB2002B01DA0223FD
S11342E038E17B68DA683B689A4208D27B689B793C
S11342F003F00203002B02D17B68DB683B607B6820
S11343009B683B610023BB617B68BA699A603B6828
S1134310002B00F0C1807B681B689B785B02FB600C
S11343203B69002B1BD03B685A1EFB68B2FBF3F2BF
S11343303B69591EFB68B1FBF3F39A420FD33B6907
S11343405A1EFB685B421A407B689A607B689B68D4
S11343503A68D31A3B607B685B69FB612BE07B683E
S11343601B69FB61FB69002B22D17B681B68184623
S11343700021FDF72BFFF861FB69012B08D17B6855
S11343809B7963F07F03DAB27B689A710223E1E0E0
S1134390FB69B3F1FF3F08D17B689B7963F07F032E
S11343A0DAB27B689A710123D4E07B68FA691A61F6
S11343B07B68FA695A61FB69002B6DD045E07B6824
S11343C09B7903F00203002B0CD07B681B68184612
S11343D0F969FDF7FBFEF861FB69002B09D1FB6865
S11343E03B6036E07B681B681846F969FDF7FAFC08
S11343F0F861FB69B3F1FF3F08D17B689B7963F0F7
S11344007F03DAB27B689A710123A3E0FB69012B75
S113441005D97B681B68DA69FB699A4208D87B680E
S11344209B7963F07F03DAB27B689A71022391E08F
S11344307B68FA695A617B689A68FB681A447B68EE
S11344409A603A68FB68D31A3B603A68FB689A4200
S1134450B5D87B689A683B681A447B689A603B6865
S1134460C3F30803002B17D07B681B681846F9694F
S1134470FDF798FCB861BB69002B08D17B689B7978
S113448063F07F03DAB27B689A71022362E03B68CF
S11344905B0ABA691344BB617B689B68C3F3080376
S11344A0002B45D07B689A69BB699A4240D07B68EF
S11344B09B7903F04003002B20D07B681B6859785C
S11344C07B6803F124027B689B69084611461A46FF
S11344D0012300F0C5F80346002B08D07B689B79C4
S11344E063F07F03DAB27B689A71012332E07B6860
S11344F09B7923F04003DAB27B689A717B681B686E
S11345005A787B68243310461946BA69012300F0AF
S113451069F80346002B08D07B689B7963F07F031E
S1134520DAB27B689A71012314E07B68BA699A61F4
S11345307B689A687B68DB689A420AD97B689A68C8
S11345407B68DA607B689B7943F02003DAB27B688E
S11345509A71FB7D18462037BD4680BD80B584B076
S113456000AF0346FB71FB79032B1BD801A252F861
S113457023F000BF85450000994500009D450000DB
S1134580A145000000F0F2FAF860FB68002B01D1AD
S1134590002308E0012306E0002304E0002302E0F6
S11345A0002300E0012318461037BD4680BD00BF3C
S11345B080B483B000AF0346FB71FB79012B05D0B7
S11345C0022B05D0002B05D1002304E0002302E0D8
S11345D0002300E0012318460C37BD465DF8047B38
S11345E0704700BF80B586B000AFB9607A601A46E4
S11345F00346FB731346BB73BB7B002B01D104231F
S11346002AE0FB7B002B02D0012B1DD023E0BB7BD7
S1134610012B0BD17868B96800F098FE78617B694A
S1134620002B01D1002317E0012315E0BB7B786840
S1134630B9681A4600F0B8FE78617B69002B01D195
S1134640002309E0012307E0BB7B012B01D10023F8
S113465002E0002300E0012318461837BD4680BD60
S113466080B586B000AFB9607A601A460346FB7322
S11346701346BB73BB7B002B01D104232AE0FB7BD5
S1134680002B02D0012B1DD023E0BB7B012B0BD1CF
S11346907868B96800F0CAFE78617B69002B01D1A3
S11346A0002317E0012315E0BB7B7868B9681A463C
S11346B000F032FF78617B69002B01D1002309E00F
S11346C0012307E0BB7B012B01D1002302E000237F
S11346D000E0012318461837BD4680BD80B582B07E
S11346E000AF03463A60FB710B46BB71FB79002BAC
S11346F03BD13A4800F0D8FBBB790E2B68D801A215
S113470052F823F04147000045470000D14700001C
S113471059470000D1470000674700006747000081
S113472067470000D1470000D147000067470000F9
S113473067470000674700006747000067470000BD
S1134740002346E0254B5A6C244B9B6CB2FBF3F2DE
S11347503B681A6000233CE0204B9B6C9AB23B6898
S11347601A80002335E000BF32E0FB79012B2DD104
S1134770BB790E2B2CD801A252F823F0B9470000C4
S1134780BD470000C1470000C5470000D1470000F5
S1134790C9470000C9470000C9470000D1470000CD
S11347A0D1470000C9470000C9470000C9470000BD
S11347B0C9470000C947000000230AE0002308E0BD
S11347C0002306E0002304E000BF01E0042300E02E
S11347D0042318460837BD4680BD00BFB8430020F7
S11347E080B400AF00231846BD465DF8047B7047D3
S11347F080B485B000AF03463960FB80FB887F2B13
S113480002D8FB88FB8124E03B68002B0BD0FB889B
S1134810FF2B05D8FB88803B114A32F8133000E0A7
S11348200023FB8115E00023FB810AE0FB890C4A8D
S113483032F81330FA889A4200D105E0FB8901333B
S1134840FB81FB897F2BF1D9FB8980339BB2DBB2DF
S1134850FB81FB8918461437BD465DF8047B70471D
S11348601CA0000080B485B000AF0346FB80002389
S1134870FB6002E0FB680133FB600F4AFB6832F81F
S11348801330002B06D00C4AFB6832F81330FA8838
S11348909A42EFD1084AFB6832F81330002B04D057
S11348A0064AFB6832F8133000E0FB8818461437D8
S11348B0BD465DF8047B70471CA10000FCA200000B
S11348C080B400AF104B40F20112C3F804210E4B28
S11348D02422C3F8082100BF0B4BD3F8003103F4A2
S11348E00003002BF8D1084B0122C3F8002100BFBC
S11348F0054BD3F8003103F08073002BF8D0BD468C
S11349005DF8047B704700BF0040064080B400AFF0
S113491000BF164BD3F8003603F40003002BF8D184
S1134920124B0022C3F80026104B40F20232C3F8A7
S113493004260E4B4FF4C012C3F8082600BF0B4BDD
S1134940D3F8003603F40003002BF8D1074B0122FF
S1134950C3F8002600BF054BD3F8003603F080737C
S1134960002BF8D0BD465DF8047B7047004006403C
S113497080B400AF074B084A5A6100BF054B1B695E
S113498003F070631B0E062BF8D1BD465DF8047B63
S1134990704700BF004006401200010680B400AF1B
S11349A0074B084A5A60064B4FF6FF729A60044B55
S11349B04FF404521A60BD465DF8047B704700BF93
S11349C00020054020C528D980B400AF084B4FF41F
S11349D08032C3F88421064B4FF480325A60044B72
S11349E00A2283F83023BD465DF8047B704700BF7C
S11349F000E100E080B400AF2A4B4FF08042C3F8DE
S1134A003021294A284B5B6943F480735361274B57
S1134A104FF480721A62244A234B9B6843F48073D8
S1134A209360204A1F4BD3F82C3143F08043C2F8E3
S1134A302C311F4A1E4B9B6843F4407393601C4AFD
S1134A401B4BDB6843F44073D360164A154BD3F811
S1134A502C3143F08043C2F82C31154A144B9B6926
S1134A6043F440739361124A114BDB6943F440737E
S1134A70D3610C4A0B4BD3F82C3143F08043C2F87A
S1134A802C310B4A0A4B1B6C43F440731364084AE1
S1134A90074B5B6C43F440735364BD465DF8047B81
S1134AA0704700BF00500640C0F00F4000C00440F3
S1134AB000B0044080B400AF044B1B680133034AC8
S1134AC01360BD465DF8047B704700BF14020020EC
S1134AD080B485B000AF0346FB710023FB7300BFB5
S1134AE0134B5B6903F00103002BF9D0104AFB79E7
S1134AF053660F4A0E4B5B6943F00103536100BFD9
S1134B000B4B5B6903F002035B08002BF8D0084BE6
S1134B105B6FFB73064A064B5B6943F00203536108
S1134B20FB7B18461437BD465DF8047B704700BF15
S1134B3000C0024080B582B000AF0346FB71FB7930
S1134B40002B0CD1084A084B1B6E23F060531366EC
S1134B50054A054B1B6E43F06053136601E000F0F9
S1134B60EFFD0837BD4680BD00C0024080B58AB065
S1134B7000AF0023FB6100233B840023FB8405E09A
S1134B80FF20FFF7A5FFFB8C0133FB84FB8C4F2B2D
S1134B90F6D90023FB8411E000200021952200F0C7
S1134BA043FD034687F8253097F82530012B02D1C1
S1134BB00023FB8407E0FB8C0133FB84FB8C40F671
S1134BC0FE729342E8D9FB8C40F6FF72934201D106
S1134BD0012361E108204FF4D571872200F06CFDB8
S1134BE0034687F8253097F8253007F11802104658
S1134BF0AB491A4603F024FB97F82530052B40F007
S1134C008380A84B012283F84E20FF20FFF760FF2A
S1134C100023FB8426E037200021002200F004FD5D
S1134C20034687F8253097F82530012B05D0A720B7
S1134C30FFF74EFF97F825302EE1292000210022AE
S1134C4000F0F2FC034687F8253097F82530002B56
S1134C5002D10023FB840AE05A20FFF739FFFB8CC2
S1134C600133FB84FB8C40F6FE729342D3D9FB8C58
S1134C7040F6FF72934224D10023FB8411E001200B
S1134C800021002200F0D0FC034687F8253097F875
S1134C902530002B02D10023FB8407E0FB8C013379
S1134CA0FB84FB8C40F6FE729342E8D9FB8C40F601
S1134CB0FF72934201D10223EEE07A4B002283F883
S1134CC04E200120FFF736FF3B200021012200F097
S1134CD0ABFC034687F8253097F82530002B02D02B
S1134CE097F82530D8E010204FF40071FF2200F02F
S1134CF09BFC034687F8253097F82530002B00F0FD
S1134D00CA8097F82530C7E097F82530012B40F08A
S1134D10C280FF20FFF7DCFE0346DBB23B77FF20B7
S1134D20FFF7D6FE0346DBB27B77FF20FFF7D0FE0A
S1134D300346DBB2BB77FF20FFF7CAFE0346DBB2B4
S1134D40FB77FF20FFF7C4FEBB7F1A4607F114036D
S1134D501846534903F074FAFB7F1A4607F114030B
S1134D6018464F4903F06CFABB7F012B40F0938047
S1134D70FB7FAA2B40F08F800023FB8444E0372084
S1134D800021002200F050FC034687F8253097F8F4
S1134D90253007F11002104641491A4603F050FA33
S1134DA097F82530012B0BD097F8253007F10C022A
S1134DB010463B491A4603F043FA97F825306BE056
S1134DC029204FF08041002200F02EFC034687F892
S1134DD0253097F8253007F10802104630491A4665
S1134DE003F02EFA97F82530002B0AD197F82530D6
S1134DF03A1D10462A491A4603F022FA0023FB847E
S1134E0007E0FB8C0133FB84FB8C40F6FE7293427B
S1134E10B5D9FB8C40F6FF72934201D103233BE0EA
S1134E203A200021002200F047FC034687F8253091
S1134E3097F82530002B02D097F825302CE0FF207E
S1134E40FFF746FE0346DBB23B77FF20FFF740FE49
S1134E500346DBB27B77FF20FFF73AFE0346DBB263
S1134E60BB77FF20FFF734FE0346DBB2FB77FF205E
S1134E70FFF72EFE3B7F03F04003002B04D0094BC9
S1134E80042283F84E2003E0064B022283F84E20CE
S1134E900120FFF74FFE002318462837BD4680BD8A
S1134EA0549F0000B843002080B58CB000AF7860F8
S1134EB009200021FF2200F0B7FB034687F82F30BA
S1134EC097F82F30002B02D097F82F30F7E107F135
S1134ED01C0318461021012200F0F6F90346002BAA
S1134EE001D00123EBE10A200021FF2200F09CFB0A
S1134EF0034687F82F3097F82F30002B02D097F80D
S1134F002F30DCE107F10C0318461021012200F0D8
S1134F10DBF90346002B01D00223D0E13B7F9B0940
S1134F20DAB27B681A703B7F03F03C039B10DAB261
S1134F307B685A703B7F03F00303DAB27B689A7094
S1134F407A7F7B68DA70BA7F7B681A71FA7F7B6834
S1134F505A7197F820309BB21B019AB27B68DA80B1
S1134F607B68DB889AB297F821301B09DBB29BB2CD
S1134F7013439AB27B68DA8097F8213003F00F0369
S1134F80DAB27B681A7297F82230DB09DAB27B68EE
S1134F905A7297F8223003F040039B11DAB27B680F
S1134FA09A7297F8223003F020035B11DAB27B681F
S1134FB0DA7297F8223003F010031B11DAB27B681F
S1134FC01A737B6800225A7397F8223003F00303A4
S1134FD09B021A467B681A617B681B6997F8232039
S1134FE092001A437B681A617B681B6997F8242036
S1134FF09209D2B21A437B681A6197F8243003F0FD
S11350003803DB10DAB27B681A7597F8243003F0A2
S11350100703DAB27B685A7597F825305B09DAB270
S11350207B689A7597F8253003F01C039B10DAB25D
S11350307B68DA7597F8253003F00303DBB25B0075
S1135040DAB27B681A767B681B7EDAB297F8263070
S1135050DB09DBB21343DAB27B681A7697F82630A1
S113506003F07C039B10DAB27B685A7697F82630FB
S113507003F00303DBB2DB00DAB27B689A767B6869
S11350809B7EDAB297F827305B09DBB21343DAB2BE
S11350907B689A7697F8273003F01F03DAB27B68AF
S11350A0DA7697F82830DB09DAB27B681A7797F852
S11350B0283003F060035B11DAB27B685A7797F803
S11350C0283003F01C039B10DAB27B689A7797F8B8
S11350D0283003F00303DBB29B00DAB27B68DA7793
S11350E07B68DB7FDAB297F829309B09DBB2134384
S11350F0DAB27B68DA7797F8293003F020035B1182
S1135100DAB27B6883F820207B68002283F82120B0
S113511097F8293003F00103DAB27B6883F8222080
S113512097F82A30DB09DAB27B6883F8232097F8F2
S11351302A3003F040039B11DAB27B6883F8242001
S113514097F82A3003F020035B11DAB27B6883F806
S1135150252097F82A3003F010031B11DAB27B687C
S113516083F8262097F82A3003F00C039B10DAB258
S11351707B6883F8272097F82A3003F00303DAB218
S11351807B6883F8282097F82B305B08DAB27B68B9
S113519083F829207B68012283F82A207B6893F80E
S11351A04E30042B0CD197F824301B021A467B682E
S11351B01A617B681B6997F825201A447B681A6179
S11351C07B681B69DA047B685A647B684FF400725D
S11351D09A643A7B7B6883F82C207B7B9BB21B020E
S11351E09AB27B68DA857B68DB8D9AB2BB7B9BB213
S11351F013439AB27B68DA85FB7B1B061A467B68ED
S11352001A637B681B6B3A7C12041A437B681A632B
S11352107B681B6B7A7C12021A437B681A637B6877
S11352201B6BBA7C1A437B681A63FA7C7B6883F82D
S113523034203A7D7B6883F835207B7D1B061A4633
S11352407B689A637B689B6BBA7D12041A437B6804
S11352509A637B689B6BFA7D12021A437B689A639C
S11352607B689B6B3A7E1A437B689A637B6893F8EE
S11352703C30DAB27B7E1B09DBB21343DAB27B68C3
S113528083F83C207B7E9BB203F00F039BB21B028E
S11352909AB27B68DA877B68DB8F9AB2BB7E9BB25B
S11352A013439AB27B68DA87FB7E5B08DAB27B68C9
S11352B083F840207B68012283F8412000231846AC
S11352C03037BD4680BD00BFB0B584B000AF786054
S11352D00B467B8013467B7000240CE0FF20FFF715
S11352E0F7FB0346FB73FB7BFE2B01D1002405E097
S11352F0234601339CB2B4F5FA6FEFD3B4F5FA6FD9
S113530001D101231DE000240BE022467B689D1897
S1135310FF20FFF7DDFB0346DBB22B70234601338E
S11353209CB27B88A342F0D8FF20FFF7D1FBFF207B
S1135330FFF7CEFB7B78002B02D0FF20FFF7C8FBE2
S1135340002318461037BD46B0BD00BF80B584B0F9
S113535000AF78603960134B93F84E30042B02D0C1
S11353607B685B027B6011207968002200F05CF9A5
S11353700346FB73FB7B002B01D001230DE038684F
S11353804FF400710122FFF79FFF0346FB730C20CB
S11353900021002200F048F9FB7B18461037BD4677
S11353A080BD00BFB843002090B587B000AFF8605F
S11353B0B9607A601C4B93F84E30042B02D0FB6822
S11353C05B02FB601220F968002200F02DF903460D
S11353D0FB75FB7D002B01D0012321E0002413E0A9
S11353E06302BA68134418464FF400710022FFF7B1
S11353F06BFF0346002B06D00C200021002200F096
S113540013F902230CE001347B689C42E8D30C209E
S11354100021002200F008F9FF20FFF759FB0023C8
S113542018461C37BD4690BDB843002090B587B0E0
S113543000AF78603960364B93F84E30042B0CD0B3
S1135440334B93F84E301A4607F11003184631498E
S113545002F0F6FE7B685B027B601820796800220C
S113546000F0E2F80346FB74FB7C07F10C021046E3
S113547028491A4602F0E4FEFB7C002B01D00123EC
S113548041E0FF20FFF724FBFF20FFF721FBFF2073
S1135490FFF71EFBFE20FFF71BFB002409E03B681F
S11354A05A1C3A601B781846FFF712FB2346013357
S11354B09CB2B4F5007FF2D3FF20FFF709FBFF2075
S11354C0FFF706FBFF20FFF703FB0346FB74FB7C9F
S11354D003F01F03052B01D0022314E000237B619A
S11354E007E07B695A1C7A61B3F5802F01D103234D
S11354F009E0FF20FFF7ECFA0346002BF1D0FF2070
S1135500FFF7E6FA002318461C37BD4690BD00BFDE
S1135510B8430020549F0000B0B586B000AFF860D7
S1135520B9607A603F4B93F84E30042B02D0FB688D
S11355305B02FB603B4B93F84E30002B04D01720EA
S11355407968002200F070F81920F968002200F050
S11355506BF80346FB74FB7C002B01D001235CE059
S1135560FF20FFF7B5FA002435E0FC20FFF7B0FA7E
S1135570002509E0BB685A1CBA601B781846FFF77F
S1135580A7FA2B4601339DB2B5F5007FF2D3FF2075
S1135590FFF79EFAFF20FFF79BFAFF20FFF798FA28
S11355A00346FB74FB7C03F01F03052B01D002238D
S11355B033E000237B6107E07B695A1C7A61B3F511
S11355C0802F01D1032328E0FF20FFF781FA03464F
S11355D0FF2BF1D101347B689C42C6D3FD20FFF739
S11355E077FA0346FB74FB7C002B01D1042314E0FF
S11355F000237B6107E07B695A1C7A61B3F5802F35
S113560001D1052309E0FF20FFF762FA0346FF2BCF
S1135610F1D1FF20FFF75CFA002318461837BD4686
S1135620B0BD00BFB843002080B584B000AF0346CE
S11356303960FB711346BB71FF20FFF749FAFB7910
S113564043F04003DBB21846FFF742FA3B681B0EF7
S1135650DBB21846FFF73CFA3B681B0CDBB218467A
S1135660FFF736FA3B681B0ADBB21846FFF730FA3D
S11356703B68DBB21846FFF72BFABB791846FFF7F5
S113568027FA0023BB730BE0FF20FFF721FA034640
S1135690FB73FB7BFF2B00D005E0BB7B0133BB73AB
S11356A0BB7BC72BF0D9FF20FFF712FAFB7B184610
S11356B01037BD4680BD00BF80B584B000AF03463F
S11356C03960FB711346BB71FF20FFF701FAFB79C8
S11356D043F04003DBB21846FFF7FAF93B681B0EB0
S11356E0DBB21846FFF7F4F93B681B0CDBB2184633
S11356F0FFF7EEF93B681B0ADBB21846FFF7E8F93F
S11357003B68DBB21846FFF7E3F9BB791846FFF7AD
S1135710DFF90023BB730BE0FF20FFF7D9F9034641
S1135720FB73FB7BFF2B00D005E0BB7B0133BB731A
S1135730BB7BC72BF0D9FB7B18461037BD4680BD19
S113574080B400AF234A234BD3F8343143F0804371
S1135750C2F83431204A204B1B6843F400731360B1
S11357601D4A1D4B5B6843F4007353601A4A1A4B7D
S11357709B6843F400739360174A174B9B6943F487
S113578000739361134B0022C3F8B020114B4FF008
S11357904642C3F8B020114B00221A610F4B00227D
S11357A09A610E4B0022DA610C4B00221A620B4BF9
S11357B001225A62094B0A4A1A66084B094A1A64BA
S11357C0064B03229A65054B09221A61BD465DF812
S11357D0047B70470050064000D0044000C00240E3
S11357E0070000D20808090490B486B000AFF8603E
S11357F0B9607A6000237B614B494C4AFB6852F8DC
S113580023304948494CFA6854F8222050F82220A1
S113581042F0804241F82320454AFB6852F8233085
S11358204349FA6851F82220126842F000421A6093
S11358303F4AFB6852F823303D49FA6851F8222068
S1135840526822F400525A60394AFB6852F82330F5
S11358503749FA6851F82220126822F000421A608F
S113586000BF334AFB6852F823301B6803F080738F
S11358701B0E002BF5D07B681B012E4AB2FBF3F301
S1135880013B3B612A4AFB6852F823203B691B0613
S113589043F45B0343F00603536000237B610DE094
S11358A0234AFB6852F823307A6902F508724FF0F4
S11358B0FF3143F822107B6901337B617B690F2B35
S11358C0EED91B4AFB6852F823306FF060421A612C
S11358D0174AFB6852F823304FF08062C3F8C020A7
S11358E0134AFB6852F82330BA689204C3F8C42000
S11358F00F4AFB6852F823301F221A6000BF0C4A7B
S1135900FB6852F823301B68002B00D000BF00BF97
S1135910074AFB6852F823301B68002B00D000BFF5
S11359201837BD4690BC7047005006401084FF1FD6
S11359300484FF1F00127A0090B585B000AFF860B0
S1135940B9607A603B60184AFB6852F82330012240
S11359501A63154AFB6852F823403868FCF73EF88E
S11359600346C4F88830104AFB6852F823403B6869
S113597004331846FCF732F80346C4F88C300A4A5C
S1135980FB6852F82330BA689204C3F88420064AAC
S1135990FB6852F823307A68120442F04462C3F878
S11359A080201437BD4690BD0484FF1F80B588B0A5
S11359B000AFF860B9607A60204AFB6852F823307F
S11359C01B6B1B0903F00103002B30D01B4AFB683F
S11359D052F82330D3F8C03003F470231A0CBB6898
S11359E01A60164AFB6852F82330D3F8C830FB61BA
S11359F0124AFB6852F82330D3F8CC30BB61F86903
S1135A007968FCF719F87B680433B8691946FCF720
S1135A1013F80A4AFB6852F823309B687B61074AF3
S1135A20FB6852F8233010221A63002301E04FF080
S1135A30FF3318462037BD4680BD00BF0484FF1FD6
S1135A4080B400AF4FF0E0224FF0E023D3F8883D5C
S1135A5043F47003C2F8883D4FF0E0224FF0E02396
S1135A60D3F8343F23F08043C2F8343F084B094A4B
S1135A705A60074B5B68064B42F220121A60044BD3
S1135A804FF6FF729A60BD465DF8047B704700BF15
S1135A900020054020C528D980B48BB000AF304B1E
S1135AA03B62304B7B61304BFB60304BFB61304BD6
S1135AB03B61304BBB60304BBB61304B7B60304A49
S1135AC0304B9A4218D000237B620AE02D4A7B6A4D
S1135AD052F823202A497B6A41F823207B6A013348
S1135AE07B62294B9B087A6A9A42EFD34FF0E023FA
S1135AF0234AC3F8082D04E04FF0E023214AC3F8F9
S1135B00082D09E07B691A783B6A1A703B6A0133F5
S1135B103B627B6901337B61FA687B699A42F1D10C
S1135B2009E03B691A78FB691A70FB690133FB6170
S1135B303B6901333B61BA683B699A42F1D105E0A4
S1135B40BB6900221A70BB690133BB617A68BB6907
S1135B509A42F5D12C37BD465DF8047B704700BFEF
S1135B600084FF1F88A6000094A700000C85FF1F77
S1135B7094A7000094A7000000000020EC4400203B
S1135B800080FF1F000000000004000080B588B002
S1135B9000AF786000237B6100F0ACFF404B1B68D2
S1135BA0002B04D100F0BCF83D4B01221A607B6845
S1135BB0002B0ED008231A467B6813447B607B6855
S1135BC003F00703002B04D07B6823F0070308339A
S1135BD07B607B68002B57D07B6843F6F772934257
S1135BE052D8304BBB612F4B1B68FB6104E0FB694F
S1135BF0BB61FB691B68FB61FB695A687B689A425D
S1135C0003D2FB691B68002BF1D1FB69264A93423E
S1135C103AD0BB691B68082213447B61FB691A688C
S1135C20BB691A60FB695A687B68D31A0822520060
S1135C30934222D9FA697B681344FB60FB695A6872
S1135C407B68D21AFB685A60FB697A685A60FB6801
S1135C505B68BB60134B3B6102E03B691B683B61C3
S1135C603B691B685A68BB689A42F6D33B691A6859
S1135C70FB681A603B69FA681A600C4B1A68FB6986
S1135C805B68D31A094A136000F042FF7B69002B5A
S1135C9001D1FBF727FE7B6918462037BD4680BD3E
S1135CA02842002018420020204200201C84FF1FAC
S1135CB080B586B000AF78607B683B617B68002B61
S1135CC027D008235B423A6913443B613B69FB607C
S1135CD000F010FFFB685B68BB600F4B7B6102E068
S1135CE07B691B687B617B691B685A68BB689A4245
S1135CF0F6D37B691A68FB681A607B69FA681A60D4
S1135D00FB685A68054B1B681344044A136000F08F
S1135D10FFFE1837BD4680BD184200201C84FF1FBB
S1135D2080B483B000AF0F4B23F007037B600E4AAF
S1135D307B6813600C4B00225A600C4B43F6F872DC
S1135D405A600A4B00221A607B683B603B6843F64A
S1135D50F8725A603B68054A1A600C37BD465DF814
S1135D60047B7047200200201842002020420020BB
S1135D7080B485B000AFF860B9607A60FB68043B1A
S1135D80FB60FB684FF080721A60FB68043BFB60A9
S1135D90BA68FB681A60FB68043BFB600C4AFB684A
S1135DA01A60FB68143BFB607A68FB681A60FB6846
S1135DB0043BFB60FB686FF002021A60FB68203B47
S1135DC0FB60FB6818461437BD465DF8047B7047DA
S1135DD0D55D000080B483B000AF0C4B1B68B3F1F9
S1135DE0FF3F09D04FF0100383F31188BFF36F8F87
S1135DF0BFF34F8F7B60FEE74FF0100383F31188EE
S1135E00BFF36F8FBFF34F8F3B60FEE72084FF1F0C
S1135E10064B19680868B0E8F04F80F30988BFF3AF
S1135E206F8F4FF0000080F3118870476C420020A0
S1135E3006480068006880F3088862B661B6BFF35C
S1135E404F8FBFF36F8F00DF00BF000008ED00E04D
S1135E5080B586B000AF3B4B1B683B4A934209D1E7
S1135E604FF0100383F31188BFF36F8FBFF34F8F8D
S1135E703B61FEE7334B1B68344A934209D14FF030
S1135E80100383F31188BFF36F8FBFF34F8FFB6051
S1135E90FEE72F4B7B617B691B78DBB2BB607B69C0
S1135EA0FF221A707B691B78DBB2FB71FB79DBB2D2
S1135EB003F01003DAB2274B1A70274B07221A603B
S1135EC009E0254B1B68013B234A1360FB79DBB2D5
S1135ED05B00DBB2FB71FB79DBB2DBB25BB2002BA4
S1135EE0EFDB1D4B1B681B021B4A13601A4B1B681C
S1135EF003F4E063184A1360BB68DAB27B691A7072
S1135F00164A164B1B6843F470031360134A134B71
S1135F101B6843F07043136000F0CCF8104B002270
S1135F201A6000F0D9F80F4A0E4B1B6843F0404347
S1135F301360FFF77DFFFFF74DFF00231846183766
S1135F40BD4680BD00ED00E071C20F4170C20F413B
S1135F5000E400E02C4200203042002020ED00E06C
S1135F602084FF1F34EF00E080B483B000AF4FF013
S1135F70100383F31188BFF36F8FBFF34F8F7B60E0
S1135F800E4B1B6801330D4A13600C4B1B68012B2D
S1135F900ED10B4B1B68DBB2002B09D04FF0100362
S1135FA083F31188BFF36F8FBFF34F8F3B60FEE71E
S1135FB00C37BD465DF8047B704700BF2084FF1F8B
S1135FC004ED00E080B483B000AF104B1B68002BDD
S1135FD009D14FF0100383F31188BFF36F8FBFF320
S1135FE04F8F7B60FEE7094B1B68013B074A136038
S1135FF0064B1B68002B04D100233B603B6883F3F2
S113600011880C37BD465DF8047B70472084FF1F60
S1136010EFF30980BFF36F8F144B1A681EF0100F53
S113602008BF20ED108A20E9F04F10604DF8043DC0
S11360304FF0100080F31188BFF34F8FBFF36F8FC1
S113604000F0D4FE4FF0000080F3118808BC1968FA
S11360500868B0E8F04F1EF0100F08BFB0EC108ACB
