S00E00006470313030302E7372656381
S1130000007000201104000051040000510400009D
S113001051040000510400005104000000000000DD
S113002000000000000000000000000069880000DB
S11300305104000000000000698A0000C98A000021
S11300405104000051040000510400005104000058
S11300505104000051040000510400005104000048
S11300605104000051040000510400005104000038
S11300705104000051040000510400005104000028
S11300805104000051040000510400005104000018
S11300905104000051040000510400005104000008
S11300A051040000510400005104000051040000F8
S11300B0510400005104000051040000B18100000B
S11300C051040000E181000051040000118200008D
S11300D051040000510400005104000051040000C8
S11300E051040000510400005104000051040000B8
S11300F051040000510400005104000051040000A8
S11301005104000051040000510400005104000097
S11303F0510400005104000051040000FFFFFFFFFE
S1130400FFFFFFFFFFFFFFFFFFFFFFFFFE7FFFFF79
S113041072B60B490A4A0A4B094C094D084E084F5B
S1130420B846B946BA46BB46BC4606488546064861
S113043080470648804762B602F0F6FEFEE70000F9
S1130440000000000070002099840000F184000086
S1130450FFF7FEBF81F0004102E000BF83F00043DC
S113046030B54FEA41044FEA430594EA050F08BF4B
S113047090EA020F1FBF54EA000C55EA020C7FEA0F
S1130480645C7FEA655C00F0E2804FEA5454D4EB8C
S11304905555B8BF6D420CDD2C4480EA020281EA56
S11304A0030382EA000083EA010180EA020281EA8E
S11304B00303362D88BF30BD11F0004F4FEA0131E0
S11304C04FF4801C4CEA113102D0404261EB4101EF
S11304D013F0004F4FEA03334CEA133302D0524275
S11304E063EB430394EA050F00F0A780A4F1010431
S11304F0D5F1200E0DDB02FA0EFC22FA05F280186B
S113050041F1000103FA0EF2801843FA05F3594150
S11305100EE0A5F120050EF1200E012A03FA0EFCCF
S113052028BF4CF0020C43FA05F3C01851EBE371F9
S113053001F0004507D54FF0000EDCF1000C7EEB16
S113054000006EEB0101B1F5801F1BD3B1F5001F54
S11305500CD349085FEA30004FEA3C0C04F1010473
S11305604FEA445212F5800F80F09A80BCF1004F9C
S113057008BF5FEA500C50F1000041EB045141EA1E
S1130580050130BD5FEA4C0C404141EB010111F41F
S1130590801FA4F10104E9D191F0000F04BF0146CA
S11305A00020B1FA81F308BF2033A3F10B03B3F1A8
S11305B020020CDA0C3208DD02F1140CC2F10C0238
S11305C001FA0CF021FA02F10CE002F11402D8BF96
S11305D0C2F1200C01FA02F120FA0CFCDCBF41EA62
S11305E00C019040E41AA2BF01EB0451294330BD31
S11305F06FEA04041F3C1CDA0C340EDC04F114040E
S1130600C4F1200220FA04F001FA02F340EA0300E4
S113061021FA04F345EA030130BDC4F10C04C4F12A
S1130620200220FA02F001FA04F340EA030029460A
S113063030BD21FA04F0294630BD94F0000F83F454
S1130640801306BF81F480110134013D4EE77FEA37
S1130650645C18BF7FEA655C29D094EA050F08BF83
S113066090EA020F05D054EA000C04BF1946104664
S113067030BD91EA030F1EBF0021002030BD5FEAA8
S1130680545C05D14000494128BF41F0004130BDD0
S113069014F580043CBF01F5801130BD01F0004524
S11306A045F0FE4141F470014FF0000030BD7FEA97
S11306B0645C1ABF194610467FEA655C1CBF0B4692
S11306C0024650EA013406BF52EA033591EA030FA9
S11306D041F4002130BD00BF90F0000F04BF0021A1
S11306E0704730B54FF4806404F132044FF00005D4
S11306F04FF0000150E700BF90F0000F04BF00214D
S1130700704730B54FF4806404F1320410F00045B2
S113071048BF40424FF000013EE700BF42004FEAAD
S1130720E2014FEA31014FEA02701FBF12F07F432A
S113073093F07F4F81F06051704792F0000F14BF27
S113074093F07F4F704730B54FF4607401F000456B
S113075021F0004120E700BF50EA010208BF7047C2
S113076030B54FF000050AE050EA010208BF7047B7
S113077030B511F0004502D5404261EB41014FF420
S1130780806404F132045FEA915C3FF4DCAE4FF024
S113079003025FEADC0C18BF03325FEADC0C18BF0B
S11307A0033202EBDC02C2F1200300FA03FC20FA5C
S11307B002F001FA03FE40EA0E0021FA02F11444A9
S11307C0C1E600BF70B54FF0FF0C4CF4E06C1CEABE
S11307D011541DBF1CEA135594EA0C0F95EA0C0F33
S11307E000F0DEF82C4481EA030621EA4C5123EAA6
S11307F04C5350EA013518BF52EA033541F48011D5
S113080043F4801338D0A0FB02CE4FF00005E1FB87
S113081002E506F00042E0FB03E54FF00006E1FBD1
S113082003569CF0000F18BF4EF0010EA4F1FF0414
S1130830B6F5007F64F5407404D25FEA4E0E6D4154
S113084046EB060642EAC62141EA55514FEAC52065
S113085040EA5E504FEACE2EB4F1FD0C88BFBCF5E1
S1130860E06F1ED8BEF1004F08BF5FEA500E50F192
S1130870000041EB045170BD06F0004646EA010158
S113088040EA020081EA0301B4EB5C04C2BFD4EB8A
S11308900C0541EA045170BD41F480114FF0000E83
S11308A0013C00F3AB8014F1360FDEBF002001F0F1
S11308B0004170BDC4F10004203C35DA0C341BDC6B
S11308C004F11404C4F1200500FA05F320FA04F03D
S11308D001FA05F240EA020001F0004221F0004171
S11308E010EBD37021FA04F642EB06015EEA430EE4
S11308F008BF20EAD37070BDC4F10C04C4F1200514
S113090000FA04F320FA05F001FA04F240EA0200C6
S113091001F0004110EBD37041F100015EEA430E97
S113092008BF20EAD37070BDC4F1200500FA05F2B7
S11309304EEA020E20FA04F301FA05F243EA020336
S113094021FA04F001F0004121FA04F220EA020045
S113095000EBD3705EEA430E08BF20EAD37070BD8B
S113096094F0000F0FD101F00046400041EB01016B
S113097011F4801F08BF013CF7D041EA060195F04D
S1130980000F18BF704703F00046520043EB030307
S113099013F4801F08BF013DF7D043EA06037047F4
S11309A094EA0C0F0CEA135518BF95EA0C0F0CD0FF
S11309B050EA410618BF52EA4306D1D181EA030145
S11309C001F000414FF0000070BD50EA410606BF3F
S11309D01046194652EA430619D094EA0C0F02D184
S11309E050EA013613D195EA0C0F05D152EA0336C9
S11309F01CBF104619460AD181EA030101F00041E7
S1130A0041F0FE4141F470014FF0000070BD41F02F
S1130A10FE4141F4780170BD70B54FF0FF0C4CF409
S1130A20E06C1CEA11541DBF1CEA135594EA0C0F28
S1130A3095EA0C0F00F0A7F8A4EB050481EA030E75
S1130A4052EA03354FEA013100F088804FEA03335C
S1130A504FF0805545EA131343EA12634FEA02222A
S1130A6045EA111545EA10654FEA00260EF00041EB
S1130A709D4208BF964244F1FD0404F5407402D23D
S1130A805B084FEA3202B61A65EB03055B084FEACE
S1130A9032024FF480104FF4002CB6EB020E75EBCB
S1130AA0030E22BFB61A754640EA0C005B084FEAF3
S1130AB03202B6EB020E75EB030E22BFB61A754670
S1130AC040EA5C005B084FEA3202B6EB020E75EBBB
S1130AD0030E22BFB61A754640EA9C005B084FEA33
S1130AE03202B6EB020E75EB030E22BFB61A754640
S1130AF040EADC0055EA060E18D04FEA051545EA2F
S1130B0016754FEA06164FEAC30343EA52734FEAD7
S1130B10C2025FEA1C1CC0D111F4801F0BD141EA50
S1130B2000014FF000004FF0004CB6E711F4801FB5
S1130B3004BF01430020B4F1FD0C88BFBCF5E06F95
S1130B403FF6AFAEB5EB030C04BFB6EB020C5FEAA5
S1130B50500C50F1000041EB045170BD0EF0004EFA
S1130B604EEA113114EB5C04C2BFD4EB0C0541EA2C
S1130B70045170BD41F480114FF0000E013C90E629
S1130B8045EA060E8DE60CEA135594EA0C0F08BFED
S1130B9095EA0C0F3FF43BAF94EA0C0F0AD150EAEC
S1130BA001347FF434AF95EA0C0F7FF425AF10467F
S1130BB019462CE795EA0C0F06D152EA03353FF4A7
S1130BC0FDAE1046194622E750EA410618BF52EA24
S1130BD043067FF4C5AE50EA41047FF40DAF52EAF8
S1130BE043057FF4EBAE12E74FF0FF3C06E000BF95
S1130BF04FF0010C02E000BF4FF0010C4DF804CDA2
S1130C004FEA410C7FEA6C5C4FEA430C18BF7FEA61
S1130C106C5C1BD001B050EA410C0CBF52EA430C8F
S1130C2091EA030F02BF90EA020F0020704710F10F
S1130C30000F91EA030F58BF994208BF90422CBF9E
S1130C40D8176FEAE37040F0010070474FEA410C97
S1130C507FEA6C5C02D150EA013C07D14FEA430CB5
S1130C607FEA6C5CD6D152EA033CD3D05DF8040B26
S1130C70704700BF8446104662468C461946634658
S1130C8000E000BF01B5FFF7B7FF002848BF10F12F
S1130C90000F01BD4DF808EDFFF7F4FF0CBF012074
S1130CA000205DF808FB00BF4DF808EDFFF7EAFFF0
S1130CB034BF012000205DF808FB00BF4DF808EDAB
S1130CC0FFF7E0FF94BF012000205DF808FB00BFA0
S1130CD04DF808EDFFF7CEFF94BF012000205DF82A
S1130CE008FB00BF4DF808EDFFF7C4FF34BF012037
S1130CF000205DF808FB00BF4FEA410212F5001224
S1130D0015D211D56FF47873B3EB625212D94FEA4E
S1130D10C12343F0004343EA505311F0004F23FA38
S1130D2002F018BF404270474FF00000704750EA8D
S1130D30013005D111F0004008BF6FF0004070474A
S1130D404FF00000704700BF4FEA4102B2F1E043A8
S1130D5024BFB3F5001CDCF1FE5C0DD901F0004C9E
S1130D604FEAC0024CEA5070B2F1004F40EB8300EE
S1130D7008BF20F00100704711F0804F21D113F11A
S1130D803872BCBF01F00040704741F480114FEA53
S1130D905252C2F11802C2F1200C10FA0CF320FADC
S1130DA002F018BF40F001004FEAC1234FEAD323F9
S1130DB003FA0CFC40EA0C0023FA02F34FEA430363
S1130DC0CCE77FEA625307D150EA01331EBF4FF0EC
S1130DD0FE4040F44000704701F0004040F0FE4007
S1130DE040F40000704700BF53B94AB9002908BF56
S1130DF000281CBF4FF0FF314FF0FF3000F03EB829
S1130E0082B0EC462DE9005000F020F8DDF804E053
S1130E1002B00CBC704700BF704700BF2DE9F04121
S1130E20069C154606460F46984600F029F805FB31
S1130E3001F300FB0838A5FB0023B21A434467EB17
S1130E400303C4E90023BDE8F08100BF2DE9F041AC
S1130E50069C904606460F461D4600F05FF900FBCF
S1130E6005F5A0FB082308FB0155B21A2B4467EBD8
S1130E700303C4E90023BDE8F08100BF704700BF4D
S1130E8000292DE9F043C0F2A6800026002BC0F211
S1130E909C80884694469E46154604460F46002B81
S1130EA03DD18A4259D9B2FA82F33BB1C3F120024F
S1130EB09F4020FA02F29D4017439C40290C220CCB
S1130EC0B7FBF1FEA8B201FB1E7742EA074700FB1D
S1130ED00EF3BB420AD97F190EF1FF3280F005816F
S1130EE0BB4240F20281AEF1020E2F44FF1AA4B2BB
S1130EF0B7FBF1F301FB137744EA074700FB03F068
S1130F00B84208D97F1903F1FF3280F0F080B8426B
S1130F1040F2ED80023B43EA0E43002203E08B42A1
S1130F200FD900221346341C18BF012460424FF02D
S1130F30000565EB45015840514000196941BDE881
S1130F40F083B3FA83F2002A40F086808B4202D306
S1130F50844500F2DB800123E5E712B90123B3FBEA
S1130F60F2F5B5FA85F000283BD1781B4FEA154E0F
S1130F701FFA85FC0122B0FBFEF8210C0EFB1807BA
S1130F8041EA07470CFB08F3BB4207D97F1908F174
S1130F90FF3102D2BB4200F2BD808846FF1AA4B2E0
S1130FA0B7FBFEF30EFB137744EA07470CFB03FC85
S1130FB0BC4507D97F1903F1FF3102D2BC4500F2C9
S1130FC0A7800B4643EA0843ADE752426FEA0606A0
S1130FD063EB43035DE7404261EB41014FF0FF36B1
S1130FE054E7C0F1200224FA02F107FA00F3854025
S1130FF04FEA154ED7401943B7FBFEF20B0C0EFB1C
S113100012771FFA85FC43EA07430CFB02F79F4261
S113101004FA00F407D95B1902F1FF3074D29F423D
S113102072D9023A2B44DF1B89B2B7FBFEF80EFBE0
S1131030187341EA03430CFB08F79F4208D95B1974
S113104008F1FF315CD29F425AD9A8F102082B441F
S1131050D81B48EA02428EE7C2F120032CFA03F1BE
S11310600EFA02FE20FA03F741EA0E0E08FA02F025
S113107028FA03F14FEA1E453843B1FBF5F8030C97
S113108005FB18111FFA8EF743EA014107FB08F329
S11310908B420CFA02FC09D911EB0E0108F1FF395D
S11310A030D28B422ED9A8F102087144C91A80B2F9
S11310B0B1FBF5F305FB131140EA014107FB03F70C
S11310C08F4208D911EB0E0103F1FF3016D28F4283
S11310D014D9023B714443EA0843C91BA3FB0C899E
S11310E0494509D305D000221DE79646FEE613467E
S11310F011E794404445F6D2013BF4E70346EAE79E
S11311008846A5E7C846D1E702468CE713460AE7B6
S1131110023B57E7A8F102082F443FE72DE9F041CD
S1131120002B44D18A42154604464FD9B2FA82F7BD
S11311300E464FB1C7F12003B94020FA03F602FA74
S113114007F50E4300FA07F44FEA154E230CB6FBDD
S1131150FEF0AFB20EFB106143EA014307FB00F15E
S1131160994209D95B1900F1FF3280F0EC80994271
S113117040F2E98002382B445A1AA4B2B2FBFEF3BF
S11311800EFB132244EA024207FB03F7974208D9F5
S1131190521903F1FF3180F0D880974240F2D58094
S11311A0023B43EA004000263146BDE8F0818B4211
S11311B047D8B3FA83F6002E48D18B4202D3824239
S11311C000F2CD8001203146BDE8F08112B901253D
S11311D0B5FBF2F5B5FA85F8B8F1000F77D14A1BE3
S11311E04FEA154EAFB20126B2FBFEF0230C0EFB04
S11311F0102143EA014107FB00F38B4207D9491947
S113120000F1FF3202D28B4200F2BA801046C91AB2
S1131210A4B2B1FBFEF30EFB131144EA014407FB35
S113122003F7A74208D9641903F1FF3280F08F80D5
S1131230A74240F28C80023B43EA00403146BDE8BD
S1131240F081002630463146BDE8F081C6F1200425
S113125022FA04F5B3402B4320FA04FC01FA06F702
S113126021FA04F54FEA134E4CEA0707B5FBFEF8E2
S1131270390C0EFB18551FFA83FC41EA05450CFB9B
S113128008F1A94202FA06F204D9ED1808F1FF3474
S113129067D3A0466D1ABFB2B5FBFEF40EFB14551E
S11312A047EA05410CFB04FC8C4504D9C91804F138
S11312B0FF355CD32C4644EA0844CCEB0101A4FB83
S11312C00223994248D344D0204600266CE7C8F153
S11312D0200401FA08F305FA08F520FA04F7E140BE
S11312E04FEA154E1F43B1FBFEF63A0C0EFB1611E6
S11312F01FFA85FC42EA01430CFB06F29A4200FA0B
S113130008F407D95B1906F1FF3137D29A4235D96F
S1131310023E2B449B1ABFB2B3FBFEF00EFB10330C
S113132047EA03430CFB00F1994207D95B1900F12A
S1131330FF3221D299421FD902382B445A1A40EA6B
S11313400646674650E7104616E70B4629E713465C
S113135072E7B0409042B7D2601E002624E73046C0
S113136022E7A94295D9A8F102081D4492E78C45C9
S1131370A0D9023C19449EE71046DFE70E46C9E7B0
S11313800238294443E700BFB0B582B000AF7860AB
S11313907B68002B17D07B681B681C464FF0000548
S11313A0144BD3E90023104619464FF47A724FF0D8
S11313B00003FFF719FD02460B46A21A65EB03036F
S11313C00D49C1E900230B4BD3E90023104619460C
S11313D04FF47A724FF00003FFF706FD02460B4606
S11313E01146054BD3E9002313460B44184608372E
S11313F0BD46B0BD000000200800002080B48BB0C2
S113140000AF786039607B685B6903F26C737B6260
S11314107B681B6901333B627B68DB68FB617B682B
S11314209B68BB617B685B687B617B681B683B6115
S11314303B6A023B3B623B6A002B05DC3B6A0C3394
S11314403B627B6A013B7B627B6A9A087B6A1F4929
S1131450A1FB03135B09D21A7B6A1C49A1FB03138A
S1131460DB091A443B6A40F26F1101FB03F318498C
S1131470A1FB0313DB081A44FB691A447B6A40F29C
S11314806D1101FB03F31A4413465B001344DB00A4
S11314901A46BB691A4413461B019B1A9B001A4641
S11314A07B691A4413461B019B1A9B001A463B692D
S11314B01A44084B1344FB603B68FA68D31A184675
S11314C02C37BD465DF8047B704700BF1F85EB5188
S11314D0ABAAAAAA80BFB18680B582B000AF7860FB
S11314E0002000F0DBF8034678681946FFF786FF12
S11314F0034618460837BD4680BD00BF80B489B096
S113150000AFF860B9607A60FB681B68BB61BB68B8
S1131510BA691344BB61B9695B4BA3FB01235A0944
S113152013461B019B1A9B00CA1A7B681A60BB698D
S1131530554AA2FB03235B09BB61B969524BA3FB68
S113154001235A0913461B019B1A9B00CA1A7B6884
S11315505A60BB694C4AA2FB03235B09BB61BB69AC
S11315604A4AA2FB03231B091A1D494BA2FB030190
S1131570531A5B080B4499080B46DB005B1AD11A1B
S11315800A467B689A61BB69424AA2FB0323DB0BD0
S11315907B617B699B0046331A467B685A61BB6951
S11315A03C4AA2FB0312D20B48F6F80101FB02F2FB
S11315B09B1ABB6142F23823FB617B685B6903F0D1
S11315C00303002B02D1FB691833FB61BA69FB6981
S11315D09A421CD200BFB9692C4BA3FB01231A0900
S11315E013465B001344DB00CA1A7B689A60BB692C
S11315F0264AA2FB03231B09BB61BB690133BB6100
S11316007B685B6903F00303002B1BD109E07B6853
S11316105B695A1C7B685A61BA69FB69D31ABB615E
S1131620C8E7BB693C2B03D9BB69013BBB6109E03B
S1131630BB693C2B06D17B6801221A617B681D22A1
S1131640DA601CE07B6800221A610CE07B681B698D
S1131650114AD35C1A46BB699B1ABB617B681B6940
S11316605A1C7B681A617B681B690B4AD35C1A4657
S1131670BB699A42EAD3BA697B68DA6000BF24374F
S1131680BD465DF8047B704789888888ABAAAAAAFE
S11316902549922475AF3CEFDCF4000080B483B09C
S11316A000AF78607B68002B03D07B681B68054A19
S11316B01360044B1B6818460C37BD465DF8047B69
S11316C0704700BF0084FF1F80B584B000AF78600E
S11316D039607B68002B02D07B681B6803E0002024
S11316E0FFF752FE0346FB600020FFF7D7FF0246D8
S11316F007F10C03184611463A68FFF7FFFE3B68F2
S113170018461037BD4680BDF0B58DB006AFF86001
S1131710B9607A60D7F804C0FB685B6903F26C7E39
S1131720FB681B695D1CFB68DC68FB689868FB68E8
S11317305968FB681A68FB689B69002B09DBFB6826
S11317409B69062B05DCFB689B690E4E56F823301B
S113175000E00D4B009501940290039104920593CF
S1131760B8686146094A734609F018FA78617B69DA
S1131770002B01DA002300E0BB6818461C37BD4685
S1131780F0BD00BF08F5000008EA0000E8F400001E
S113179080B582B000AF7860786804494022FFF7D2
S11317A0B3FF034618460837BD4680BD100000202D
S11317B080B500AF014800F03BF880BD5000002028
S11317C00FB480B5A2B000AF07F19403C7F880301E
S11317D00E4800F051F83B4618468021D7F8902077
S11317E0D7F8803009F016FAC7F884003B46002089
S11317F0D7F884101A4600F001FC044800F05CF8A5
S11318008837BD46BDE8804004B0704750000020D2
S113181080B582B000AF78603960002079683A689A
S113182000F02CFB034618460837BD4680BD00BFB8
S113183080B582B000AF78607B68002B05D10B487F
S11318400B490C4AFFF7BCFFFEE7012008F010FD2E
S113185002467B681A607B681B68184600210022D8
S1131860002308F051FD0837BD4680BD0CEA000096
S113187024F5000024EA000080B582B000AF78604F
S11318807B68002B05D1094809490A4AFFF798FFEC
S1131890FEE77B681B68184600214FF0FF320023E7
S11318A008F09EFE0837BD4680BD00BF0CEA00006C
S11318B034F5000024EA000080B582B000AF7860FF
S11318C07B68002B05D108480849094AFFF778FFCF
S11318D0FEE77B681B68184600210022002308F0FD
S11318E013FD0837BD4680BD0CEA000044F5000036
S11318F024EA000080B582B000AF78607B681846A7
S113190007F078FD0837BD4680BD00BF80B582B0C2
S113191000AF00237B6016E0012005F0E7FC0E48D1
S1131920FFF74EFF4FF47A70FFF7E4FF002005F055
S1131930DDFC0A48FFF744FF4FF4FA70FFF7DAFFC3
S11319407B6801337B607B68022BE5DD002318464E
S11319500837BD4680BD00BF30EA00003CEA000005
S113196080B5ADF59D6D00AF5548FFF729FF07F52C
S11319702B730020194603F005FD034687F8E7346E
S113198097F8E734002B08D097F8E7344D48194608
S1131990FFF716FF4FF0FF338DE04B48FFF710FFC2
S11319A007F1880318464949132203F015FD03463D
S11319B087F8E73497F8E734002B05D04448FFF75D
S11319C0FFFE4FF0FF3376E04248FFF7F9FE07F1E0
S11319D088031846002104F0DFF907F1880207F1B3
S11319E0840310463C49092203F090FF034687F81C
S11319F0E73497F8E734002B05D03548FFF7E0FECD
S1131A004FF0FF3357E03548FFF7DAFE3B1D184629
S1131A100021802209F09FF907F18803184600216C
S1131A2004F0BAF907F188013A1D3B46084611460D
S1131A30092203F015FE034687F8E73497F8E734E4
S1131A40002B05D02648FFF7BBFE4FF0FF3332E0F2
S1131A503B461B68092B08D03B461B6821481946A6
S1131A60FFF7AEFE4FF0FF3325E03B1D18461A4941
S1131A7009F084F90346002B07D03B1D1A48194688
S1131A80FFF79EFE4FF0FF3315E01848FFF798FE6E
S1131A9007F18803184604F06BF9034687F8E73426
S1131AA097F8E734002B05D01148FFF789FE4FF073
S1131AB0FF3300E00023184607F59D67BD4680BD4F
S1131AC048EA00005CEA00007CEA000090EA0000BA
S1131AD09CEA0000ACEA0000C0EA0000CCEA000086
S1131AE0E8EA0000F4EA000008EB00001CEB000048
S1131AF028EB000090B593B000AF78607B687B64FE
S1131B007B6C5B683B647B6C9B680A33FB637B6C1C
S1131B101846FFF7B1FEFB6B386C194608221A4BC6
S1131B2006F036FC7B6C1846FFF7C6FE7B6C184645
S1131B30FFF7A2FE07F1340207F12C03386C1146BB
S1131B401A4606F05FFCB8637B6C1846FFF7B4FED8
S1131B50BB6B002B12D17C6B07F12C0207F10C0339
S1131B60104608211A4601F093FC03460748396CD5
S1131B702246FFF725FE7B6C01221A614FF47A702E
S1131B80FFF7B8FEC3E700BF38EB000044EB0000EA
S1131B9090B595B004AF0023FB6307F12C031846FE
S1131BA0FFF746FE0023BB63B7E0BB6B5A1C654BD3
S1131BB083FB0231D317C91A0B465B000B44D31ABB
S1131BC03B636148B96B3A6BFFF7FAFD07F1180301
S1131BD000221A60043300221A60043300221A60BF
S1131BE0043300221A60043300221A600433FB6AAF
S1131BF0BB61BB6BFB613B6B3B6207F118040523C4
S1131C00009307F118030C3301930023029300237C
S1131C1003934E484E494FF48072234607F0A8FAC6
S1131C200346012B05D04B484B494C4AFFF7C8FDEE
S1131C30FEE73B1D00221A60043300221A600433BD
S1131C4000221A60043300221A60043300221A604E
S1131C500433FB6A7B603B6BBB60BB6BFB603C1D6E
S1131C60052300933B1D0C330193002302930023AF
S1131C70039336483A494FF48072234607F078FAC2
S1131C800346012B05D033483349364AFFF798FD04
S1131C90FEE700237B630DE0BB6A002B03D07B6966
S1131CA0002B00D009E04FF47A70FFF723FE7B6B22
S1131CB001337B637B6B072BEEDDBB6A002B0FD0FC
S1131CC07B69002B0CD02848B96B3A6BFFF778FD81
S1131CD00122BB6B02FA03F31A46FB6B1343FB634B
S1131CE0BB6A002B03D12148B96BFFF769FD7B69FF
S1131CF0002B03D11D48396BFFF762FD7B6A184640
S1131D0007F0F6FA3B69184607F0F2FA4FF4FA7056
S1131D10FFF7F0FDBB6B0133BB63BB6B022B7FF79B
S1131D2044AFFB6B072B04D11148FFF749FD002397
S1131D3004E01048FFF744FD4FF0FF3318464437E2
S1131D40BD4690BD5655555570EB0000F51A000080
S1131D5084EB000090EB000054F50000A8EB0000B9
S1131D60FCEB000008EC00005CEC000074EC0000EC
S1131D709CEC0000B0EC000080B584B000AF78604B
S1131D800B46FB700023FB60FB78FB720D4A7B68FB
S1131D9052F8231007F10B0207F10C030846114611
S1131DA01A46002308F090FBFB68002B07D0064B73
S1131DB04FF080521A60BFF34F8FBFF36F8F10370D
S1131DC0BD4680BD5400002004ED00E080B584B021
S1131DD000AF786039600C4A7B6852F823103B6886
S1131DE007F10F02084611461A46002308F0F8FBD3
S1131DF00346012B01D1FB7B01E04FF0FF33184672
S1131E001037BD4680BD00BF5400002080B588B0A7
S1131E1000AFF860B9607A603B60BB68FB617B68C7
S1131E20013BBA681344BB611CE0F8683968FFF7EA
S1131E30CDFF78617B69B3F1FF3F01D1002319E045
S1131E407B690D2B00D10DE07B690A2B04D1FB6962
S1131E5000221A70BB680DE0FB695A1CFA617A69AA
S1131E60D2B21A70FA69BB699A42DED3FB690022C6
S1131E701A70BB6818462037BD4680BD80B588B04F
S1131E8000AFF860B9607A60BB68FB617B68013BB6
S1131E90BA681344BB612BE0F8684FF0FF31FFF7D9
S1131EA095FF78617B69B3F1FF3F01D1002327E0FF
S1131EB07B690D2B02D07B690A2B09D1FB690022B7
S1131EC01A70F8680221104A00F0E2F8BB6817E0C3
S1131ED07B69DBB2FB7407F11303F86801211A462E
S1131EE000F0D6F8FB695A1CFA617A69D2B21A700A
S1131EF0FA69BB699A42CFD3FB6900221A70BB68A6
S1131F0018462037BD4680BDC8EC000080B584B0BB
S1131F1000AFF860B9607A60F868B9687A684FF021
S1131F20FF33FFF773FF034618461037BD4680BDE5
S1131F3080B588B000AFF860B9607A603B60BB6878
S1131F40FB617B68BA681344BB61F8683968FFF7C2
S1131F503DFF78617B69B3F1FF3F02D14FF0FF335E
S1131F601CE0FB695A1CFA617A69D2B21A70F868EB
S1131F70B96AFFF72BFF78617B69B3F1FF3F00D1AA
S1131F8009E0FB695A1CFA617A69D2B21A70FA69DB
S1131F90BB699A42EBD3FA69BB68D31A1846203757
S1131FA0BD4680BD80B588B000AF7860396006F06A
S1131FB007FD114A07F10C0307CA83E807003B68D1
S1131FC0FB610CE07B689B0007F12002134453F88B
S1131FD0142CBB69DBB21046194606F0D3F8FB6932
S1131FE05A1CFA611B78BB61BB69002BEAD106F06D
S1131FF015FD2037BD4680BDCCEC000080B58AB00D
S113200000AFF860B9607A60204A07F1140307CA88
S113201083E807007B687B62BB687A6A13443B628F
S113202006F0CEFCFB68002B02D1012005F0DCF8A1
S11320301DE07B6A1B780A2B0AD1FB689B0007F121
S11320402802134453F8143C18460D2106F09AF85C
S1132050FB689B0007F12802134453F8141C7B6AA5
S11320605A1C7A621B780846194606F08BF87A6A7D
S11320703B6A9A42DDD3FB68002B02D1002005F0B5
S1132080B3F806F0CBFC2837BD4680BDCCEC00008D
S113209080B58AB000AFF860B9607A60194A07F178
S11320A0140307CA83E807007B687B62BB687A6A0B
S11320B013443B6206F084FCFB68002B02D1012030
S11320C005F092F80EE0FB689B0007F12802134428
S11320D053F8141C7B6A5A1C7A621B78084619460A
S11320E006F050F87A6A3B6A9A42ECD3FB68002BFC
S11320F002D1002005F078F806F090FC2837BD46A0
S113210080BD00BFCCEC000080B594B000AF786017
S11321107B68BB64BB6C1B78742B19D10023FB64F4
S113212012E0BB6C5B681A481946FFF749FBBB6CAD
S11321305B6818461749FFF735FF4FF47A70FFF7CD
S1132140D9FBFB6C0133FB64FB6C092BE9DD1BE061
S1132150BB6C5B6810481946FFF732FBBB6C5A68CE
S113216007F10803104619464022FFF7CFFEBB6C67
S11321705A6807F10803094811461A46FFF720FB7D
S11321806420FFF7B7FBE3E75037BD4680BD00BFCF
S1132190D8EC0000F0EC0000FCEC000010ED0000B6
S11321A090B591B004AF0023BB6283E007F1140340
S11321B000221A60043300221A60043300221A60D9
S11321C0043300221A60043374233B75BB6ABB6179
S11321D007F114040523009307F114030833019352
S11321E000230293002303933D483E494FF40072B9
S11321F0234606F0BDFF0346012B05D03A483B4970
S11322003B4AFFF7DDFAFEE73B1D00221A60043368
S113221000221A60043300221A60043300221A6078
S1132220043372233B71BB6ABB603C1D05230093DE
S11322303B1D083301930023029300230393284892
S11322402C494FF40072234606F092FF0346012BFB
S113225005D025482549284AFFF7B2FAFEE70023AE
S11322607B620AE03B69002B00D009E04FF47A70EE
S1132270FFF740FB7B6A01337B627B6A092BF1DD4C
S11322803B69002B07D0BB68012202FA03F31A460C
S1132290FB6A1343FB62FB69184607F029F8FB68E5
S11322A0184607F025F84FF4FA70FFF723FBBB6AD2
S11322B00133BB62BB6A002B7FF778AFFB6A072B45
S11322C004D10E48FFF77CFA002304E00C48FFF722
S11322D077FA4FF0FF3318463437BD4690BD00BF40
S11322E00921000028ED000090EB000060F50000DB
S11322F030ED000078ED000080ED0000C8ED000036
S1132300DCED000080B400AF204A204BD3F830311C
S113231043F08043C2F830311D4A1D4BDB6B43F45C
S11323208073D3631A4A1A4B1B6C43F4807313648F
S1132330174A174BDB6A43F48073D362154A154B73
S11323405B6943F400435361124A124B5B6943F4E3
S1132350803353610F4A0F4B5B6943F4006353614D
S11323600C4A0C4B9B6843F480339360094A094B35
S11323709B6843F400439360064A064B9B6843F40E
S113238000639360BD465DF8047B704700500640CF
S113239000C00440C0F00F4080B500AF174A174B8F
S11323A09B6843F4006393604FF4FA70FFF7A2FA5A
S11323B0124A124B5B6843F4006353600F4A0F4B9D
S11323C09B6843F4004393604FF49670FFF792FACE
S11323D00A4A0A4B5B6843F40043536040F6B83042
S11323E0FFF788FA054A054B9B6843F40043936062
S11323F04FF49670FFF77EFA80BD00BFC0F00F4027
S113240080B584B000AF62460023BB6000237B60CC
S113241002F1300107F108023B1D08460A4908F0A1
S1132420D9FBF860FB68022B07D1BB68002B04DDE5
S1132430BB68622B01DC002301E04FF0FF33184638
S11324401037BD4680BD00BFF4ED0000F0B5ADF51A
S1132450457D00AF3B4603F588743D46B04B2646A8
S11324600FCB86E80F00A560AE4BE36004F11003C8
S113247020461946FEF7D0FC3B4603F580743D46E2
S1132480A74B26460FCB86E80F00A560A64BE3605A
S113249004F1100320461946FEF7BEFC3B4603F147
S11324A0F0043D469E4B26460FCB86E80F00A56000
S11324B09E4BE36004F1100320461946FEF7ACFC82
S11324C03B4603F1E0043D46954B26460FCB86E898
S11324D00F00A560964BE36004F1100320461946F3
S11324E0FEF79AFC3B4603F1C0043D468C4B26465E
S11324F00FCB86E80F00A5608E4BE36004F1100358
S113250020461946FEF788FC3B4603F1B0043D46DD
S1132510834B26460FCB86E80F00A560864BE3600D
S113252004F1100320461946FEF776FC3B4603F1FE
S1132530D0043D467A4B26460FCB86E80F00A560B3
S11325407E4BE36004F1100320461946FEF764FC59
S11325500323C7F80C33FFF71FFF794A3B469A6001
S113256001223B465A6041F288323B46DA81754A81
S11325703B461A6042F23C323B469A8107F590731F
S11325801A464FF49A73104600211A4608F0E3FBEA
S113259007F590736C4A1A6007F590736B4A9A605A
S11325A007F590731E225A6107F590734FF47A72FF
S11325B09A6107F59073664ADA6107F59073634A86
S11325C05A6207F59073634A9A6307F59073624AF7
S11325D01A6407F59073614A5A653B4603F588739C
S11325E043F001031A4607F590735A6607F5907392
S11325F05B4A1A673B4603F5807343F001031A46AE
S113260007F59073C3F8802007F59073554AC3F813
S11326108C203B46F03343F001031A4607F59073D0
S1132620C3F89C203B46E03343F001031A4607F508
S11326309073C3F8AC2007F59073444AC3F8B020F4
S113264007F59073484AC3F8C4203B46D03343F09F
S113265001031A4607F59073C3F8D42007F5907365
S11326600522C3F8D82007F5907342F21072C3F81C
S1132670DC2007F590733D4AC3F8E02007F590731A
S1132680324AC3F8E82007F590730522C3F8F42012
S113269007F590734FF4FA62C3F8F8203B46C03351
S11326A043F001031A4607F59073C3F800213B4633
S11326B0B03343F001031A4607F59073C3F80C21B5
S11326C007F590730522C3F8102107F5907341F2C2
S11326D08832C3F8142107F59073254AC3F81821EA
S11326E007F59073194AC3F820210023C7F808336B
S11326F0E8E00123C7F8043307F59071D7F80823FD
S11327001346DB009B1A9B000B4410335B68002BC1
S113271000D10523C7F8FC320023C7F80033B8E022
S113272000EE000001240000492900009529000062
S1132730DD290000012A0000392A0000852A000052
S113274010EE000018EE000028EE000030EE00004D
S113275034EE00003CEE000048EE000058EE0000AD
S113276060EE00006CEE000074EE000084EE0000E9
S113277090EE000007F59071D7F808231346DB00AC
S11327809B1A9B000B441B68002B0BD107F590711F
S1132790D7F808231346DB009B1A9B000B445B68A5
S11327A098470346C7F8F8326248D7F8F812FFF79B
S11327B007F80120D7F8F812FFF7F4FB01205E496F
S11327C0FFF7F0FB6420FFF795F807F59071D7F851
S11327D008231346DB009B1A9B000B4418331B6829
S11327E0002B01D14FF47A733A463032012011465E
S11327F08022FFF70BFBC7F8F402D7F8F432002B62
S113280004D04E48D7F8F412FEF7DAFF07F59071BA
S1132810D7F808231346DB009B1A9B000B440833AC
S11328201B68002B1AD0D7F8F432002B24D007F5FC
S11328309071D7F808231346DB009B1A9B000B44C6
S113284008331B68D7F8F402194608F097FA0346D0
S1132850002B11D10023C7F804330DE007F5907164
S1132860D7F808231346DB009B1A9B000B44103354
S11328701B689847C7F80403D7F8F432002B03D039
S1132880D7F80433002BA0D1D7F800330133C7F8AD
S11328900033D7F80433002B06D0D7F80023D7F839
S11328A0FC329A42FFF666AFD7F80433002B00D00F
S11328B00DE04FF4FA70FFF71DF8D7F80833013331
S11328C0C7F80833D7F808330A2B7FF612AFD7F8C6
S11328D008330B2B04D11A48FEF772FF002324E0BF
S11328E007F59071D7F808231346DB009B1A9B0069
S11328F00B441C6807F59071D7F808231346DB00D6
S11329009B1A9B000B4408331B680E48D7F8081326
S11329102246FEF755FFD7F80C335A1EC7F80C238E
S1132920002B00DD17E64FF0FF33184607F5457717
S1132930BD46F0BD9CEE0000C8EC0000A4EE000013
S1132940B0EE0000C4EE000080B584B000AF624673
S11329500023BB6000237B6002F1300107F1080211
S11329603B1D08460A4908F035F9F860FB68022B5C
S113297007D17B68012B02D07B68052B01D1002392
S113298001E04FF0FF3318461037BD4680BD00BF4D
S1132990F0EE000098B500AF644604F13003184629
S11329A008F002FA03460F2B12D104F13003184643
S11329B0094908F012FA03460F2B09D104F1200249
S11329C004F130031046194608F0E5F9002301E04C
S11329D04FF0FF33184698BD00EF000098B500AFE4
S11329E0644604F13002A36810468021034A08F0CB
S11329F0D5F804F13003184698BD00BF0CEF000071
S1132A00B0B584B004AF644604F13002E3891846DB
S1132A10A3891946656823680090019302911046C2
S1132A208021044A2B4608F0B9F804F13003184613
S1132A30BD46B0BD24EF000090B585B000AF64463C
S1132A400023BB6000237B6004F1300107F108021E
S1132A503B1D08460A4908F0BDF8F860FB68022BE4
S1132A6008D1BA6863689A4204D17B68012B01D10A
S1132A70002301E04FF0FF3318461437BD4690BDE4
S1132A8044EF000090B583B000AF644600233B6080
S1132A9004F1300104F110033A460846094908F0EC
S1132AA099F878607B68022B05D13A6863689A428A
S1132AB001D1002301E04FF0FF3318460C37BD4627
S1132AC090BD00BF54EF000090B58DB000AF05F08D
S1132AD077FF07F12003184604F06AF807F128038A
S1132AE0184604F065F897F8282097F820309A42A1
S1132AF0F4D005F093FF97F82830184600F02AFC2C
S1132B0003467B6097F82930184600F023FC0346FF
S1132B10BB6097F82A30184600F01CFC0346FB60A3
S1132B2097F82C30184600F015FC03463B6197F8E3
S1132B302D30184600F00EFC03467B6197F82E30CA
S1132B40184600F007FC03466433BB6197F82B304A
S1132B50184600F0FFFB0346013BFB613B1D184692
S1132B60FEF7BAFC04460020FEF798FD0346E31A7C
S1132B703B603B461846FEF707FC3437BD4690BD24
S1132B8080B58AB000AF0020FEF7FEFB03467B62EF
S1132B9007F1240207F1080310461946FEF794FDD5
S1132BA0BB68184600F0F0FB03463B70FB68184610
S1132BB000F0EAFB03467B703B69184600F0E4FB37
S1132BC00346BB703B6A0133184600F0DDFB034645
S1132BD0FB707B69184600F0D7FB03463B71BB6969
S1132BE0184600F0D1FB03467B71FB690C4A82FB5B
S1132BF003125111DA178A1A642101FB02F29A1A9C
S1132C00104600F0C1FB0346BB7105F0D9FE3B46FC
S1132C10184603F0BFFF05F001FF2837BD4680BD0D
S1132C201F85EB5180B58AB000AF786007F10C03C3
S1132C3000201946FEF748FD07F10C031846FEF77D
S1132C40A7FD034604481946FEF7BAFD4FF47A700F
S1132C50FEF750FEEAE700BF64EF000080B588B0DD
S1132C6004AF03F0B3FF87ED020AB868FDF756FD21
S1132C7002460B461948FEF7A3FD052300933B1DAE
S1132C8001930023029300230393154815494FF43D
S1132C908072002306F06CFA0346012B05D012481B
S1132CA01249134AFEF78CFDFEE70023FB6008E09F
S1132CB0FFF70AFF41F28830FEF71CFEFB68013380
S1132CC0FB60FB68012BF3DD7B68184606F010FB04
S1132CD0002318461037BD4680BD00BF74EF0000C6
S1132CE0252C00008CEF000090EB00006CF5000038
S1132CF098EF000080B58AB000AF00237B6228E023
S1132D0005F05EFE3B1D184603F0DCFF386205F05B
S1132D1085FE1648396AFEF753FD3A1D07F10C0388
S1132D20104608211A4600F0B3FB03461048194622
S1132D30FEF746FD3B6A002B04D10E48FEF740FD2A
S1132D4000230EE04FF47A70FEF7D4FD7B6A013362
S1132D507B627B6A042BD3DD0748FEF731FD4FF01D
S1132D60FF3318462837BD4680BD00BFE0EF0000A2
S1132D70E8EF0000ECEF0000FCEF000080B5ADF5DB
S1132D80047D02AF0023C7F80032D7F80032042BC9
S1132D9035DC3A4664230093022011464FF4007256
S1132DA040F6B833FFF7C4F8C7F80402D7F8043282
S1132DB0002B1EDDD7F80432B3F5007F0ADB12487E
S1132DC0D7F8041240F2FF12FEF7FAFC40F2FF13A8
S1132DD0C7F804323A46D7F80432134400221A7072
S1132DE03B460A48D7F804121A46FEF7E9FC0023CA
S1132DF005E00748FEF7E4FC4FF0FF33FFE7184611
S1132E0007F50277BD4680BD0CF0000044F00000D9
S1132E1068F0000080B5ADF5047D02AF3A1D64236F
S1132E200093002011464FF4007241F28833FFF7FB
S1132E307FF8C7F80402D7F80432002B1EDDD7F858
S1132E400432B3F5007F0ADB1148D7F8041240F2CC
S1132E50FF12FEF7B5FC40F2FF13C7F804323A1D27
S1132E60D7F80432134400221A703B1D0948D7F8DE
S1132E7004121A46FEF7A4FC002304E00648FEF7F9
S1132E809FFC4FF0FF33184607F50277BD4680BD1F
S1132E9084F00000C0F00000E4F0000080B584B0CD
S1132EA000AF0323FB601BE00023BB6011E0B868A4
S1132EB004F0B6F978607B68002B01D00D4B00E07C
S1132EC00D4B0E48B9681A46FEF77AFCBB6801330D
S1132ED0BB60BB68022BEADD4FF4FA70FEF70AFD13
S1132EE0FB685A1EFA60002BDED100231846103707
S1132EF0BD4680BD04F1000008F100000CF10000A3
S1132F0080B584B000AF0323FB6027E01848FEF7C8
S1132F1057FC0023BB6006E0B868012104F0B0F957
S1132F20BB680133BB60BB68052BF5DD4FF47A70D9
S1132F30FEF7E0FC0F48FEF743FC00237B6006E04D
S1132F407868002104F09CF97B6801337B607B681E
S1132F50052BF5DD4FF47A70FEF7CCFCFB685A1EA6
S1132F60FA60002BD2D1002318461037BD4680BD2D
S1132F7028F100003CF1000090B5BBB006AF7860CA
S1132F800B23C7F8C4309348FEF71AFC92489349C0
S1132F90934AFEF715FC9348FEF712FC9248002171
S1132FA0D7F8C420FEF70CFC9048FEF709FC9048C3
S1132FB0FEF706FC0023C7F8CC3010E0D7F8CC307D
S1132FC0591C8C4AD7F8CC3052F833308A481A4608
S1132FD0FEF7F6FBD7F8CC300133C7F8CC30D7F87E
S1132FE0CC20D7F8C4309A42E8DB07F10C0318462A
S1132FF00021802207F0AFFE00BF07F10C03184642
S11330008021FEF705FC0346002BF6D007F10C03E4
S113301018467A49022207F0CEFE0346002B55D10A
S113302007F10C0107F1AC0207F1900303F114045A
S113303007F190031033009307F190030C330193CD
S113304007F190030833029307F1900304330393C9
S113305007F19003049308466949234607F0BAFD33
S1133060C7F8B400D7F8B430072B03D06548FEF78F
S1133070A7FBBAE7D7F8A4306433C7F8A430D7F86D
S1133080A030013BC7F8A03007F190031846FEF7C3
S113309023FA0346C7F88C3007F18C031846FEF771
S11330A073F9FFF76DFD07F18C0207F190031046E9
S11330B01946FEF709FB07F190031846FEF768FB73
S11330C0034651481946FEF77BFB5FE707F10C0303
S11330D018464E4907F052FE0346002B08D007F16C
S11330E00C0318464A4907F049FE0346002B2AD12F
S11330F00023C7F8C83021E03E4AD7F8C83052F858
S1133100333044481946FEF75BFB3A4AD7F8C830D7
S1133110DB0013445B689847C7F8B800D7F8B830A9
S1133120002B01D13C4B00E03C4B3D481946FEF7D7
S113313047FBD7F8C8300133C7F8C830D7F8C830D0
S11331400A2BD9D945E007F10C0207F1B003104668
S113315019460A2207F0C8FD0346C7F8C030D7F85D
S1133160B030002B31D0D7F8B0301B78002B2CD1E5
S1133170D7F8C030002B28DDD7F8C020D7F8C430EA
S11331809A4222DCD7F8C030013BC7F8C030194A54
S1133190D7F8C03052F833301E481946FEF710FBFA
S11331A0144AD7F8C030DB0013445B689847C7F86B
S11331B0BC00D7F8BC30002B01D1174B00E0174BF3
S11331C017481946FEF7FCFA03E01648FEF7F8FA2A
S11331D00BE7DBE650F100006CF100009CF100000D
S11331E0A8F10000B4F10000E8F1000020F20000B2
S11331F03CF2000078F5000058F2000060F2000094
S113320064F2000084F20000A8F20000B8F20000AA
S1133210BCF20000E8EF0000C0F20000C8F20000B9
S1133220D0F20000D8F2000080B584B004AF03F0FF
S1133230E1FD03F071FD03F095FD03F0C5FD03F01E
S1133240EFFD03F019FE04F0A5FE002004F09CF845
S113325000200A21294A04F0F3FF01200B21274A08
S113326004F0EEFF02200C21244A04F0E9FF802040
S11332700121002206F0A4FF0246214B1A6080209F
S11332800121002206F09CFF02461D4B5A6080205B
S11332900121002206F094FF0246194B9A60194856
S11332A04FF4165104F0CAFE17484FF4E13104F00C
S11332B0C5FE16484FF4165104F0C0FEFEF778FA26
S11332C005230093124B01930023029300230393DD
S11332D0104811494FF48062002305F049FF03466A
S11332E0012B05D00D480E490E4AFEF769FAFEE798
S11332F006F0D2F800231846BD4680BD20A1070081
S11333005400002000A0064000B0064000C0064063
S113331060000020792F0000F4F2000090EB000020
S1133320D0F5000000F3000080B582B000AF7860F3
S1133330396003483968FEF743FA0837BD4680BD53
S11333404CF3000080B500AF0148FEF739FA80BDA8
S113335070F3000080B485B000AF0346FB71FB79C5
S1133360FB60FB681B0903F00F0213469B00134428
S11333705B001A46FB6803F00F0313441846143726
S1133380BD465DF8047B704780B483B000AF7860BD
S11333907B68104A82FB03129210DB17D31ADBB24C
S11333A01B01D8B27A680B4B83FB02139910D31715
S11333B0C91A0B469B000B445B00D11ACBB203F035
S11333C00F03DBB20344DBB218460C37BD465DF88D
S11333D0047B70476766666680B483B000AF78602C
S11333E07B68002B01DA302316E07B68002B07DBB7
S11333F07B68092B04DC7B68DBB23033DBB20BE087
S11334007B68092B07DD7B680F2B04DC7B68DBB250
S11334105733DBB200E0662318460C37BD465DF82F
S1133420047B704790B589B000AFF860B9607A60EA
S1133430FB68FB617B68BB6100237B611FE0FB6968
S11334405A1CFA611B78FB74BC69631CBB61FB7C6E
S11334501B09DBB203F00F031846FFF7BDFF034659
S11334602370BC69631CBB61FB7C03F00F0318462B
S1133470FFF7B2FF034623707B6901337B617A69EE
S1133480BB689A42DBDB7B6818462437BD4690BD97
S113349080B586B000AFF860B9607A60F868B96842
S11334A07A68FFF7BFFF7861BB685B001A467B69E7
S11334B0134400221A707B6918461837BD4680BD34
S11334C080B485B000AF78607B68FB60FB681B78D4
S11334D0BB60BB681B02BB60FB6801331B781A46E8
S11334E0BB681344BB60BB681B02BB60FB68023350
S11334F01B781A46BB681344BB60BB681B02BB60E5
S1133500FB6803331B781A46BB681344BB60BB6873
S113351018461437BD465DF8047B704780B485B007
S113352000AF786039603B68FB607B681B0EDAB2E1
S1133530FB681A70FB6801337A68120CD2B21A70F5
S1133540FB6802337A68120AD2B21A70FB6803333A
S11335507A68D2B21A70FB6818461437BD465DF813
S1133560047B704780B487B000AFF860B9607A60BC
S1133570FB687B61BB683B6107E07B695A1C7A612D
S11335803A69511C396112781A707B685A1E7A6044
S1133590002BF2D11C37BD465DF8047B704700BF99
S11335A080B487B000AFF860B9607A60FB687B6173
S11335B005E07B695A1C7A61BA68D2B21A707B68DA
S11335C05A1E7A60002BF4D11C37BD465DF8047B8B
S11335D0704700BF80B489B000AFF860B9607A600A
S11335E0FB68FB61BB68BB6100237B6100BF7B6838
S11335F05A1E7A60002B0DD0FB695A1CFA611B78A5
S11336001946BB695A1CBA611B78CB1A7B617B696A
S1133610002BECD07B6918462437BD465DF8047B4B
S1133620704700BF80B483B000AF7860396002E0B7
S11336307B6801337B607B681B78002B05D07B683B
S11336401B781A463B689A42F2D17B681B7818466D
S11336500C37BD465DF8047B704700BF80B584B06D
S113366000AF78607B681B79002B3AD07B685B6B7A
S1133670FB607B685A787B68383310461946FA68D1
S1133680012302F05FFD0346002B01D0012329E052
S11336907B6800221A717B689A6AFB689A4220D878
S11336A07B689A6A7B681B6A1A44FB689A4218D939
S11336B07B68DB78BB6011E07B681B6AFA681344A3
S11336C0FB607B685A787B68383310461946FA6881
S11336D0012302F037FDBB68013BBB60BB68012BD3
S11336E0EAD8002318461037BD4680BD80B582B0A5
S11336F000AF786039607B685A6B3B689A4219D096
S11337007868FFF7ABFF0346002B01D0012312E0DA
S11337107B685A787B683833104619463A68012327
S113372002F0D2FC0346002B01D0012303E07B68A6
S11337303A685A63002318460837BD4680BD00BF67
S113374080B584B000AF78607868FFF787FF0346E0
S1133750FB73FB7B002B40F092807B681B78032B70
S113376040F081807B685B79002B7CD07B680022F1
S11337705A637B683833184600214FF40072FFF710
S11337800FFF7B68552283F836227B68AA2283F8D0
S113379037227B68522283F838207B68522283F8D0
S11337A039207B68612283F83A207B68412283F8C0
S11337B03B207B68722283F81C227B68722283F888
S11337C01D227B68412283F81E227B68612283F8D4
S11337D01F227B681B69DAB27B6883F820227B682E
S11337E01B699BB21B0A9BB2DAB27B6883F8212265
S11337F07B681B691B0CDAB27B6883F822227B6826
S11338001B691B0EDAB27B6883F823227B68DB68B2
S1133810DAB27B6883F824227B68DB689BB21B0ADC
S11338209BB2DAB27B6883F825227B68DB681B0CC9
S1133830DAB27B6883F826227B68DB681B0EDAB277
S11338407B6883F827227B6859787B6803F1380208
S11338507B685B69084611461A46012302F072FC34
S11338607B6800225A717B685B781846002100222D
S113387002F0A6FC0346002B01D00123FB73FB7B63
S113388018461037BD4680BD80B483B000AF786061
S113389039603B68023B3B607B68DB699A1E3B688E
S11338A09A4201D8002308E07B689B781A463B685B
S11338B003FB02F27B681B6B134418460C37BD46AE
S11338C05DF8047B704700BF80B586B000AF7860B8
S11338D039603B68012B04D97B68DA693B689A42FA
S11338E001D8012398E07B681B78022B48D0032B76
S11338F067D0012B40F08E803B687B617B695B085D
S11339007A6913447B617B689A6A7B695B0A134416
S113391078681946FFF7EAFE0346002B00D079E0E9
S11339207B69C3F308037A68134493F838303B6126
S11339307B6901337B617B689A6A7B695B0A134408
S113394078681946FFF7D2FE0346002B00D061E0E9
S11339507B69C3F308037A68134493F838301B0275
S11339601A463B6913433B613B6803F00103002B98
S113397002D03B691B094FE03B69C3F30B034BE0E7
S11339807B689A6A3B681B0A134478681946FFF7F8
S1133990ADFE0346002B00D03CE03B685B0003F423
S11339A0FF7338337A681344FB60FB6801331B7878
S11339B01B029AB2FB681B789BB213439BB29BB267
S11339C02AE07B689A6A3B68DB09134478681946E5
S11339D0FFF78CFE0346002B00D01BE03B689B00E6
S11339E003F4FE7338337A681344FB60FB680333D3
S11339F01B781A06FB6802331B781B041343FA680E
S1133A000132127812021343FA681278134323F036
S1133A10704301E04FF0FF3318461837BD4680BDB0
S1133A2080B588B000AFF860B9607A60BB68012BDC
S1133A3004D9FB68DA69BB689A4202D80223FB778F
S1133A40E3E0FB681B78022B70D0032B00F092801C
S1133A50012B40F0D580BB68BB61BB695B08BA69C8
S1133A601344BB61FB689A6ABB695B0A1344F86838
S1133A701946FFF73BFE0346FB77FB7F002B00D084
S1133A80C0E0BB69C3F308033833FA6813447B61AD
S1133A90BB6803F00103002B0DD07B691B78DBB2FC
S1133AA003F00F03DAB27B68DBB21B01DBB2134312
S1133AB0DBB2DBB201E07B68DBB27A691370BB690D
S1133AC00133BB61FB6801221A71FB689A6ABB6906
S1133AD05B0A1344F8681946FFF708FE0346FB77B0
S1133AE0FB7F002B00D08DE0BB69C3F308033833A0
S1133AF0FA6813447B61BB6803F00103002B03D015
S1133B007B681B09DBB20EE07B691B78DBB223F018
S1133B100F03DAB27B681B0ADBB203F00F03DBB2DC
S1133B201343DBB2DBB27A6913706BE0FB689A6A09
S1133B30BB681B0A1344F8681946FFF7D7FD034610
S1133B40FB77FB7F002B00D05CE0BB685B0003F4D9
S1133B50FF733833FA6813447B617B68DAB27B699C
S1133B601A707B6901337A6892B2120A92B2D2B2A5
S1133B701A7047E0FB689A6ABB68DB091344F8686B
S1133B801946FFF7B3FD0346FB77FB7F002B00D0FC
S1133B9038E0BB689B0003F4FE733833FA681344BF
S1133BA07B617B6903331B781A067B6902331B78BC
S1133BB01B0413437A6901321278120213437A699F
S1133BC01278134303F070437A6813437B607B6875
S1133BD0DAB27B691A707B6901337A6892B2120A8D
S1133BE092B2D2B21A707B6902337A68120CD2B2E2
S1133BF01A707B6903337A68120ED2B21A7001E02C
S1133C000223FB77FB6801221A71FB7F18462037D9
S1133C10BD4680BD80B584B000AF786039603B6834
S1133C20012B04D97B68DA693B689A4202D80223E3
S1133C30FB7337E00023FB732FE078683968FFF7E4
S1133C4043FEB860BB68002B00D12BE0BB68012B9E
S1133C5002D10223FB7325E0BB68B3F1FF3F02D11D
S1133C600123FB731EE0786839680022FFF7D8FE51
S1133C700346FB73FB7B002B00D013E07B681B69BE
S1133C80B3F1FF3F07D07B681B695A1C7B681A613C
S1133C907B6801225A71BB683B607B68DA693B68C8
S1133CA09A42CAD8FB7B18461037BD4680BD00BF78
S1133CB080B586B000AF786039603B68002B0DD1C9
S1133CC07B68DB683B613B69002B04D07B68DA6965
S1133CD03B699A4215D801233B6112E07868396840
S1133CE0FFF7F2FDB860BB68012B01D8012366E041
S1133CF07B68DA69BB689A4201D9BB685FE03B68BC
S1133D003B613B697B617B6901337B617B68DA6979
S1133D107B699A4207D802237B617A693B699A429C
S1133D2001D900234BE078687969FFF7CDFDB860CD
S1133D30BB68002B0CD100BF786879696FF07042C2
S1133D40FFF76EFE0346FB73FB7B002B1AD10FE0DB
S1133D50BB68B3F1FF3F02D0BB68012B01D1BB6844
S1133D602DE07A693B699A4201D1002327E0CAE732
S1133D703B68002B06D0786839687A69FFF750FEF3
S1133D800346FB73FB7B002B10D17B687A69DA60F6
S1133D907B681B69B3F1FF3F10D07B681B695A1E17
S1133DA07B681A617B6801225A7107E0FB7B012B57
S1133DB002D14FF0FF3300E001237B617B69184699
S1133DC01837BD4680BD00BF80B584B000AF7860B1
S1133DD00B467B807B687A88DA807B689B68FB6013
S1133DE0FB68012B05D07B681B68DA69FB689A4283
S1133DF001D8022365E0FB68002B08D17B681B68AF
S1133E001B78032B03D17B681B68DB6AFB60FB68B0
S1133E10002B14D17B68FA68DA607B681B681B8905
S1133E207A889A4201D302234BE07B681B68DB6AE1
S1133E307A88120992B21A447B681A6136E07B6868
S1133E401B689B789BB21B017B811BE07B681B6812
S1133E501846F968FFF738FDF860FB68B3F1FF3FD7
S1133E6001D101232DE0FB68012B05D97B681B6878
S1133E70DA69FB689A4201D8022322E07A887B89B6
S1133E80D31A7B807A887B899A42DFD27B68FA686E
S1133E90DA607B681B681846F968FFF7F5FC024690
S1133EA07B881B099BB21A447B681A617B681A6879
S1133EB07B8803F00F035B0138331A447B685A6133
S1133EC0002318461037BD4680BD00BF90B585B0AD
S1133ED000AF786039607B68DB8801333B813B89C4
S1133EE0002B03D07B681B69002B01D10423BAE0AB
S1133EF03B8903F00F039BB2002B40F0A6807B6844
S1133F001B695A1C7B681A617B68DB68002B08D12B
S1133F107B681B681B893A899A42C0F09680042307
S1133F20A1E03B891B099BB21A467B681B689B78FE
S1133F30013B1340002B40F088807B681A687B6843
S1133F40DB6810461946FFF7BFFCF860FB68012BDD
S1133F5001D8022387E0FB68B3F1FF3F01D10123BD
S1133F6081E07B681B68DA69FB689A4261D83B6828
S1133F70002B01D1042376E07B681A687B68DB6838
S1133F8010461946FFF794FEF860FB68002B01D138
S1133F90072368E0FB68012B01D1022363E0FB687F
S1133FA0B3F1FF3F01D101235DE07B681B68184634
S1133FB0FFF754FB0346002B01D0012353E07B6839
S1133FC01B683833184600214FF40072FFF7E8FAF3
S1133FD07B681C687B681B681846F968FFF754FC0B
S1133FE0034663630023FB7215E07B681B680122B0
S1133FF01A717B681B681846FFF730FB0346002BD9
S113400001D001232FE07B681B685A6B01325A638D
S1134010FB7A0133FB727B681B689B78FA7A9A42BD
S1134020E3D37B681B687A681268516BFA7A8A1A40
S11340305A637B68FA68DA607B681B681846F9681B
S1134040FFF722FC02467B681A617B683A89DA80B2
S11340507B681A683B8903F00F035B0138331A4409
S11340607B685A61002318461437BD4690BD00BFD3
S113407080B584B000AF7860396078680021FFF7BC
S1134080A3FE0346FB73FB7B002B2DD10023BB60F7
S11340907B681A687B681B6910461946FFF726FB84
S11340A00346FB73FB7B002B00D01DE07B685B6940
S11340B01B78E52B04D07B685B691B78002B08D147
S11340C0BB680133BB60BA683B689A4200D10BE01D
S11340D001E00023BB6078680121FFF7F7FE034687
S11340E0FB73FB7B002BD3D0FB7B042B01D1072379
S11340F0FB73FB7B18461037BD4680BD80B485B08A
S113410000AF786039603B681B331B781B029AB29E
S11341103B681A331B789BB213439BB29BB2FB6080
S11341207B681B78032B0FD13B6815331B781B026C
S11341309AB23B6814331B789BB213439BB29BB275
S11341401B04FA681343FB60FB6818461437BD462A
S11341505DF8047B704700BF80B483B000AF786023
S113416039607B681A333A68D2B21A707B681B33A1
S11341703A6892B2120A92B2D2B21A707B681433BD
S11341803A68120CD2B21A707B6815333A68120C72
S113419092B2120A92B2D2B21A700C37BD465DF8CE
S11341A0047B704780B586B000AF786039603B68A7
S11341B01B7823F040035A1E13465B0013449B00F4
S11341C013447B6100233B610123FB812B4A3B6940
S11341D013441B7801333A6813441B781B0299B2C9
S11341E0264A3B6913441B781A463B6813441B78E0
S11341F09BB20A4613439BB2BB81FB89002B19D0A7
S1134200BB89184602F0A0F80346FB817B69FE2BAC
S11342100ED87B695A1C7A615B007A6813441B8848
S1134220184602F091F803461A46FB89934208D0D7
S113423000231FE0BB894FF6FF72934201D0002395
S113424018E03B6901333B613B690C2BBED93B68E9
S11342501B7803F04003002B0BD0FB89002B08D004
S11342607B695B007A6813441B88002B01D0002310
S113427000E0012318461837BD4680BD58F60000FB
S113428080B489B000AFF860B96011461A460B4695
S1134290FB711346BB71BB680D33BA791A70BB68E6
S11342A00B330F221A70BB680C3300221A70BB68E0
S11342B01A3300221A70BB681B3300221A70FB7970
S11342C05A1E13465B0013449B001344FB610023F6
S11342D0FB820023BB61FB8A4FF6FF72934207D037
S11342E0FB695A1CFA615B00FA6813441B88FB8261
S11342F01C4ABB6913441B781A46BB681344FA8AE8
S1134300D2B21A70174ABB6913441B780133BA68D6
S11343101344FA8A120A92B2D2B21A70FB8A002BA0
S113432002D14FF6FF73FB82BB690133BB61BB69EA
S11343300C2BD0D9FB8A4FF6FF72934206D0FB694F
S11343405B00FA6813441B88002B03D1FB7943F00C
S11343504003FB71BB68FA791A702437BD465DF8D7
S1134360047B704758F6000080B58AB000AFF8604F
S1134370B9607A607B80F868B9680B22FFF7F2F8BD
S11343807B88052B0FD97B889AB25208DB03134331
S11343909AB27B68991C79601B8813447B807B6884
S11343A01B88002BEFD107233B627B88DBB203F031
S11343B00F03DBB2303387F8273097F82730392BD7
S11343C004D997F82730073387F827303B6A5A1EF9
S11343D03A6207F12802134497F8272003F8142CB3
S11343E07B881B097B807B88002BDED107F11402BC
S11343F03B6A13447E221A700023FB6102E0FB69CE
S11344000133FB61FA693B6A9A4205D2FA68FB6997
S113441013441B78202BF2D1FB695A1CFA61FA6809
S11344201A443B6A072B08D83B6A591C396207F1C6
S113443028010B4413F8143C00E020231370FB699B
S1134440072BE9D92837BD4680BD00BF80B485B0AD
S113445000AF78600023FB730B23BB60FB7BDAB2F5
S11344605208DB011343DAB27B68591C79601B786C
S11344701344FB73BB68013BBB60BB68002BEDD1ED
S1134480FB7B18461437BD465DF8047B704700BFBC
S113449080B586B000AF786078680021FFF794FC9F
S11344A00346FB75FB7D002B01D0FB7D94E0FF23CD
S11344B03B753B7D7B757B681A687B681B6910467E
S11344C01946FFF713F90346FB75FB7D002B00D05B
S11344D081E07B685B693B613B691B78BB75BB7D95
S11344E0002B02D10423FB7575E03B690B331B7869
S11344F003F03F03FB73BB7DE52B07D0FB7B03F08D
S11345000803002B05D0FB7B0F2B02D0FF237B7508
S113451057E0FB7B0F2B2FD17B68DB69002B50D03E
S1134520BB7D03F04003002B0CD03B695B7B3B75E8
S1134530BB7D23F04003BB75BB7D7B757B68DA884C
S11345407B681A84BA7D7B7D9A4212D13B690D3314
S11345501B783A7D9A420CD17B68DB69184639692D
S1134560FFF720FE0346002B03D07B7D013BDBB22B
S113457000E0FF237B7524E07B7D002B08D13869A4
S1134580FFF764FF03461A463B7D934200D122E0C5
S1134590FF237B757B684FF6FF721A847B689B69E7
S11345A00B331B7803F00103002B0AD17B689B6952
S11345B0386919460B22FFF70DF80346002B00D18A
S11345C009E078680021FFF781FC0346FB75FB7D59
S11345D0002B3FF470AFFB7D18461837BD4680BDF5
S11345E080B58AB000AF78607B689B69FB617B68AB
S11345F0DB69BB6107F108031846F9690C22FEF771
S1134600B1FFFB7C03F02003002B01D00623E3E081
S1134610FB7C03F00103002B35D0FB690B33002234
S11346201A707B680022DA610123BB8415E007F16C
S11346300802BB8CF8691146BA69FFF795FE7868E1
S1134640FFF726FF034687F8273097F82730002B1B
S113465000D005E0BB8C0133BB84BB8C632BE6D953
S1134660BB8C642B01D10723B6E097F82730042BC9
S113467002D097F82730AFE0FB690B33FA7C1A704D
S11346807B68BA69DA61FB7C03F00203002B16D065
S11346900023BB8402E0BB8C0133BB84BB8C5B0076
S11346A0BA6913441B88002BF5D1BB8C19334C4ACF
S11346B082FB03129210DB17D31A7B8401E00123DF
S11346C07B847B8C78681946FFF7D2FC034687F815
S11346D0273097F82730002B4AD17B8C013B7B8411
S11346E07B8C002B44D07B68DA887B8CD31A9BB2FA
S11346F078681946FFF768FB034687F8273097F870
S11347002730002B34D17B689B691846FFF79EFE47
S11347100346FB757B681A687B681B69104619465B
S1134720FEF7E4FF034687F8273097F82730002B7D
S113473000D01DE07B68D8697B6859697B8CDAB24C
S1134740FB7DFFF79DFD7B681B6801221A71786869
S11347500021FFF7BBFB034687F8273097F8273083
S1134760002B05D17B8C013B7B847B8C002BD1D12E
S113477097F82730002B2DD17B681A687B681B695A
S113478010461946FEF7B2FF034687F8273097F81C
S11347902730002B1ED17B685B691846002120223C
S11347A0FEF7FEFE7B685A697B689B6910461946D2
S11347B00B22FEF7D7FE7B685B690C337A6892693B
S11347C00B32127802F01802D2B21A707B681B689E
S11347D001221A7197F8273018462837BD4680BD44
S11347E04FECC44E80B58AB000AF786039603B6846
S11347F01B683B6102E03B6901333B613B691B7809
S11348002F2BF8D03B691B785C2BF4D07B68DB69D9
S1134810FB6000237B617B69BB61BB695A1CBA6185
S11348203A6913441B78BB84BB8C1F2B2FD9BB8CD8
S11348302F2B2CD0BB8C5C2B29D07B69FE2B01D970
S11348400623C4E1BB8CDBB2BB84BB8C18460121BC
S113485001F040FD0346BB84BB8C002B01D1062331
S1134860B5E1BB8C7F2B09D8BB8CA5481946FEF754
S1134870D9FE0346002B01D00623A8E17B695A1C0C
S11348807A615B00FA681344BA8C1A80C5E73A6906
S1134890BB691A443B681A60BB8C1F2B01D80423E4
S11348A000E0002387F826307B69012B09D17B695E
S11348B003F10043013B5B00FA6813441B882E2B71
S11348C016D07B69022B3AD17B6903F10043013B8B
S11348D05B00FA6813441B882E2B30D17B6903F1EB
S11348E00043023B5B00FA6813441B882E2B26D13D
S11348F07B695B00FA68134400221A8000233B6240
S11349000EE07B689A693B6A1344396A7A6991427A
S113491001D22E2200E020221A703B6A01333B624E
S11349203B6A0A2BEDD97B689A693B6A134497F872
S1134930262042F02002D2B21A70002347E112E08E
S11349407B6903F10043013B5B00FA6813441B8855
S1134950BB84BB8C202B03D0BB8C2E2B00D005E05A
S11349607B69013B7B617B69002BE9D17B69002B6F
S113497001D106232BE17B695B00FA681344002212
S11349801A807B689B69184620210B22FEF708FEDB
S11349900023BB6102E0BB690133BB61BB695B00FF
S11349A0FA6813441B88202BF5D0BB695B00FA68B6
S11349B013441B882E2BEED0BB69002B05D097F82F
S11349C0263043F0030387F8263002E07B69013B7D
S11349D07B617B69002B09D07B6903F10043013BB8
S11349E05B00FA6813441B882E2BEFD100233B6233
S11349F0002387F827300823FB61BB695A1CBA617E
S1134A005B00FA6813441B88BB84BB8C002B00D169
S1134A1095E0BB8C202B06D0BB8C2E2B0AD1BA6917
S1134A207B699A4206D097F8263043F0030387F84F
S1134A30263083E03A6AFB699A4203D2BA697B69F9
S1134A409A4224D1FB690B2B06D197F8263043F008
S1134A50030387F8263072E0BA697B699A4205D06D
S1134A6097F8263043F0030387F82630BA697B6948
S1134A709A4200D963E07B69BB6108233B620B2344
S1134A80FB6197F827309B0087F8273056E0BB8CF2
S1134A907F2B14D9BB8C1846002101F01BFC034664
S1134AA0BB84BB8C002B04D0BB8C803B154AD35CED
S1134AB0BB8497F8263043F0020387F82630BB8C7A
S1134AC0002B07D0BB8C10481946FEF7ABFD0346FC
S1134AD0002B08D05F23BB8497F8263043F00303F0
S1134AE087F8263021E0BB8C402B0FD9BB8C5A2B86
S1134AF00CD897F8273043F0020387F8273014E0E6
S1134B0050F40000D8F500005CF40000BB8C602B6E
S1134B100BD9BB8C7A2B08D897F8273043F00103C4
S1134B2087F82730BB8C203BBB847B689A693B6A3F
S1134B30591C39621344BA8CD2B21A705DE77B688F
S1134B409B691B78E52B03D17B689B6905221A704E
S1134B50FB69082B04D197F827309B0087F827308E
S1134B6097F8273003F00C030C2B05D097F8273067
S1134B7003F00303032B05D197F8263043F0020317
S1134B8087F8263097F8263003F00203002B17D15C
S1134B9097F8273003F00303012B05D197F826304B
S1134BA043F0100387F8263097F8273003F00C03FE
S1134BB0042B05D197F8263043F0080387F82630F4
S1134BC07B689B690B3397F826201A7000231846DC
S1134BD02837BD4680BD00BF80B584B000AF786083
S1134BE039603B681B782F2B03D03B681B785C2B08
S1134BF006D13B6801333B607B6800229A6004E085
S1134C007B681B689A697B689A603B681B781F2BDA
S1134C1009D878680021FFF7D7F80346FB737B684F
S1134C2000225A6153E03B4678681946FFF7DAFDE3
S1134C300346FB73FB7B002B00D048E07868FFF74A
S1134C4027FC0346FB737B689B69DB7ABB73FB7BA6
S1134C50002B1FD0FB7B042B00D038E0BB7B03F080
S1134C602003002B0DD07B6800229A607B68002211
S1134C705A610023FB73BB7B03F00403002B08D1B0
S1134C8024E0BB7B03F00403002B02D10523FB7358
S1134C901DE01CE0BB7B03F00403002B00D016E0F6
S1134CA07B685B69BB60BB680B331B7803F0100344
S1134CB0002B02D10523FB7309E07B681B681846AF
S1134CC0B968FFF71BFA02467B689A60ABE7FB7B87
S1134CD018461037BD4680BD80B582B000AF7860FD
S1134CE039607B685A787B683833104619463A68CD
S1134CF0012301F0E9F90346002B01D0032343E02B
S1134D007B6893F837321B029AB27B6893F8363289
S1134D109BB213439BB21BB21D4A934201D00223A0
S1134D2032E07B6893F871301A067B6893F8703030
S1134D301B0413437A6892F86F20120213437A68B3
S1134D4092F86E20134323F07F43124A934201D119
S1134D50002319E07B6893F88D301A067B6893F87A
S1134D608C301B0413437A6892F88B20120213438D
S1134D707A6892F88A20134323F07F43054A9342CA
S1134D8001D1002300E0012318460837BD4680BD49
S1134D9055AAFFFF4641540080B592B000AFF860B9
S1134DA0B9601346FB71FB681B68FB62FB6A1B78E6
S1134DB0303B3B643B6C092B0BD8FB6A01331B78FB
S1134DC03A2B06D1FB6A0233FB62FB68FA6A1A606B
S1134DD002E0B14B1B783B64BB6800221A603B6C59
S1134DE0012B01D90B2393E2AC4A3B6C52F82330DC
S1134DF0BB62BB6A002B01D10C2389E2BB68BA6A8F
S1134E001A60BB6A1B78002B1AD0BB6A5B78184601
S1134E1001F040F9034687F8273097F8273003F06C
S1134E200103002B0CD1FB79002B07D097F8273016
S1134E3003F00403002B01D00A2369E2002367E294
S1134E40BB6A00221A70964A3B6C12F81320BB6AA4
S1134E505A70BB6A5B78184601F0F2F8034687F88B
S1134E60273097F8273003F00103002B01D00323E8
S1134E704EE2FB79002B07D097F8273003F00403A8
S1134E80002B01D00A2343E20023FB63B86AF96BC9
S1134E90FFF722FF034687F84730814A3B6C5B00EB
S1134EA013445B78002B06D097F84730002B02D1CF
S1134EB0012387F8473097F84730012B37D1784AD8
S1134EC03B6C5B0013445B7887F8463097F84630B8
S1134ED0002B04D097F84630013B87F8463097F80A
S1134EE046301B0103F5DF733833BA6A13443B625F
S1134EF03B6A04331B78002B19D03B6A0B331B78B5
S1134F001A063B6A0A331B781B0413433A6A0932B4
S1134F101278120213433A6A083212781343FB637D
S1134F20B86AF96BFFF7D8FE034687F8473097F85D
S1134F304730032B01D10123EAE197F84730002BD6
S1134F4001D00D23E4E1BB6A93F844301B029AB20A
S1134F50BB6A93F843309BB213439BB21BB2B3F5C5
S1134F60007F01D00D23D3E1BB6A93F84F301B02BD
S1134F709AB2BB6A93F84E309BB213439BB29BB276
S1134F80BB63BB6B002B12D1BB6A93F85F301A066C
S1134F90BB6A93F85E301B041343BA6A92F85D202F
S1134FA012021343BA6A92F85C201343BB63BB6AD0
S1134FB0BA6B1A62BB6A93F84830FB77BB6AFA7F14
S1134FC0DA70FB7F012B04D0FB7F022B01D00D2371
S1134FD09EE1FA7FBB6B02FB03F3BB63BB6A93F8EE
S1134FE04530FB77BB6AFA7F9A70FB7F002B05D0B4
S1134FF0FA7FFB7F013B1340002B01D00D2387E197
S1135000BB6A93F84A301B029AB2BB6A93F84930E0
S11350109BB213439BB29AB2BB6A1A81BB6A1B89C7
S113502003F00F039BB2002B01D00D2370E1BB6A88
S113503093F84C301B029AB2BB6A93F84B309BB284
S113504013439BB29BB27B637B6B002B12D1BB6A75
S113505093F85B301A06BB6A93F85A301B04134367
S1135060BA6A92F8592012021343BA6A92F8582085
S113507013437B63BB6A93F847301B029AB2BB6A43
S113508093F846309BB213439BB2BB83BB8B002B7C
S113509008D10D233CE100BF6E0000206400002015
S11350A00484FF1FBA8BBB6B1344BA6A12891209BA
S11350B092B21344BB617A6BBB699A4201D20D234D
S11350C026E17A6BBB69D31ABA6A9278B3FBF2F31E
S11350D07B617B69002B01D10D2319E1012387F842
S11350E047307B6940F6F572934202D9022387F870
S11350F047307B694FF6F572934202D9032387F850
S113510047307B699A1CBB6ADA61BB6AFA6B5A62E4
S1135110BA8BFB6B1A44BB6A9A62FA6BBB691A447A
S1135120BB6A1A6397F84730032B1ED1BB6A1B89ED
S1135130002B01D00D23EBE0BB6A93F867301A060D
S1135140BB6A93F866301B041343BA6A92F865206D
S113515012021343BA6A92F864201A43BB6ADA62F1
S1135160BB6ADB699B003B631FE0BB6A1B89002BA6
S113517001D10D23CCE0BB6A9A6ABB6B1A44BB6AAB
S1135180DA6297F84730022B03D1BB6ADB695B0014
S11351900AE0BB6ADA6913465B0013445A08BB6A27
S11351A0DB6903F0010313443B63BB6A1A6A3B6B7C
S11351B003F2FF135B0A9A4201D20D23A8E0BB6AF3
S11351C04FF0FF321A61BB6A0022DA6097F8473069
S11351D0032B40F08580BB6A00225A71BB6A93F8A6
S11351E069301B029AB2BB6A93F868309BB21343CE
S11351F09BB29BB21A46FB6B1A44BB6A5A61BB6AE8
S11352005978BB6A03F13802BB6A5B6908461146E8
S11352101A46012300F058FF0346002B60D1BB6AF5
S113522093F837321B029AB2BB6A93F836329BB2B8
S113523013439BB21BB2384A934251D1BB6A93F8D1
S11352403B301A06BB6A93F83A301B041343BA6A1C
S113525092F8392012021343BA6A92F838201343A1
S11352602E4A93423CD1BB6A93F81F321A06BB6A9A
S113527093F81E321B041343BA6A92F81D221202D9
S11352801343BA6A92F81C221343254A934227D146
S1135290BB6A93F827321A06BB6A93F826321B04BA
S11352A01343BA6A92F8252212021343BA6A92F897
S11352B024221A43BB6ADA60BB6A93F823321A06C3
S11352C0BB6A93F822321B041343BA6A92F8212270
S11352D012021343BA6A92F820221A43BB6A1A6173
S11352E0BB6A97F847201A700E4B1B8801339AB299
S11352F00C4B1A800B4B1A88BB6ADA80BB6A0022FB
S11353005A63BB6A00221A71BB6A00229A610023A5
S113531018464837BD4680BD55AAFFFF5252614129
S1135320727241616C00002080B584B000AF786077
S11353307B68FB60FB68002B0FD0FB681B68002BAD
S11353400BD0FB681B681B78002B06D0FB681B681E
S1135350DA88FB689B889A4201D009230DE0FB6838
S11353601B685B78184600F095FE034603F00103C2
S1135370002B01D0032300E0002318461037BD465C
S113538080BD00BF80B485B000AF03463960FB71B7
S1135390FB79012B01D90B2316E0FB790D4A52F856
S11353A02330FB60FB68002B02D0FB6800221A70DC
S11353B03B68002B02D03B6800221A70FB79054938
S11353C03A6841F82320002318461437BD465DF897
S11353D0047B70476400002080B594B000AFF8608F
S11353E0B9601346FB71FB68002B01D1092330E13E
S11353F0FB6800221A60FB7903F01F03FB71FB7941
S113540023F00103DBB207F1080107F11C0208468F
S113541011461A46FFF7C0FC034687F84F3097F849
S11354204F30002B40F0138107F110037B638B4B4B
S1135430BB63BB6807F11C0210461946FFF7CCFB9F
S1135440034687F84F303B6BBB6497F84F30002B13
S113545005D1BB6C002B02D1062387F84F30FB79B2
S113546003F01C03002B00F0908097F84F30002BC2
S113547012D097F84F30042B07D107F11C031846BC
S1135480FFF7AEF8034687F84F30FB7943F0080383
S1135490FB713B6BBB6412E0BB6C0B331B7803F0FA
S11354A01103002B03D0072387F84F3007E0FB7963
S11354B003F00403002B02D0082387F84F3097F839
S11354C04F30002B60D1FB7903F00803002B5BD035
S11354D000F0F8FE7864BB6C0E337A6CD2B21A70AA
S11354E0BB6C0F337A6C92B2120A92B2D2B21A70B7
S11354F0BB6C10337A6C120CD2B21A70BB6C1133C1
S11355007A6C120ED2B21A70BB6C0B3300221A7072
S1135510BB6C1C3300221A70BB6C1D3300221A7042
S1135520BB6C1E3300221A70BB6C1F3300221A702E
S1135530FB691846B96CFEF7E1FD3864B86C0021CC
S1135540FEF70AFEFB6901221A713B6C002B1BD08B
S1135550FB695B6B7B64FB691846396CFEF75AFB8D
S1135560034687F84F3097F84F30002B0CD1FB6976
S11355703A6C013ADA60FB691846796CFEF7B6F8C2
S1135580034687F84F301EE01DE097F84F30002B9C
S113559019D1BB6C0B331B7803F01003002B03D021
S11355A0042387F84F300EE0FB7903F00203002B4D
S11355B009D0BB6C0B331B7803F00103002B02D022
S11355C0072387F84F3097F84F30002B0FD1FB7922
S11355D003F00803002B03D0FB7943F02003FB7195
S11355E0FB695A6BFB68DA61FB68BA6C1A6297F85C
S11355F04F30002B2BD1FB68FA799A71FB6918465E
S1135600B96CFEF77BFD0246FB681A61BB6C1F3365
S11356101B781A06BB6C1E331B781B041343BA6C2D
S11356201D32127812021343BA6C1C3212781A43D8
S1135630FB68DA60FB6800229A60FB6800229A61CA
S1135640FA69FB681A60FB69DA88FB689A8097F844
S11356504F3018465037BD4680BD00BF7000002053
S113566080B58CB000AFF860B9607A603B60BB680D
S11356703B623B6800221A60F868FFF755FE034658
S1135680FB77FB7F002B01D0FB7F3BE1FB689B7921
S1135690DBB25BB2002B01DA022333E1FB689B79B6
S11356A003F00103002B01D107232BE1FB68DA6827
S11356B0FB689B68D31ABB617A68BB699A4201D9BB
S11356C0BB697B6019E1FB689B68C3F30803002B8B
S11356D040F0E580FB689B685B0ADAB2FB681B68F4
S11356E09B78013BDBB21340FB75FB7D002B2CD177
S11356F0FB689B68002B03D1FB681B69FB6208E015
S1135700FB681A68FB685B6910461946FEF7DCF80B
S1135710F862FB6A012B08D8FB689B7963F07F036E
S1135720DAB2FB689A710223ECE0FB6AB3F1FF3F43
S113573008D1FB689B7963F07F03DAB2FB689A7146
S11357400123DFE0FB68FA6A5A61FB681A68FB68A8
S11357505B6910461946FEF797F838613B69002BE0
S113576008D1FB689B7963F07F03DAB2FB689A7116
S11357700223C7E0FB7D3A6913443B617B685B0A03
S11357807B627B6A002B44D0FA7D7B6A1344FA68FF
S113579012689278934206D9FB681B689B781A4674
S11357A0FB7DD31A7B62FB681B685A787B6ADBB289
S11357B01046396A3A6900F087FC0346002B08D08A
S11357C0FB689B7963F07F03DAB2FB689A7101236B
S11357D098E0FB689B7903F04003002B15D0FB682D
S11357E09A693B69D21A7B6A9A420ED2FB689A691B
S11357F03B69D31A5B023A6A1A44FB6824331046A5
S113580019464FF40072FDF7ADFE7B6A5B02BB6282
S11358105FE0FB689A693B699A423DD0FB689B79DB
S113582003F04003002B20D0FB681B685978FB6809
S113583003F12402FB689B69084611461A460123BA
S113584000F080FC0346002B08D0FB689B7963F0D2
S11358507F03DAB2FB689A71012353E0FB689B79FA
S113586023F04003DAB2FB689A71FB681B685A782C
S1135870FB682433104619463A69012300F024FCDE
S11358800346002B08D0FB689B7963F07F03DAB2F0
S1135890FB689A71012335E0FB683A699A61FB68F9
S11358A09B68C3F30803C3F50073BB62BA6A7B68E1
S11358B09A4201D97B68BB62FB689B68C3F3080307
S11358C02033FA6813440433386A1946BA6AFDF778
S11358D049FE3A6ABB6A13443B62FB689A68BB6A36
S11358E01A44FB689A603B681A68BB6A1A443B68AE
S11358F01A607A68BB6AD31A7B607B68002B7FF4DA
S1135900E2AE002318463037BD4680BD80B58AB06C
S113591000AFF860B9607A603B60BB68BB613B680C
S113592000221A60F868FFF7FFFC0346FB75FB7D55
S1135930002B01D0FB7D6AE1FB689B79DBB25BB293
S1135940002B01DA022362E1FB689B7903F0020376
S1135950002B01D107235AE1FB68DA687B681A44FB
S1135960FB68DB689A4201D200237B6039E1FB6863
S11359709B68C3F30803002B40F0FE80FB689B6820
S11359805B0ADAB2FB681B689B78013BDBB213400D
S1135990BB75BB7D002B3DD1FB689B68002B10D1F0
S11359A0FB681B697B627B6A002B13D1FB681B6855
S11359B018460021FEF77CF97862FB687A6A1A615E
S11359C008E0FB681A68FB685B6910461946FEF735
S11359D06FF978627B6A002B00D106E17B6A012BA8
S11359E008D1FB689B7963F07F03DAB2FB689A7194
S11359F002230CE17B6AB3F1FF3F08D1FB689B797A
S1135A0063F07F03DAB2FB689A710123FFE0FB685D
S1135A107A6A5A61FB689B7903F04003002B20D01B
S1135A20FB681B685978FB6803F12402FB689B69D7
S1135A30084611461A46012300F084FB0346002B56
S1135A4008D0FB689B7963F07F03DAB2FB689A7134
S1135A500123DCE0FB689B7923F04003DAB2FB68A6
S1135A609A71FB681A68FB685B6910461946FDF772
S1135A700BFF38613B69002B08D1FB689B7963F00D
S1135A807F03DAB2FB689A710223C0E0BB7D3A69F6
S1135A9013443B617B685B0AFB61FB69002B46D0C6
S1135AA0BA7DFB691344FA6812689278934206D966
S1135AB0FB681B689B781A46BB7DD31AFB61FB68A5
S1135AC01B685A78FB69DBB21046B9693A6900F081
S1135AD039FB0346002B08D0FB689B7963F07F03F6
S1135AE0DAB2FB689A71012391E0FB689A693B6919
S1135AF0D21AFB699A4216D2FB6803F12401FB68AF
S1135B009A693B69D31A5B02BA6913440846194679
S1135B104FF40072FDF726FDFB689B7923F04003E8
S1135B20DAB2FB689A71FB695B023B6245E0FB6891
S1135B309A693B699A421CD0FB689A68FB68DB68E7
S1135B409A4216D2FB681B685A78FB6824331046C5
S1135B5019463A69012300F0B7FA0346002B08D02E
S1135B60FB689B7963F07F03DAB2FB689A710123C7
S1135B704DE0FB683A699A61FB689B68C3F30803CC
S1135B80C3F500733B623A6A7B689A4201D97B6829
S1135B903B62FB689B68C3F308032033FA68134431
S1135BA004331846B9693A6AFDF7DCFCFB689B7953
S1135BB043F04003DAB2FB689A71BA693B6A134452
S1135BC0BB61FB689A683B6A1A44FB689A603B684D
S1135BD01A683B6A1A443B681A607A683B6AD31AAB
S1135BE07B607B68002B7FF4C2AEFB689A68FB681D
S1135BF0DB689A4203D9FB689A68FB68DA60FB6841
S1135C009B7943F02003DAB2FB689A7100231846AB
S1135C102837BD4680BD00BF80B586B000AF786030
S1135C207868FFF781FB0346FB75FB7D002B40F092
S1135C3099807B689B7903F02003002B00F092800D
S1135C407B689B7903F04003002B19D07B681B68A9
S1135C5059787B6803F124027B689B6908461146E6
S1135C601A46012300F06EFA0346002B01D00123EB
S1135C7079E07B689B7923F04003DAB27B689A7100
S1135C807B681A687B68DB6910461946FDF72EFDB0
S1135C900346FB75FB7D002B64D17B681B6A3B616B
S1135CA03B690B333A690B32127842F02002D2B2CC
S1135CB01A703B691C337A68D268D2B21A703B6995
S1135CC01D337A68D26892B2120A92B2D2B21A70B2
S1135CD03B691E337A68D268120CD2B21A703B69DF
S1135CE01F337A68D268120ED2B21A707B681B69AD
S1135CF038691946FEF730FA00F0E4FAF8603B69B7
S1135D001633FA68D2B21A703B691733FA6892B242
S1135D10120A92B2D2B21A703B691833FA68120CA2
S1135D20D2B21A703B691933FA68120ED2B21A70E1
S1135D303B69123300221A703B69133300221A7034
S1135D407B689B7923F02003DAB27B689A717B68C5
S1135D501B6801221A717B681B681846FDF7F0FC6A
S1135D600346FB75FB7D18461837BD4680BD00BF52
S1135D7080B584B000AF78607868FFF74DFF0346C4
S1135D80FB73FB7B002B02D17B6800221A60FB7B38
S1135D9018461037BD4680BD80B588B000AF786026
S1135DA039607868FFF7C0FA0346FB75FB7D002B6A
S1135DB001D0FB7D40E17B689B79DBB25BB2002BB9
S1135DC001DA022338E17B68DA683B689A4208D238
S1135DD07B689B7903F00203002B02D17B68DB68AC
S1135DE03B607B689B683B610023BB617B68BA694D
S1135DF09A603B68002B00F0C1807B681B689B782D
S1135E005B02FB603B69002B1BD03B685A1EFB689E
S1135E10B2FBF3F23B69591EFB68B1FBF3F39A4200
S1135E200FD33B695A1EFB685B421A407B689A6039
S1135E307B689B683A68D31A3B607B685B69FB614B
S1135E402BE07B681B69FB61FB69002B22D17B681B
S1135E501B6818460021FDF72BFFF861FB69012B35
S1135E6008D17B689B7963F07F03DAB27B689A710F
S1135E700223E1E0FB69B3F1FF3F08D17B689B7922
S1135E8063F07F03DAB27B689A710123D4E07B6804
S1135E90FA691A617B68FA695A61FB69002B6DD053
S1135EA045E07B689B7903F00203002B0CD07B68F0
S1135EB01B681846F969FDF7FBFEF861FB69002BC6
S1135EC009D1FB683B6036E07B681B681846F969BA
S1135ED0FDF7FAFCF861FB69B3F1FF3F08D17B6879
S1135EE09B7963F07F03DAB27B689A710123A3E0A4
S1135EF0FB69012B05D97B681B68DA69FB699A4247
S1135F0008D87B689B7963F07F03DAB27B689A7167
S1135F10022391E07B68FA695A617B689A68FB689E
S1135F201A447B689A603A68FB68D31A3B603A6803
S1135F30FB689A42B5D87B689A683B681A447B68C8
S1135F409A603B68C3F30803002B17D07B681B6877
S1135F501846F969FDF798FCB861BB69002B08D1B4
S1135F607B689B7963F07F03DAB27B689A710223C2
S1135F7062E03B685B0ABA691344BB617B689B6857
S1135F80C3F30803002B45D07B689A69BB699A4226
S1135F9040D07B689B7903F04003002B20D07B68C2
S1135FA01B6859787B6803F124027B689B69084667
S1135FB011461A46012300F0C5F80346002B08D009
S1135FC07B689B7963F07F03DAB27B689A71012363
