S00E00006470313030302E7372656381
S1130000007000201104000051040000510400009D
S113001051040000510400005104000000000000DD
S1130020000000000000000000000000E9240000BF
S11300305104000000000000B1250000112600005A
S11300405104000051040000510400005104000058
S11300505104000051040000510400005104000048
S11300605104000051040000510400005104000038
S11300705104000051040000510400005104000028
S11300805104000051040000510400005104000018
S11300905104000051040000510400005104000008
S11300A051040000510400005104000051040000F8
S11300B05104000051040000510400003D230000DD
S11300C0510400005D230000510400007D23000062
S11300D051040000510400005104000051040000C8
S11300E051040000510400005104000051040000B8
S11300F051040000510400005104000051040000A8
S11301005104000051040000510400005104000097
S11303F0510400005104000051040000FFFFFFFFFE
S1130400FFFFFFFFFFFFFFFFFFFFFFFFFE7FFFFF79
S113041072B60B490A4A0A4B094C094D084E084F5B
S1130420B846B946BA46BB46BC4606488546064861
S113043080470648804762B601F058FDFEE7000099
S113044000000000007000209D230000F523000040
S1130450FFF7FEBF81F0004102E000BF83F00043DC
S113046030B54FEA41044FEA430594EA050F08BF4B
S113047090EA020F1FBF54EA000C55EA020C7FEA0F
S1130480645C7FEA655C00F0E2804FEA5454D4EB8C
S11304905555B8BF6D420CDD2C4480EA020281EA56
S11304A0030382EA000083EA010180EA020281EA8E
S11304B00303362D88BF30BD11F0004F4FEA0131E0
S11304C04FF4801C4CEA113102D0404261EB4101EF
S11304D013F0004F4FEA03334CEA133302D0524275
S11304E063EB430394EA050F00F0A780A4F1010431
S11304F0D5F1200E0DDB02FA0EFC22FA05F280186B
S113050041F1000103FA0EF2801843FA05F3594150
S11305100EE0A5F120050EF1200E012A03FA0EFCCF
S113052028BF4CF0020C43FA05F3C01851EBE371F9
S113053001F0004507D54FF0000EDCF1000C7EEB16
S113054000006EEB0101B1F5801F1BD3B1F5001F54
S11305500CD349085FEA30004FEA3C0C04F1010473
S11305604FEA445212F5800F80F09A80BCF1004F9C
S113057008BF5FEA500C50F1000041EB045141EA1E
S1130580050130BD5FEA4C0C404141EB010111F41F
S1130590801FA4F10104E9D191F0000F04BF0146CA
S11305A00020B1FA81F308BF2033A3F10B03B3F1A8
S11305B020020CDA0C3208DD02F1140CC2F10C0238
S11305C001FA0CF021FA02F10CE002F11402D8BF96
S11305D0C2F1200C01FA02F120FA0CFCDCBF41EA62
S11305E00C019040E41AA2BF01EB0451294330BD31
S11305F06FEA04041F3C1CDA0C340EDC04F114040E
S1130600C4F1200220FA04F001FA02F340EA0300E4
S113061021FA04F345EA030130BDC4F10C04C4F12A
S1130620200220FA02F001FA04F340EA030029460A
S113063030BD21FA04F0294630BD94F0000F83F454
S1130640801306BF81F480110134013D4EE77FEA37
S1130650645C18BF7FEA655C29D094EA050F08BF83
S113066090EA020F05D054EA000C04BF1946104664
S113067030BD91EA030F1EBF0021002030BD5FEAA8
S1130680545C05D14000494128BF41F0004130BDD0
S113069014F580043CBF01F5801130BD01F0004524
S11306A045F0FE4141F470014FF0000030BD7FEA97
S11306B0645C1ABF194610467FEA655C1CBF0B4692
S11306C0024650EA013406BF52EA033591EA030FA9
S11306D041F4002130BD00BF90F0000F04BF0021A1
S11306E0704730B54FF4806404F132044FF00005D4
S11306F04FF0000150E700BF90F0000F04BF00214D
S1130700704730B54FF4806404F1320410F00045B2
S113071048BF40424FF000013EE700BF42004FEAAD
S1130720E2014FEA31014FEA02701FBF12F07F432A
S113073093F07F4F81F06051704792F0000F14BF27
S113074093F07F4F704730B54FF4607401F000456B
S113075021F0004120E700BF50EA010208BF7047C2
S113076030B54FF000050AE050EA010208BF7047B7
S113077030B511F0004502D5404261EB41014FF420
S1130780806404F132045FEA915C3FF4DCAE4FF024
S113079003025FEADC0C18BF03325FEADC0C18BF0B
S11307A0033202EBDC02C2F1200300FA03FC20FA5C
S11307B002F001FA03FE40EA0E0021FA02F11444A9
S11307C0C1E600BF70B54FF0FF0C4CF4E06C1CEABE
S11307D011541DBF1CEA135594EA0C0F95EA0C0F33
S11307E000F0DEF82C4481EA030621EA4C5123EAA6
S11307F04C5350EA013518BF52EA033541F48011D5
S113080043F4801338D0A0FB02CE4FF00005E1FB87
S113081002E506F00042E0FB03E54FF00006E1FBD1
S113082003569CF0000F18BF4EF0010EA4F1FF0414
S1130830B6F5007F64F5407404D25FEA4E0E6D4154
S113084046EB060642EAC62141EA55514FEAC52065
S113085040EA5E504FEACE2EB4F1FD0C88BFBCF5E1
S1130860E06F1ED8BEF1004F08BF5FEA500E50F192
S1130870000041EB045170BD06F0004646EA010158
S113088040EA020081EA0301B4EB5C04C2BFD4EB8A
S11308900C0541EA045170BD41F480114FF0000E83
S11308A0013C00F3AB8014F1360FDEBF002001F0F1
S11308B0004170BDC4F10004203C35DA0C341BDC6B
S11308C004F11404C4F1200500FA05F320FA04F03D
S11308D001FA05F240EA020001F0004221F0004171
S11308E010EBD37021FA04F642EB06015EEA430EE4
S11308F008BF20EAD37070BDC4F10C04C4F1200514
S113090000FA04F320FA05F001FA04F240EA0200C6
S113091001F0004110EBD37041F100015EEA430E97
S113092008BF20EAD37070BDC4F1200500FA05F2B7
S11309304EEA020E20FA04F301FA05F243EA020336
S113094021FA04F001F0004121FA04F220EA020045
S113095000EBD3705EEA430E08BF20EAD37070BD8B
S113096094F0000F0FD101F00046400041EB01016B
S113097011F4801F08BF013CF7D041EA060195F04D
S1130980000F18BF704703F00046520043EB030307
S113099013F4801F08BF013DF7D043EA06037047F4
S11309A094EA0C0F0CEA135518BF95EA0C0F0CD0FF
S11309B050EA410618BF52EA4306D1D181EA030145
S11309C001F000414FF0000070BD50EA410606BF3F
S11309D01046194652EA430619D094EA0C0F02D184
S11309E050EA013613D195EA0C0F05D152EA0336C9
S11309F01CBF104619460AD181EA030101F00041E7
S1130A0041F0FE4141F470014FF0000070BD41F02F
S1130A10FE4141F4780170BD70B54FF0FF0C4CF409
S1130A20E06C1CEA11541DBF1CEA135594EA0C0F28
S1130A3095EA0C0F00F0A7F8A4EB050481EA030E75
S1130A4052EA03354FEA013100F088804FEA03335C
S1130A504FF0805545EA131343EA12634FEA02222A
S1130A6045EA111545EA10654FEA00260EF00041EB
S1130A709D4208BF964244F1FD0404F5407402D23D
S1130A805B084FEA3202B61A65EB03055B084FEACE
S1130A9032024FF480104FF4002CB6EB020E75EBCB
S1130AA0030E22BFB61A754640EA0C005B084FEAF3
S1130AB03202B6EB020E75EB030E22BFB61A754670
S1130AC040EA5C005B084FEA3202B6EB020E75EBBB
S1130AD0030E22BFB61A754640EA9C005B084FEA33
S1130AE03202B6EB020E75EB030E22BFB61A754640
S1130AF040EADC0055EA060E18D04FEA051545EA2F
S1130B0016754FEA06164FEAC30343EA52734FEAD7
S1130B10C2025FEA1C1CC0D111F4801F0BD141EA50
S1130B2000014FF000004FF0004CB6E711F4801FB5
S1130B3004BF01430020B4F1FD0C88BFBCF5E06F95
S1130B403FF6AFAEB5EB030C04BFB6EB020C5FEAA5
S1130B50500C50F1000041EB045170BD0EF0004EFA
S1130B604EEA113114EB5C04C2BFD4EB0C0541EA2C
S1130B70045170BD41F480114FF0000E013C90E629
S1130B8045EA060E8DE60CEA135594EA0C0F08BFED
S1130B9095EA0C0F3FF43BAF94EA0C0F0AD150EAEC
S1130BA001347FF434AF95EA0C0F7FF425AF10467F
S1130BB019462CE795EA0C0F06D152EA03353FF4A7
S1130BC0FDAE1046194622E750EA410618BF52EA24
S1130BD043067FF4C5AE50EA41047FF40DAF52EAF8
S1130BE043057FF4EBAE12E74FF0FF3C06E000BF95
S1130BF04FF0010C02E000BF4FF0010C4DF804CDA2
S1130C004FEA410C7FEA6C5C4FEA430C18BF7FEA61
S1130C106C5C1BD001B050EA410C0CBF52EA430C8F
S1130C2091EA030F02BF90EA020F0020704710F10F
S1130C30000F91EA030F58BF994208BF90422CBF9E
S1130C40D8176FEAE37040F0010070474FEA410C97
S1130C507FEA6C5C02D150EA013C07D14FEA430CB5
S1130C607FEA6C5CD6D152EA033CD3D05DF8040B26
S1130C70704700BF8446104662468C461946634658
S1130C8000E000BF01B5FFF7B7FF002848BF10F12F
S1130C90000F01BD4DF808EDFFF7F4FF0CBF012074
S1130CA000205DF808FB00BF4DF808EDFFF7EAFFF0
S1130CB034BF012000205DF808FB00BF4DF808EDAB
S1130CC0FFF7E0FF94BF012000205DF808FB00BFA0
S1130CD04DF808EDFFF7CEFF94BF012000205DF82A
S1130CE008FB00BF4DF808EDFFF7C4FF34BF012037
S1130CF000205DF808FB00BF4FEA410212F5001224
S1130D0015D211D56FF47873B3EB625212D94FEA4E
S1130D10C12343F0004343EA505311F0004F23FA38
S1130D2002F018BF404270474FF00000704750EA8D
S1130D30013005D111F0004008BF6FF0004070474A
S1130D404FF00000704700BF53B94AB9002908BFEB
S1130D5000281CBF4FF0FF314FF0FF3000F03CB8CB
S1130D6082B0EC462DE9005000F01EF8DDF804E0F6
S1130D7002B00CBC704700BF2DE9F041069C15463B
S1130D8006460F46984600F029F805FB01F300FBE0
S1130D900838A5FB0023B21A434467EB0303C4E9F4
S1130DA00023BDE8F08100BF2DE9F041069C904688
S1130DB006460F461D4600F05FF900FB05F5A0FB53
S1130DC0082308FB0155B21A2B4467EB0303C4E95B
S1130DD00023BDE8F08100BF704700BF00292DE962
S1130DE0F043C0F2A6800026002BC0F29C80884607
S1130DF094469E46154604460F46002B3DD18A4232
S1130E0059D9B2FA82F33BB1C3F120029F4020FAD0
S1130E1002F29D4017439C40290C220CB7FBF1FEC3
S1130E20A8B201FB1E7742EA074700FB0EF3BB4260
S1130E300AD97F190EF1FF3280F00581BB4240F2DE
S1130E400281AEF1020E2F44FF1AA4B2B7FBF1F3F4
S1130E5001FB137744EA074700FB03F0B84208D9C3
S1130E607F1903F1FF3280F0F080B84240F2ED8048
S1130E70023B43EA0E43002203E08B420FD90022D7
S1130E801346341C18BF012460424FF0000565EB83
S1130E9045015840514000196941BDE8F083B3FA57
S1130EA083F2002A40F086808B4202D3844500F20C
S1130EB0DB800123E5E712B90123B3FBF2F5B5FAB0
S1130EC085F000283BD1781B4FEA154E1FFA85FCAC
S1130ED00122B0FBFEF8210C0EFB180741EA07477C
S1130EE00CFB08F3BB4207D97F1908F1FF3102D28A
S1130EF0BB4200F2BD808846FF1AA4B2B7FBFEF3E2
S1130F000EFB137744EA07470CFB03FCBC4507D9E7
S1130F107F1903F1FF3102D2BC4500F2A7800B46D2
S1130F2043EA0843ADE752426FEA060663EB430324
S1130F305DE7404261EB41014FF0FF3654E7C0F1F9
S1130F40200224FA02F107FA00F385404FEA154E15
S1130F50D7401943B7FBFEF20B0C0EFB12771FFAB6
S1130F6085FC43EA07430CFB02F79F4204FA00F4B2
S1130F7007D95B1902F1FF3074D29F4272D9023A49
S1130F802B44DF1B89B2B7FBFEF80EFB187341EA52
S1130F9003430CFB08F79F4208D95B1908F1FF31A2
S1130FA05CD29F425AD9A8F102082B44D81B48EAC4
S1130FB002428EE7C2F120032CFA03F10EFA02FE7C
S1130FC020FA03F741EA0E0E08FA02F028FA03F1B8
S1130FD04FEA1E453843B1FBF5F8030C05FB181125
S1130FE01FFA8EF743EA014107FB08F38B420CFA20
S1130FF002FC09D911EB0E0108F1FF3930D28B4202
S11310002ED9A8F102087144C91A80B2B1FBF5F3D4
S113101005FB131140EA014107FB03F78F4208D98E
S113102011EB0E0103F1FF3016D28F4214D9023BAB
S1131030714443EA0843C91BA3FB0C89494509D3FE
S113104005D000221DE79646FEE6134611E79440BC
S11310504445F6D2013BF4E70346EAE78846A5E7B0
S1131060C846D1E702468CE713460AE7023B57E736
S1131070A8F102082F443FE72DE9F041002B44D1A9
S11310808A42154604464FD9B2FA82F70E464FB14A
S1131090C7F12003B94020FA03F602FA07F50E431C
S11310A000FA07F44FEA154E230CB6FBFEF0AFB27C
S11310B00EFB106143EA014307FB00F1994209D991
S11310C05B1900F1FF3280F0EC80994240F2E98034
S11310D002382B445A1AA4B2B2FBFEF30EFB1322BD
S11310E044EA024207FB03F7974208D9521903F175
S11310F0FF3180F0D880974240F2D580023B43EA2A
S1131100004000263146BDE8F0818B4247D8B3FA4F
S113111083F6002E48D18B4202D3824200F2CD8066
S113112001203146BDE8F08112B90125B5FBF2F585
S1131130B5FA85F8B8F1000F77D14A1B4FEA154E7E
S1131140AFB20126B2FBFEF0230C0EFB102143EAE2
S1131150014107FB00F38B4207D9491900F1FF3223
S113116002D28B4200F2BA801046C91AA4B2B1FB73
S1131170FEF30EFB131144EA014407FB03F7A742F5
S113118008D9641903F1FF3280F08F80A74240F23E
S11311908C80023B43EA00403146BDE8F0810026E2
S11311A030463146BDE8F081C6F1200422FA04F548
S11311B0B3402B4320FA04FC01FA06F721FA04F5A4
S11311C04FEA134E4CEA0707B5FBFEF8390C0EFB49
S11311D018551FFA83FC41EA05450CFB08F1A942A6
S11311E002FA06F204D9ED1808F1FF3467D3A046D9
S11311F06D1ABFB2B5FBFEF40EFB145547EA054168
S11312000CFB04FC8C4504D9C91804F1FF355CD3EC
S11312102C4644EA0844CCEB0101A4FB0223994286
S113122048D344D0204600266CE7C8F1200401FAD4
S113123008F305FA08F520FA04F7E1404FEA154EE1
S11312401F43B1FBFEF63A0C0EFB16111FFA85FC88
S113125042EA01430CFB06F29A4200FA08F407D969
S11312605B1906F1FF3137D29A4235D9023E2B443D
S11312709B1ABFB2B3FBFEF00EFB103347EA0343E5
S11312800CFB00F1994207D95B1900F1FF3221D21E
S113129099421FD902382B445A1A40EA0646674637
S11312A050E7104616E70B4629E7134672E7B040AD
S11312B09042B7D2601E002624E7304622E7A942B6
S11312C095D9A8F102081D4492E78C45A0D9023CA7
S11312D019449EE71046DFE70E46C9E70238294461
S11312E043E700BF0FB480B582B000AF07F1140329
S11312F07B600D4B1B68184600214FF0FF32002322
S113130001F0BCFF3869796802F0A2FA064B1B6849
S1131310184600210022002301F044FE0837BD4690
S1131320BDE8804004B070470000002080B584B060
S113133000AF78600023FB600F4BDB69DBB2FB720C
S11313400E4A7B6852F8231007F10B0207F10C03D5
S1131350084611461A46002301F004FFFB68002BDF
S113136007D0074B4FF080521A60BFF34F8FBFF383
S11313706F8F1037BD4680BD00B0064004000020CA
S113138004ED00E080B400AF174A174BD3F83031B6
S113139043F08043C2F83031144A144B5B6943F480
S11313A000435361114A114B5B6943F48033536129
S11313B00F4A0F4BDB6B43F48073D3630C4A0C4B23
S11313C01B6C43F480731364084A084B9B6843F412
S11313D080339360054A054B9B6843F40043936054
S11313E0BD465DF8047B704700500640C0F00F40D6
S11313F000C0044080B582B000AF78603960034813
S11314003968FFF76FFF0837BD4680BD0C570000F1
S113141080B485B000AF0346FB71FB79FB60FB68C9
S11314201B0903F00F0213469B0013445B001A468A
S1131430FB6803F00F03134418461437BD465DF8E8
S1131440047B704780B483B000AF78607B68104A37
S113145082FB03129210DB17D31ADBB21B01D8B242
S11314607A680B4B83FB02139910D317C91A0B46E6
S11314709B000B445B00D11ACBB203F00F03DBB229
S11314800344DBB218460C37BD465DF8047B704755
S11314906766666680B483B000AF78607B68002BB3
S11314A003D07B681B68054A1360044B1B6818460D
S11314B00C37BD465DF8047B704700BF1000002068
S11314C080B489B000AF78607B685B6903F26C73A9
S11314D0FB617B681B690133BB617B68DB687B61F3
S11314E07B689B683B617B685B68FB607B681B680F
S11314F0BB60BB69023BBB61BB69002B05DCBB69FC
S11315000C33BB61FB69013BFB61FB699A08FB6916
S11315101C49A1FB03135B09D21AFB691949A1FBFE
S11315200313DB091A44BB6940F26F1101FB03F397
S11315301549A1FB0313DB081A447B691A44FB69B0
S113154040F26D1101FB03F31A4413465B0013448C
S1131550DB001A463B691A4413461B019B1A9B0085
S11315601A46FB681A4413461B019B1A9B001A4631
S1131570BB681A44054B134418462437BD465DF82E
S1131580047B70471F85EB51ABAAAAAA80BFB18622
S113159080B489B000AFF860B9607A60FB681B68FA
S11315A0BB61BB68BA691344BB61B9695B4BA3FBFC
S11315B001235A0913461B019B1A9B00CA1A7B6814
S11315C01A60BB69554AA2FB03235B09BB61B96975
S11315D0524BA3FB01235A0913461B019B1A9B0080
S11315E0CA1A7B685A60BB694C4AA2FB03235B0995
S11315F0BB61BB694A4AA2FB03231909494BA1FBFE
S11316000323C81A400803449A081346DB009B1AB4
S1131610CA1A131D1A467B689A61BB69424AA2FB27
S11316200323DB0B7B617B699B0046331A467B6893
S11316305A61BB693C4AA2FB0312D20B48F6F8017B
S113164001FB02F29B1ABB6142F23823FB617B6807
S11316505B6903F00303002B02D1FB691833FB61C0
S1131660BA69FB699A421CD200BFB9692C4BA3FB2F
S113167001231A0913465B001344DB00CA1A7B6872
S11316809A60BB69264AA2FB03231B09BB61BB69A1
S11316900133BB617B685B6903F00303002B1BD13F
S11316A009E07B685B695A1C7B685A61BA69FB690B
S11316B0D31ABB61C8E7BB693C2B03D9BB69013BA7
S11316C0BB6109E0BB693C2B06D17B6801221A612E
S11316D07B681D22DA601CE07B6800221A610CE042
S11316E07B681B69114AD35C1A46BB699B1ABB61B0
S11316F07B681B695A1C7B681A617B681B690B4AEF
S1131700D35C1A46BB699A42EAD3BA697B68DA6049
S113171000BF2437BD465DF8047B704789888888FC
S1131720ABAAAAAA2549922475AF3CEFB45700008E
S113173080B483B000AF78607B68002B03D07B68F3
S11317401B68054A1360044B1B6818460C37BD46DA
S11317505DF8047B704700BF0084FF1F80B582B032
S113176000AF786039600020FFF7E2FF0346786835
S113177019463A68FFF70CFF3B6818460837BD4620
S113178080BD00BFF0B58DB006AFF860B9607A6077
S1131790D7F804E0FB689B69002B09DBFB689B69B5
S11317A0062B05DCFB689B691B4A52F8236000E0AA
S11317B01A4EFB681B69002B09DBFB681B690B2BAA
S11317C005DCFB681B69164A52F8233000E0134B12
S11317D0FA68D568FA689468FA685068FA68116813
S11317E0FA68526902F26C720093019502940390B4
S11317F004910592B86871460A4A334602F01AF811
S113180078617B69002B01DA002300E0BB6818468D
S11318101C37BD46F0BD00BFC0570000585700003C
S1131820DC5700000C58000080B485B000AF78602D
S11318307B68FB6008E00523BB6002E0BB68013BFA
S1131840BB60BB68002BF9D1FB685A1EFA60002B01
S1131850F1D11437BD465DF8047B704780B500AF05
S11318600148FFF7E1FF80BD40420F0080B582B020
S113187000AF78607B689B6998477B681B699847D1
S11318800837BD4680BD00BF80B582B000AF786028
S11318907B689B6898477B681B6898477B685B6A92
S11318A01846FFF7C1FF7B68DB6898477B685B6A73
S11318B01846FFF7B9FF7B685B6898477B685B6AEB
S11318C01846FFF7B1FF0837BD4680BD80B582B02A
S11318D000AF78607B68DB6898477B681B68984733
S11318E07B685B6A1846FFF79FFF7B689B68984795
S11318F07B685B6A1846FFF797FF0837BD4680BDD3
S113190080B584B000AF786039600823FB603B6821
S113191003F08003002B03D07B689B68984702E0A8
S11319207B68DB6898477B681B6898477B685B6AC1
S11319301846FFF779FF7B685B6898477B685B6AAA
S11319401846FFF771FF3B685B003B60FB68013B97
S1131950FB60FB68002BDAD11037BD4680BD00BFA9
S113196080B584B000AF78607B68DB6998477B689A
S11319701B6898477B685B6A1846FFF755FF7B68CE
S11319801B6A98470346FB607B685B6A1846FFF74F
S11319904BFF7B685B6898477B685B6A1846FFF778
S11319A043FF7B689B699847FB68002B01D00023A9
S11319B000E0012318461037BD4680BD80B584B0D1
S11319C000AF78600823FB600023BB607B68DB69A1
S11319D098477B681B689847BB685B00BB607B6863
S11319E05B6A1846FFF720FF7B681B6A984703462B
S11319F0002B03D0BB6843F00103BB607B685B6AC8
S1131A001846FFF711FF7B685B6898477B685B6A41
S1131A101846FFF709FFFB68013BFB60FB68002BDE
S1131A20D7D17B689B699847BB6818461037BD4679
S1131A3080BD00BF80B582B000AF78607B68DB6892
S1131A4098477B685B6898477B685B6A1846FFF732
S1131A50EBFE7B681B6898477B685B6A1846FFF758
S1131A60E3FE7B685B6898477B685B6A1846FFF710
S1131A70DBFE0837BD4680BD80B582B000AF78601C
S1131A807B689B6898477B685B6898477B685B6A60
S1131A901846FFF7C9FE7B681B6898477B685B6A3A
S1131AA01846FFF7C1FE7B685B6898477B685B6AF2
S1131AB01846FFF7B9FE0837BD4680BD80B586B02D
S1131AC000AFF860B9607A603B6000237B61F8681E
S1131AD0FFF7DAFEBB6823F00103F8681946FFF745
S1131AE00FFFF868FFF73CFF0346002B1FD0F86890
S1131AF07968FFF705FFF868FFF732FF0346002B0C
S1131B0015D010E07B695A1C7A613A6A13441B7839
S1131B10F8681946FFF7F4FEF868FFF721FF03465B
S1131B20002B00D103E07A693B689A42EAD3F86853
S1131B30FFF7CCFE0A20FFF777FE1837BD4680BDBD
S1131B4090B587B000AFF860B9607A603B6000235D
S1131B507B61F868FFF798FEF868B968FFF7D0FE74
S1131B60F868FFF7FDFE0346002B34D0F868796867
S1131B70FFF7C6FEF868FFF7F3FE0346002B2AD0F2
S1131B80F868FFF781FEBB6843F00103F868194663
S1131B90FFF7B6FEF868FFF7E3FE0346002B1AD002
S1131BA015E07B695A1C7A61BA6AD418F868FFF7A1
S1131BB005FF0346DBB223707A693B689A4203D17E
S1131BC0F868FFF759FF02E0F868FFF733FF7A6916
S1131BD03B689A42E5D3F868FFF778FE1C37BD46A8
S1131BE090BD00BF80B400AF044A044B5B6843F46B
S1131BF000735360BD465DF8047B704740F00F40AE
S1131C0080B400AF044A044B9B6843F400739360B0
S1131C10BD465DF8047B704740F00F4080B400AFD0
S1131C20044A044B5B6843F480635360BD465DF82B
S1131C30047B704740F00F4080B400AF044A044B6B
S1131C409B6843F480639360BD465DF8047B7047F2
S1131C5040F00F4080B400AF044A044B5B6943F486
S1131C6000735361BD465DF8047B704740F00F403C
S1131C7080B400AF044A044B5B6923F400735361DE
S1131C80BD465DF8047B704740F00F4080B400AF60
S1131C90044A044B5B6943F480635361BD465DF8B9
S1131CA0047B704740F00F4080B400AF044A044BFB
S1131CB05B6923F480635361BD465DF8047B704720
S1131CC040F00F4080B400AF044B1B6903F4806301
S1131CD01846BD465DF8047B704700BF40F00F40D6
S1131CE080B584B002AF78607B6800930448D0214B
S1131CF000220723FFF7E2FE0837BD4680BD00BF80
S1131D002C58000080B584B002AF78607B680093E3
S1131D100448D02100220723FFF712FF0837BD46ED
S1131D2080BD00BF2C58000080B586B002AF3B4692
S1131D3000931A48D02111220223FFF701FF3B78B8
S1131D4003F08003BB603B7803F07F037B607B6818
S1131D509B007B607B789B09DBB203F003037A680A
S1131D6013447B607B6807EE903AF8EE677AB5EE31
S1131D70007A67EE877AC7ED037ABB68002B05D03B
S1131D80D7ED037AF1EE677AC7ED037AFB6807EEC5
S1131D90903AB0EE670A1037BD4680BD2C5800005B
S1131DA090B58DB000AF07F120031846FFF7AAFFE6
S1131DB007F128031846FFF7A5FF97F8282097F89E
S1131DC020309A42F4D097F828301846FFF720FBC9
S1131DD003467B6097F829301846FFF719FB034642
S1131DE0BB6097F82A301846FFF712FB0346FB60E6
S1131DF097F82C301846FFF70BFB03463B6197F826
S1131E002D301846FFF704FB03467B6197F82E300C
S1131E101846FFF7FDFA03466433BB6197F82B308D
S1131E201846FFF7F5FA0346013BFB613B1D1846D4
S1131E30FFF746FB04460020FFF77AFC0346E31A4B
S1131E403B603B461846FFF725FB3437BD4690BD43
S1131E5080B58AB000AF0020FFF71CFB03467B620D
S1131E6007F1240207F1080310461946FFF776FC30
S1131E70BB681846FFF7E6FA03463B70FB68184652
S1131E80FFF7E0FA03467B703B691846FFF7DAFA7E
S1131E900346BB703B6A01331846FFF7D3FA034687
S1131EA0FB707B691846FFF7CDFA03463B71BB69AB
S1131EB01846FFF7C7FA03467B71FB690A4A82FB9F
S1131EC003125111DA178A1A642101FB02F29A1AD9
S1131ED01046FFF7B7FA0346BB713B461846FFF7B7
S1131EE0FFFE2837BD4680BD1F85EB5180B5B4B0D9
S1131EF000AF00F0D1F800F061F800F085F800F0D0
S1131F00B5F800F0DFF800F009F92848FFF7AEFC57
S1131F10274B3B6407F1400207F12403104619469E
S1131F20FFF71CFC07F1240207F14403104619468D
S1131F308022FFF727FCC7F8CC00D7F8CC0001F0CB
S1131F403FFC07F140031846FFF7A4FAFFF780FFB0
S1131F50FFF7EAFE87ED320AD7F8C800FEF7DEFB8A
S1131F6002460B46134801F00DFCFFF719FF002051
S1131F70FFF790FA03463B6207F120023B1D10462F
S1131F801946FFF7EBFB3A1D07F1440310461946C7
S1131F908022FFF7F7FBC7F8C400D7F8C40001F0AC
S1131FA00FFC0548FFF75AFCE1E700BF2C5800007E
S1131FB09632E859A857000040420F0080B400AFA1
S1131FC0104B40F20112C3F804210E4B2422C3F833
S1131FD0082100BF0B4BD3F8003103F40003002B9E
S1131FE0F8D1084B0122C3F8002100BF054BD3F8F8
S1131FF0003103F08073002BF8D0BD465DF8047BFC
S1132000704700BF0040064080B400AF00BF164BCD
S1132010D3F8003603F40003002BF8D1124B00224E
S1132020C3F80026104B40F20232C3F804260E4BCC
S11320304FF4C012C3F8082600BF0B4BD3F8003688
S113204003F40003002BF8D1074B0122C3F8002648
S113205000BF054BD3F8003603F08073002BF8D093
S1132060BD465DF8047B70470040064080B400AF75
S1132070074B084A5A6100BF054B1B6903F07063A4
S11320801B0E062BF8D1BD465DF8047B704700BFDC
S1132090004006401200010680B400AF074B084A16
S11320A05A60064B4FF6FF729A60044B4FF4045289
S11320B01A60BD465DF8047B704700BF00200540F0
S11320C020C528D980B400AF134B4FF00042C3F8A9
S11320D08421114B4FF000425A600F4B0F2283F8BA
S11320E01F230D4B0222C3F884210B4B02225A609A
S11320F0094B0F2283F82123074B0822C3F88421BC
S1132100054B08225A60044B0F2283F82323BD4653
S11321105DF8047B704700BF00E100E080B500AFCC
S1132120774B4FF08042C3F83021764A754B5B6998
S113213043F480735361744A734B1B6A43F4807392
S11321401362704A6F4B9B6843F4807393606C4ACC
S11321506B4BD3F82C3143F08043C2F82C316B4ADB
S11321606A4B9B6843F440739360684A674BDB682F
S113217043F44073D360624A614BD3F82C3143F08B
S11321808043C2F82C31614A604B9B6943F440732D
S113219093615E4A5D4BDB6943F44073D361584AF3
S11321A0574BD3F82C3143F08043C2F82C31574AB3
S11321B0564B1B6C43F440731364544A534B5B6C8F
S11321C043F4407353644E4A4D4BD3F8283143F0E3
S11321D08043C2F828314E4A4D4B1B6843F4407388
S11321E013604B4A4A4B5B6843F440735360444A60
S11321F0434BD3F8303143F08043C2F83031424A84
S1132200414B5B6B43F4407353633F4A3E4B9B6BC0
S113221043F4407393633A4A394BD3F8243143F07F
S11322208043C2F824313B4A3A4B1B6A43F400739F
S11322301362384A374B5B6A43F400735362FFF707
S1132240A1F82F4A2E4BD3F8243143F08043C2F82F
S11322502431304A2F4B1B6843F4807313602D4A9A
S11322602C4B5B6843F4807353602B4A2A4B5B69A5
S113227043F001035361284A274B5B6943F002038F
S113228053611F4B4FF08042C3F82821204A204B52
S11322905B6A43F4807353621D4A1D4B9B6A43F48B
S11322A0807393621D4A1D4B5B6943F40073536151
S11322B01A4A1A4B5B6943F480635361174A174BFC
S11322C05B6843F400735360144A144B5B6843F433
S11322D0806353600A4A0A4BD3F8243143F08043A5
S11322E0C2F824310B4A0B4B1B6C43F48073136408
S11322F0094A094B5B6943F48033536180BD00BFD5
S113230000500640C0F00F4000C0044000B004403C
S113231000A004400090044000F00F4040F00F4043
S113232080B400AF044B1B680133034A1360BD46FD
S11323305DF8047B704700BF1400002080B500AF37
S1132340054B5B6903F400135B0D002B02D00020E6
S1132350FEF7ECFF80BD00BF00A0064080B500AFD3
S1132360054B5B6903F400135B0D002B02D00120C5
S1132370FEF7DCFF80BD00BF00B0064080B500AFB3
S1132380054B5B6903F400135B0D002B02D00220A4
S1132390FEF7CCFF80BD00BF00C0064080B400AF94
S11323A04FF0E0224FF0E023D3F8883D43F470036C
S11323B0C2F8883D4FF0E0224FF0E023D3F8343FD9
S11323C023F08043C2F8343F084B094A5A60074B54
S11323D05B68064B42F220121A60044B4FF6FF7200
S11323E09A60BD465DF8047B704700BF002005403D
S11323F020C528D980B48BB000AF304B3B62304B42
S11324007B61304BFB60304BFB61304B3B61304BAD
S1132410BB60304BBB61304B7B60304A304B9A42DF
S113242018D000237B620AE02D4A7B6A52F82320ED
S11324302A497B6A41F823207B6A01337B62294B5A
S11324409B087A6A9A42EFD34FF0E023234AC3F8F9
S1132450082D04E04FF0E023214AC3F8082D09E0D9
S11324607B691A783B6A1A703B6A01333B627B6969
S113247001337B61FA687B699A42F1D109E03B69D7
S11324801A78FB691A70FB690133FB613B690133FC
S11324903B61BA683B699A42F1D105E0BB6900220D
S11324A01A70BB690133BB617A68BB699A42F5D182
S11324B02C37BD465DF8047B704700BF0084FF1FC6
S11324C0005A0000F05A0000F084FF1FF05A000088
S11324D0F05A000000000020040200200080FF1FCA
S11324E00000000000040000064B19680868B0E80A
S11324F0F04F80F30988BFF36F8F4FF0000080F333
S1132500118870472000002080B483B000AF4FF0E2
S1132510070383F31188BFF36F8FBFF34F8F7B6083
S11325200E4B1B6801330D4A13600C4B1B68012BC7
S11325300ED10B4B1B68DBB2002B09D04FF0070305
S113254083F31188BFF36F8FBFF34F8F3B60FEE7B8
S11325500C37BD465DF8047B704700BF0484FF1F41
S113256004ED00E080B483B000AF104B1B68002B77
S113257009D14FF0070383F31188BFF36F8FBFF3C3
S11325804F8F7B60FEE7094B1B68013B074A1360D2
S1132590064B1B68002B04D100233B603B6883F38C
S11325A011880C37BD465DF8047B70470484FF1F17
S11325B0EFF30980BFF36F8F144B1A681EF0100FEE
S11325C008BF20ED108A20E9F04F10604DF8043D5B
S11325D04FF0070080F31188BFF34F8FBFF36F8F65
S11325E000F0B0F94FF0000080F3118808BC1968BE
S11325F00868B0E8F04F1EF0100F08BFB0EC108A66
S113260080F30988BFF36F8F704700BF200000205C
S113261080B584B000AFEFF311824FF0070383F36A
S11326201188BFF36F8FBFF34F8FFA60BB6000F068
S1132630E3F80346002B03D0054B4FF080521A6099
S113264000237B607B6883F311881037BD4680BD0F
S113265004ED00E080B485B000AFEFF30583FB60C8
S1132660FB680F2B13D9154AFB6813441B78FB72C4
S1132670134B1B78FA7A9A4209D24FF0070383F37B
S11326801188BFF36F8FBFF34F8F7B60FEE70D4B55
S11326901B6803F4E0620C4B1B689A4209D94FF0A3
S11326A0070383F31188BFF36F8FBFF34F8F3B6032
S11326B0FEE71437BD465DF8047B7047F0E300E0A5
S11326C0180000200CED00E01C00002080B400AFD6
S11326D0044B1B680133034A1360BD465DF8047B59
S11326E0704700BF1401002080B584B000AF002300
S11326F0FB60394B1B68002B09D14FF0070383F3B0
S11327001188BFF36F8FBFF34F8F7B60FEE7FFF736
S1132710FBFE314B1B68013B2F4A13602E4B1B6899
S1132720002B51D12D4B1B68002B4DD030E02C4B8E
S1132730DB68DB68BB60BB681833184600F0F8FF41
S1132740BB680433184600F0F3FFBB68DB6A1A4623
S1132750012303FA02F2234B1B681343214A13603B
S1132760BB68DA6A13469B0013449B001E4A1A4452
S1132770BB6804331046194600F07EFFBB68DA6A72
S11327801A4B1B68DB6A9A4202D3194B01221A6066
S1132790134B1B68002BCAD1164B1B68002B11D09E
S11327A00CE000F029F80346002B02D0104B012264
S11327B01A60104B1B68013B0E4A13600D4B1B68DB
S11327C0002BEED10A4B1B68FFF7CCFEFB681846C2
S11327D01037BD4680BD00BF14010020F400002066
S11327E0CC000020FC000020240000202000002059
S11327F0080100200401002080B586B000AF00234A
S11328007B61474B1B68002B7DD1464B1B68013312
S1132810444A1360434B1B683B613B69002B1FD147
S1132820414B1B681B68002B09D04FF0070383F34F
S11328301188BFF36F8FBFF34F8F3B60FEE73A4BB6
S11328401B68FB60394B1B68374A1360374AFB68C7
S11328501360374B1B680133354A136000F04EFA9E
S1132860344B1B683A699A4246D32F4B1B681B684A
S1132870002B01D1012300E00023002B04D02D4BB9
S11328804FF0FF321A6037E0274B1B68DB68DB68C8
S1132890BB60BB685B687B603A697B689A4203D221
S11328A0244A7B68136027E0BB680433184600F0B1
S11328B03FFFBB689B6A002B04D0BB6818331846E3
S11328C000F036FFBB68DB6A1A46012303FA02F202
S11328D0194B1B681343184A1360BB68DA6A134622
S11328E09B0013449B00154A1A44BB6804331046EA
S11328F0194600F0C1FEB8E7114B1B68002B09D143
S1132900FFF70EFD06E00E4B1B6801330C4A136003
S1132910FFF706FD7B6918461837BD4680BD00BF2A
S113292014010020F8000020C4000020C80000208A
S11329300C01002010010020FC00002024000020D5
S11329400401002080B586B000AF2D4B1B68002B1E
S113295003D02C4B01221A604FE02A4B00221A604C
S1132960294B1B681A68284B1B681B6B9A4208D8B2
S1132970254B1A68244B1B68343310461946FEF75E
S113298039FD224B1B68FB60FB68B3FA83F3FB72CF
S1132990FB7AC3F11F037B611D497A6913469B00CF
S11329A013449B000B441B68002B09D14FF0070311
S11329B083F31188BFF36F8FBFF34F8F7B60FEE704
S11329C07A6913469B0013449B00114A13443B61EC
S11329D03B695B685A683B695A603B695A683B6962
S11329E008339A4204D13B695B685A683B695A6070
S11329F03B695B68DB68044A13601837BD4680BDD9
S1132A00140100200801002020000020FC00002008
S1132A102400002080B584B000AF786039607B6802
S1132A20002B09D14FF0070383F31188BFF36F8F95
S1132A30BFF34F8FBB60FEE7194B1B6818337868F0
S1132A40194600F03DFE164B1B680433184600F08F
S1132A506FFE0346002B0BD1114B1B68DB6A1A4631
S1132A6001239340DA430F4B1B6813400D4A136054
S1132A703B68B3F1FF3F07D1094B1B6804330A4895
S1132A80194600F0F9FD07E0084B1A683B68134447
S1132A90FB60F86800F0FCF81037BD4680BD00BF4D
S1132AA020000020FC000020E0000020F8000020AE
S1132AB080B586B000AF78607B68DB68DB683B611B
S1132AC03B69002B09D14FF0070383F31188BFF34F
S1132AD06F8FBFF34F8FFB60FEE73B6918331846D7
S1132AE000F026FE1E4B1B68002B1ED13B690433ED
S1132AF0184600F01DFE3B69DB6A1A46012303FAFF
S1132B0002F2184B1B681343164A13603B69DA6AD6
S1132B1013469B0013449B00134A1A443B69043335
S1132B201046194600F0A8FD05E03B6918330F482C
S1132B30194600F0A1FD3B69DA6A0D4B1B68DB6A9C
S1132B409A4205D901237B610A4B01221A6001E0F4
S1132B5000237B617B6918461837BD4680BD00BFE2
S1132B6014010020FC00002024000020CC000020E0
S1132B70200000200801002080B485B000AF7860F8
S1132B807B68002B09D14FF0070383F31188BFF34F
S1132B906F8FBFF34F8FFB60FEE7064B1A687B68AD
S1132BA01A60054B1A687B685A601437BD465DF895
S1132BB0047B70470C010020F800002080B586B02B
S1132BC000AF786039607B68002B09D14FF00703B0
S1132BD083F31188BFF36F8FBFF34F8FFB60FEE762
S1132BE03B68002B09D14FF0070383F31188BFF32F
S1132BF06F8FBFF34F8FBB60FEE7FFF785FC1C4B65
S1132C001B683B613B681B68B3F1FF3F02D10023A3
S1132C107B6126E07B681A68164B1B689A4207D0D2
S1132C207B685A683B699A4202D801237B6118E0A9
S1132C307B685B683A69D21A3B681B689A420ED279
S1132C403B681A687B6859683B69CB1A1A443B682D
S1132C501A607868FFF790FF00237B6101E001238D
S1132C607B61FFF77FFC7B6918461837BD4680BD42
S1132C70F80000200C01002080B400AF034B0122B7
S1132C801A60BD465DF8047B704700BF0801002050
S1132C9080B582B000AF7860134B1B687A685A60C5
S1132CA0124B1B687A689A4209D2114B1A680E4B70
S1132CB01B6804331046194600F002FD10E00D4B6A
S1132CC01A68094B1B6804331046194600F0F8FCD7
S1132CD0094B1B687A689A4202D2074A7B681360E0
S1132CE00837BD4680BD00BF20000020F80000204A
S1132CF0C8000020C40000201001002080B483B06C
S1132D0000AF0E4B1B681B68002B01D1012300E0B0
S1132D100023002B04D00A4B4FF0FF321A6008E066
S1132D20064B1B68DB68DB687B607B685B68044A76
S1132D3013600C37BD465DF8047B7047C400002067
S1132D401001002080B483B000AF0B4B1B68002B34
S1132D5002D101237B6008E0084B1B68002B02D1E1
S1132D6002237B6001E000237B607B6818460C37FC
S1132D70BD465DF8047B704700010020140100206B
S1132D8080B584B000AF78607B68FB607B68002B03
S1132D9064D0FB68DA6A334B1B68DB6A9A425DD203
S1132DA0FB689B69002B06DB2E4B1B68DB6AC3F1B7
S1132DB00802FB689A61FB685969FB68DA6A134682
S1132DC09B0013449B00284A1344994201D10123D8
S1132DD000E00023002B3CD0FB680433184600F0CD
S1132DE0A7FC0346002B15D1FB68DA6A1E4913467B
S1132DF09B0013449B000B441B68002B0AD1FB6807
S1132E00DB6A1A4601239340DA43184B1B681340CC
S1132E10164A1360134B1B68DA6AFB68DA62FB68B4
S1132E20DB6A1A46012303FA02F2104B1B681343B0
S1132E300E4A1360FB68DA6A13469B0013449B0036
S1132E40094A1A44FB6804331046194600F014FC7E
S1132E5004E0044B1B68DA6AFB68DA621037BD468B
S1132E6080BD00BF2000002024000020FC000020C2
S1132E7080B586B000AF78607B683B6100237B61DE
S1132E807B68002B6ED03A4B1B683A699A4209D092
S1132E904FF0070383F31188BFF36F8FBFF34F8F96
S1132EA0FB60FEE73B69DB6D002B09D14FF00703A4
S1132EB083F31188BFF36F8FBFF34F8FBB60FEE7BF
S1132EC03B69DB6D5A1E3B69DA653B69DA6A3B692B
S1132ED09B6D9A4246D03B69DB6D002B42D13B6926
S1132EE00433184600F024FC0346002B15D13B693B
S1132EF0DA6A204913469B0013449B000B441B6869
S1132F00002B0AD13B69DB6A1A4601239340DA435A
S1132F10194B1B681340184A13603B699A6D3B694F
S1132F20DA623B69DB6AC3F108023B699A613B6977
S1132F30DB6A1A46012303FA02F20F4B1B681343A0
S1132F400D4A13603B69DA6A13469B0013449B00E5
S1132F50084A1A443B6904331046194600F08CFBB6
S1132F6001237B617B6918461837BD4680BD00BFCD
S1132F702000002024000020FC00002080B400AFCA
S1132F80074B1B68002B04D0054B1B68DA6D01321C
S1132F90DA65034B1B681846BD465DF8047B704731
S1132FA02000002080B58EB000AFF860B9607A6070
S1132FB03B6000237B63FB683B633B6B002B09D1C5
S1132FC04FF0070383F31188BFF36F8FBFF34F8F65
S1132FD0BB62FEE7BB68002B03D13B6B1B6C002B71
S1132FE001D1012300E00023002B09D14FF0070396
S1132FF083F31188BFF36F8FBFF34F8F7B62FEE7BC
S11330003B68022B03D13B6BDB6B012B01D101230A
S113301000E00023002B09D14FF0070383F311884C
S1133020BFF36F8FBFF34F8F3B62FEE7FFF78AFE5C
S11330300346002B02D17B68002B01D1012300E061
S11330400023002B09D14FF0070383F31188BFF34A
S11330506F8FBFF34F8FFB61FEE7FFF755FA3B6BB2
S11330609A6B3B6BDB6B9A4202D33B68022B12D107
S1133070386BB9683A6800F0F1F9F8623B6B5B6A47
S1133080002B04D03B6B24331846FFF711FDFFF7E8
S113309069FA01235FE07B68002B03D1FFF762FA32
S11330A0002358E07B6B002B06D107F1140318466C
S11330B0FFF762FD01237B63FFF754FAFFF706FB7A
S11330C0FFF722FA3B6B5B6CB3F1FF3F02D13B6B22
S11330D000225A643B6B9B6CB3F1FF3F02D13B6B04
S11330E000229A64FFF73EFA07F114023B1D1046D2
S11330F01946FFF763FD0346002B24D1386B00F01B
S1133100A3FA0346002B18D03B6B03F110027B6833
S113311010461946FFF77EFC386B00F033FAFFF7D0
S1133120E3FA0346002B15D10D4B4FF080521A6081
S1133130BFF34F8FBFF36F8F0CE0386B00F022FAB0
S1133140FFF7D2FA89E7386B00F01CFAFFF7CCFAE4
S1133150002300E081E718463837BD4680BD00BF34
S113316004ED00E080B58EB000AFF860B9607A601D
S11331703B60FB683B633B6B002B09D14FF00703BB
S113318083F31188BFF36F8FBFF34F8FBB62FEE7EA
S1133190BB68002B03D13B6B1B6C002B01D10123BB
S11331A000E00023002B09D14FF0070383F31188BB
S11331B0BFF36F8FBFF34F8F7B62FEE73B68022B39
S11331C003D13B6BDB6B012B01D1012300E0002316
S11331D0002B09D14FF0070383F31188BFF36F8FDE
S11331E0BFF34F8F3B62FEE7FFF734FAEFF3118230
S11331F04FF0070383F31188BFF36F8FBFF34F8F33
S1133200FA61BB61FB69FB623B6B9A6B3B6BDB6BEB
S11332109A4202D33B68022B24D1386BB9683A68CE
S113322000F01CF93B6B9B6CB3F1FF3F12D13B6B7D
S11332305B6A002B13D03B6B24331846FFF738FC32
S11332400346002B0BD07B68002B08D07B6801223F
S11332501A6004E03B6B9B6C5A1C3B6B9A64012321
S11332607B6301E000237B63FB6A7B617B6983F3FF
S113327011887B6B18463837BD4680BD80B58CB04D
S113328000AFF860B9607A603B600023FB62FB68C2
S1133290BB62BB6A002B09D14FF0070383F311888B
S11332A0BFF36F8FBFF34F8F3B62FEE7BB68002B0A
S11332B003D1BB6A1B6C002B01D1012300E0002366
S11332C0002B09D14FF0070383F31188BFF36F8FED
S11332D0BFF34F8FFB61FEE7FFF734FD0346002B7E
S11332E002D17B68002B01D1012300E00023002BD5
S11332F009D14FF0070383F31188BFF36F8FBFF336
S11333004F8FBB61FEE7FFF7FFF8BB6A9B6B002B97
S113331031D0BB6ADB687B62B86AB96800F00CF92B
S11333203B68002B17D1BB6A9B6B5A1EBB6A9A631E
S1133330BB6A1B68002B04D1FFF720FE0246BB6A60
S11333405A60BB6A1B69002B11D0BB6A1033184644
S1133350FFF7AEFB0BE0BB6A7A6ADA60BB6A5B6AB2
S1133360002B04D0BB6A24331846FFF7A1FBFFF7F8
S1133370F9F801236CE07B68002B03D1FFF7F2F826
S1133380002365E0FB6A002B06D107F11003184601
S1133390FFF7F2FB0123FB62FFF7E4F8FFF796F96E
S11333A0FFF7B2F8BB6A5B6CB3F1FF3F02D1BB6AB3
S11333B000225A64BB6A9B6CB3F1FF3F02D1BB6A23
S11333C000229A64FFF7CEF807F110023B1D104665
S11333D01946FFF7F3FB0346002B31D1B86A00F01E
S11333E01DF90346002B25D0BB6A1B68002B08D1AE
S11333F0FFF78AF8BB6A5B681846FFF7C1FCFFF762
S1133400B1F8BB6A03F124027B6810461946FFF742
S113341001FBB86A00F0B6F8FFF766F90346002B23
S113342015D10D4B4FF080521A60BFF34F8FBFF38D
S11334306F8F0CE0B86A00F0A5F8FFF755F962E762
S1133440B86A00F09FF8FFF74FF9002300E05AE74D
S113345018463037BD4680BD04ED00E080B586B027
S113346000AFF860B9607A6000237B61FB681B6C75
S1133470002B0DD1FB681B68002B52D1FB685B68E5
S11334801846FFF7F5FC7861FB6800225A6048E0B3
S11334907B68002B1AD1FB689A68FB681B6C10468A
S11334A0B9681A4600F03AFAFB689A68FB681B6C24
S11334B01A44FB689A60FB689A68FB685B689A42E6
S11334C02FD3FB681A68FB689A602AE0FB68DA6805
S11334D0FB681B6C1046B9681A4600F01FFAFB68BB
S11334E0DA68FB681B6C5B421A44FB68DA60FB68B1
S11334F0DA68FB681B689A4207D2FB685A68FB6863
S11335001B6C5B421A44FB68DA607B68022B08D1AF
S1133510FB689B6B002B04D0FB689B6B5A1EFB68FB
S11335209A63FB689B6B5A1CFB689A637B69184619
S11335301837BD4680BD00BF80B582B000AF78604B
S113354039607B681B6C002B19D07B68DA687B6858
S11335501B6C1A447B68DA607B68DA687B685B689A
S11335609A4203D37B681A687B68DA607B68DA68FE
S11335707B681B6C386811461A4600F0CFF908378F
S1133580BD4680BD80B582B000AF7860FEF7BCFF59
S113359014E07B685B6A002B0AD07B6824331846EE
S11335A0FFF786FA0346002B03D0FFF765FB00E024
S11335B008E07B689B6C5A1E7B689A647B689B6CF2
S11335C0002BE6DC7B684FF0FF329A64FEF7CAFFFB
S11335D0FEF79AFF14E07B681B69002B0FD07B6811
S11335E010331846FFF764FA0346002B01D0FFF7A7
S11335F043FB7B685B6C5A1E7B685A6400E003E003
S11336007B685B6C002BE6DC7B684FF0FF325A640E
S1133610FEF7A8FF0837BD4680BD00BF80B584B063
S113362000AF7860FEF770FF7B689B6B002B02D1C4
S11336300123FB6001E00023FB60FEF793FFFB68BE
S113364018461037BD4680BD80B584B000AF7860A1
S1133650FEF75AFF7B689A6B7B68DB6B9A4202D158
S11336600123FB6001E00023FB60FEF77BFFFB68A6
S113367018461037BD4680BD80B485B000AF786071
S113368039607B685B68FB603B68FA685A60FB687A
S11336909A683B689A60FB689B683A685A60FB6862
S11336A03A689A603B687A681A617B681B685A1C9E
S11336B07B681A601437BD465DF8047B704700BF11
S11336C080B485B000AF786039603B681B68BB602C
S11336D0BB68B3F1FF3F03D17B681B69FB600CE05F
S11336E07B680833FB6002E0FB685B68FB60FB6897
S11336F05B681A68BB689A42F6D9FB685A683B68EB
S11337005A603B685B683A689A603B68FA689A60FA
S1133710FB683A685A603B687A681A617B681B6880
S11337205A1C7B681A601437BD465DF8047B7047E9
S113373080B485B000AF78607B681B69FB607B68F0
S11337405B687A6892689A607B689B687A6852685A
S11337505A60FB685A687B689A4203D17B689A680E
S1133760FB685A607B6800221A61FB681B685A1E5A
S1133770FB681A60FB681B6818461437BD465DF881
S1133780047B70470FB41FB50B484FF0FF3100F0B6
S1133790EDF8002809DA002207AB00920649069AE0
S11337A00648039300F0EEFB01E04FF0FF3005B054
S11337B05DF804EB04B070475484FF1FD54A000041
S11337C038B5054615F8014B18484FF0FF31BCB128
S11337D000F0E6F8002802DB4FF0FF3038BD144952
S11337E08B6F5A1E8A6723B14B6F5A1C4A671C7031
S11337F0E8E720464C3101F07AF90130E2D1EBE7F9
S113380000F0CEF80028E7DA09498B6F5A1E8A6760
S11338102BB14B6F0A205A1C4A67187038BD0A2016
S11338204C31BDE8384001F062B900BF5484FF1F39
S11338300884FF1F0CB407B504AB53F8042B0193A1
S113384000F036F803B05DF804EB02B070470000F6
S113385037B505460C460A484FF0FF3100F086F8AC
S1133860002808DA00230093054906482A4623461F
S113387000F088FB01E04FF0FF3003B030BD00BF23
S11338805484FF1FD54A000038B5836805461446A2
S11338904268E0189042286888BFD41A2246184427
S11338A000F03CF8AB681C44AC60012038BD00005B
S11338B070B586B0002506460C4603900491009529
S11338C00748059503A900F05DFB3EB1A04201D273
S11338D0355403E014B1344404F8015C06B070BDFF
S11338E0893800000B4C08B5054601F0CFFB01F008
S11338F0B1FB236813B1984700232360064C236867
S113390013B19847002323602846BDE8084001F01E
S1133910BBBB00BF180100201C01002010B5431ED2
S11339200A44914204D011F8014B03F8014FF8E71F
S113393010BDC9B2034613F8012B1AB18A4204D050
S11339401846F7E7002918BF002070470139421EC6
S113395011F8013F02F8013F002BF9D17047431ED3
S113396013F8012F002AFBD1181A7047B8B1C37994
S113397093B1037A012B0CD003D3023B5842584134
S11339807047002901DD022301E007D001230372FF
S113399004E04FF0FF307047184670470846704700
S11339A0FFF7E4BF2DE9F74F002401929DF8308022
S11339B09DF83450DDF83CE001F8014C84464A1E81
S11339C0C0B9BEF1000F3BD1B8F1000F01D06F2D8B
S11339D031D0642D02D0692D40F09F80022B01D19B
S11339E0202303E0012B40F098802B2301F8023CB4
S11339F0881EA3E0692D11D005D8582D00F09A80B7
S1133A00642D0BD092E0752D11D0782D00F09280AA
S1133A106F2D40F08B802346264615E0002880F267
S1133A208580B0F1004F09D04042844606E0234629
S1133A3026460A2409E07346764605E00126F8E79F
S1133A406F2D6CD10346064608244FF0000ABCFBD8
S1133A50F4FB04FB1BC7092FDC4601D8303703E015
S1133A60782D0CBF57373737FFB202F8017D0AF1C2
S1133A700109BBF1000F01D0CA46E8E7082C9446BF
S1133A800BD1B8F1000F08D0302F1FBF302702F13F
S1133A90FF3C02F8017C0AF10209019A022A0FD1C3
S1133AA006B913B10E9A013A0E92102C06D1B8F150
S1133AB0000F03D00E9AA2F1020E01E0DDF838E007
S1133AC0CCEB01017144B1F5FF7F24DA6146C1EB0F
S1133AD009026244724503DA302201F8012DF6E747
S1133AE0102C0A4609D1B8F1000F06D028B13020B5
S1133AF001F8015C8A1E01F8020C0EB12D2306E0C8
S1133B00012B01D12B2302E0022B06D1202302F842
S1133B10013C501E12E0002010E010460EE001D8D7
S1133B20582D02E0752D03D0782D03D0002680E7B0
S1133B300346FBE700231E46102486E703B0BDE8D6
S1133B40F08F2DE9F04F89B0144606939DF84C3060
S1133B50049302460B46CDE90223002350EA0102F6
S1133B60CDE900019DF848509DF85070DDF858C02B
S1133B7004F8013C04F1FF3B17D1BCF1000F46D11E
S1133B80049B0BB16F2F3CD0642F02D0692F40F0FF
S1133B90C980022D01D1202303E0012D40F0C28011
S1133BA02B2304F8023CA01ECFE0692F0FD005D8C8
S1133BB0582F00F0C680642F09D0BFE0752F1CD0A9
S1133BC0782F00F0BE806F2F40F0B88022E0DDE94E
S1133BD00023002A73F1000380F2B080DDE90023A2
S1133BE0B3F1004F08BF002A0ED0524263EB4303E7
S1133BF0CDE90023CDE9022306E01D469A460A26B4
S1133C000BE06546E24607E04FF0010AF7E76F2F45
S1133C1040F08C801D469A46082600230593DDE972
S1133C20020132460023CDF81CC0FDF78DF8DDE912
S1133C3002019046994632460023FDF785F8B9F112
S1133C40000F08BFB8F10A0FCDE90201DDF81CC06E
S1133C5002D208F1300805E0782F0CBF08F15708AC
S1133C6008F13708DDE90201059B5FFA88F85A1C60
S1133C7050EA01030BF8018D01D00592CFE7082E1D
S1133C805B460CD1049951B1B8F1300F1FBF3022FB
S1133C9003F8012C059A0BF1FF3B18BF0232069B77
S1133CA0022B10D1BAF1000F00D115B1159B013BC5
S1133CB01593102E05D1049B1BB1159BA3F1020C87
S1133CC001E0DDF854C0CBEB04046444B4F5FF7F99
S1133CD02ADA5846131A5B44634503DA302300F8A2
S1133CE0013DF7E7102E03460CD1049A52B1DDE9E9
S1133CF0008958EA09021FBF302200F8017C02380B
S1133D0003F8022CBAF1000F01D02D2302E0012D9B
S1133D1004D12B2300F8013C013816E0022D14D104
S1133D202023F7E7584610E000200EE001D8582F72
S1133D3003E0752F3FF461AF782F02D04FF0000AF3
S1133D405DE70025AA46102667E709B0BDE8F08FB5
S1133D502DE9F04F93B0CDE90401DDF87C809DF8A6
S1133D6070A09DF87850B8F5FF7F934699460646B3
S1133D700F464FF0000480F2F18020230DEB030185
S1133D8007A847EC106BADF81E308DF81C4000F00E
S1133D90A7FF9DF82530492B2FD04E2B42D0302B36
S1133DA09DF810309DF817008DF817309DF81630E7
S1133DB09DF811208DF811304FEA43439DF81510FA
S1133DC08DF810008DF8162043EA40609DF812200B
S1133DD008BFADF822408DF812108DF815209DF81B
S1133DE014109DF813208DF81420400D8DF8131035
S1133DF04FF0000329D1184629E09DF920304BB13A
S1133E00412DABF105020CBF564957491046FFF747
S1133E109DFDA4E0412DABF1040210460CBF5349B3
S1133E205349F4E79DF920303BB1412DABF1050234
S1133E3010460CBF4F495049E9E7412DABF104024C
S1133E4010460CBF4D494E49E1E7A0F2FF30642211
S1133E500192012200930293039213465946FFF7FD
S1133E60A1FD612D0CBF702350234FEA8801421E2F
S1133E7000F8013C0B314446002C38DD3F292AD898
S1133E8012AB081F484003EBD10C30F0070018BFF9
S1133E901CF8390C1CF8383C6FEA010E0EF0070EC2
S1133EA018BF000243FA0EF3DBB21EBF20FA0EF075
S1133EB00343DBB203F00F03092B04D83033BAF108
S1133EC0000F0CD104E0612D0CBF5733373306E0EB
S1133ED0302B04D108E0BAF1000F05D0302302F8EA
S1133EE0013C4FF0010A013A0439013CC4E714468D
S1133EF0B8F1000F02D19DF874301BB12E23541E6B
S1133F0002F8013C0023304639460022FCF7C2FE89
S1133F10631E08B9312200E03022612D04F8012C1F
S1133F2003F1FF300CBF7822582203F8012C302310
S1133F3000F8013C9DF920300BB12D230AE0B9F1C2
S1133F40010F01D12B2305E0B9F1020F01D0013893
S1133F5005E0202300F8023C023800E0204613B0BC
S1133F60BDE8F08F5458000059580000555800001F
S1133F705A5800005E580000635800005F58000063
S1133F80645800002DE9F04FADF51B7D9A462023BF
S1133F900A928DF83B3000220023CDE90C230890CF
S1133FA009914FF000090A9B1B78002B00F0CF8089
S1133FB00A982521FFF7BDFC0B9058B90A98FFF722
S1133FC0CEFC024609EB0004002800F0C2800998E8
S1133FD00A99B8E00B9B0A9A9A1A91445AB90B9A17
S1133FE00B9B5278252A03F101030BD00021079182
S1133FF08846012711E009980A99089B98470028E8
S1134000EDD16EE00B9B02330A9300230127069344
S113401074E04FF0010813F8012F2B2AF9D006DCC5
S1134020202A0DD0232A6ED101220792F3E72D2AEC
S113403000F09180302A66D1002F18BF0227EAE7EA
S1134040B8F1010F18BF4FF00208E4E7DAF80050A6
S11340508A786FEA050B4FEADB7B0AF1040A023126
S11340606A2A00F0458400F390804C2A00F03E84D4
S1134070682A00F094800023652AD4B200F0E4801A
S113408040F39D806F2A40F0AC80092B00F0FD8046
S1134090BBF1000F00F0F780022F08BF01274A1C74
S11340A0642C0A9200F00E811FD96E2C00F08983D3
S11340B040F2FB80732C40F0FD80052B0AF10406CE
S11340C040F05583A49BDAF80010002B00F04083E5
S11340D0002940F04183002001464FF0FF3200F0F8
S11340E03BFC4FF0FF3000F021BC472C00F2D580A0
S11340F0452C80F04381252C40F0CB8025248DF87D
S11341006840564687E32A2A194640F0E083DAF8E5
S113411000200692002AB8BF52420AF10400B8BF38
S113412006925A78B8BF0027591C8246069BB3F5FD
S1134130FF7F12DB0B98FFF712FC024609EB000429
S113414038B109980B99089B984710B9C9E74846B4
S1134150ECE32046EAE300275DE72E2A12D14A78F1
S11341602A2A3FF473AF01310025A2F13003092B51
S113417005D80A2202FB053511F8012FF5E74FF0A7
S1134180010B6DE70025AB466AE7742A05D07A2A4D
S113419013D06C2A7FF46FAF08E00823ADE34B78AB
S11341A0682B40F0A78301310123A6E34B786C2BE5
S11341B040F0A283013104239FE307239DE3472AB0
S11341C03FD005DC452A3FD028DC412A29D05CE0D9
S11341D0612A26D001DC582A1DE0632A44D0642ACF
S11341E019E009DC672A2CD018DB692A3FF44DAFAB
S11341F06E2A4AD1092B43E0732A3BD007DC702A8C
S113420043D10122082578240323079247E7752A1E
S11342103FF43BAF782A3FF438AF36E0022B16D197
S113422033E0BBF1000F08BF0D25022B2DD0062B68
S11342302BD0072B29D0082B27D0042B25D0012BDA
S11342401EE0002D08BF01255A1E012A1DD9062B88
S11342501BD0072B19D0082B17D0042B15D0BBF17A
S1134260000F08BF06251AE7032B10D0BBF1000F7F
S11342700BD101E0032B0AD0002B18BFFF240EE75B
S113428008BFFF240BE7012509E7FF2407E70523FF
S113429005E7412C00F040824CE7612C00F03C82A1
S11342A0632C00F0AA82582C0AE0672C66D9692C8A
S11342B008D03FE701D86F2C02E0752C18D0782C79
S11342C016D037E7032B15D0042B1AD0062B18D0A1
S11342D0072B0AF1040623D0082BDAF8000041D09A
S11342E0022B01D100B23DE0012B28D140B239E0CC
S11342F0032B02D10AF1040612E0042B01D0062B91
S11343000AD10AF1070A2AF0070ADAE900230AF1B6
S11343100806CDE90C2316E0072B0AF1040602D1A6
S1134320DAF800001EE0082BDAF800001AD0022B9D
S113433001D180B216E0012B01D1C0B212E0042BEE
S113434001D0062B0ED1079B0193069B0393CDF856
S1134350008002940495DDE90C019AAA3B46FFF71C
S1134360F0FBEBE1079B03958DE81800069B029395
S11343709AA93A464346FFF715FBDFE10AF1070A1B
S11343802AF0070AB5F5FF7F0AF10806DAE900AB5F
S1134390BFF6D0AE00238DF83C300FA820234BECA1
S11343A010AB10A9ADF83E3000F09AFC9DF8442003
S11343B010AB1A4405329DF84430012B0BD89DF8FC
S11343C04520492A14D04E2A2FD0302A4DD100221C
S11343D0ADF8422049E012F8011D3029EFD1013B2C
S11343E08DF84430BDF842300133ADF84230E2E795
S11343F05046594600220023FCF756FC58B120468B
S113440000F09CFA18B10DF26320BB4917E00DF2DD
S11344106320BA4913E0204600F090FA10B199A83D
S1134420B7491DE099A8B7491AE09DF940302046E4
S113443073B100F083FA38B1B3490DF26320FFF78A
S113444085FA0DF2632A7AE10DF26320AF49F6E7AB
S113445000F074FA10B199A8AD4901E0AD4999A8EA
S1134460FFF774FA0DF5197A69E1BDF84220013AB3
S11344701A44ADF84220472C4FF000028DF8672211
S11344800FD005D8452C30D0462C00F0A4802FE165
S1134490662C00F0A080672C03D0652C40F02881A6
S11344A023E0AB4203DD10A8294600F029FDBDF945
S11344B042301A1D01DBAB420CDB079B0BB99DF8A4
S11344C04450672C05F1FF350CBF4FF0650B4FF0DE
S11344D0450B0BE0079ADB430AB11D447BE09DF8D2
S11344E044501D4425EAE57575E0A3469DF8443023
S11344F005F1010A534503DD10A8514600F000FD03
S1134500BDF94230002BBABF5B424FF02D0E4FF085
S11345102B0E00200DF2672153B10A2293FBF2FC0B
S113452002FB1C33303301F8013D01306346F3E7ED
S11345300128F2DD8A1E9AAB9B1A2B44B3F5FF7F48
S113454001F801EC01F802BCBFF6F4AD9DF844306B
S11345509D420CDBC3EB0A0A1146C2EB0A00C142BE
S113456003D0302001F8010DF7E7CAEB02029AA943
S11345701944A1F2232196461846013804D011F8B3
S113458001CD0EF801CDF8E7013BD21A0DB9079B16
S11345901BB12E2302F8013C013A9DF8453002F884
S11345A0013C9DF940301BB1A2F1020A2D230FE01A
S11345B0B8F1010F03D1A2F1020A2B2308E0B8F1EC
S11345C0020F02D002F1FF3AB9E0A2F1020A20235D
S11345D002F8023CB3E09DF84430BDF942209A1A37
S11345E0013A22EAE272AA420CDDA91A194410A87F
S11345F000F086FC9DF84430BDF942209A1A013A35
S113460022EAE272BDF94210013121EAE1718B180C
S1134610B3F5FF7FBFF68EAD9DF844A010AB5344B5
S1134620053300200DF2672CC2EB050E704505DA48
S11346304FF0300E0CF801ED0130F5E70DF2672074
S1134640BEF1000FACBFCEEB000E86464FF0000C5F
S11346509445704608D0D44506DA13F8010D0EF8D7
S1134660010D0CF1010CF3E7C0EB0C0BF344934583
S113467004DA4FF0300B00F801BDF5E702460DB93E
S1134680079D1DB12E25421E00F8015CC1B196465E
S1134690CEEB0205CAEB0100854203DA30200EF8A6
S11346A0010DF5E720EAE070121A9246CAEB000504
S11346B015448D4209DA13F8015D0AF8015DF5E746
S11346C0302302F1FF3A02F8013C9DF940300BB16E
S11346D02D2308E0B8F1010F01D12B2303E0B8F139
S11346E0020F2CD120230AF8013C0AF1FF3A26E0FC
S11346F00DF2672A23E000BF545800005958000007
S1134700555800005A5800005E58000063580000D5
S11347105F580000645800000AF1070A2AF0070AEB
S1134720079BDAE900019AAA0193CDF800B002943C
S1134730039543460AF10806FFF70AFB8246BAF1DD
S1134740000F3FF4F7AC0DF26728CAEB08085EE0EF
S1134750784B002908BF19461AA84FF4007200F0DC
S11347601FFA0028FFF6E6AC0DF1680A0CE0A49BE2
S1134770DAF800A01BB1BAF1000F05D1ABE46E4B1F
S1134780BAF1000F08BF9A46079B53B10AF101031F
S11347909AF80080BBF1000F36D0A845A8BFA84600
S11347A032E05046BBF1000F07D007992A4600F0CB
S11347B023FA58B3CAEB000829E0FFF7D0F8804683
S11347C025E0A499DAF800200AF1040600297FF410
S11347D082AC082B78D8DFE803F0087705080B775C
S11347E00B080800A2F800906EE0C2F800906BE09D
S11347F04846C117C2E9000166E0DAF800308DF8D6
S113480068300AF1040606E09A4600E0A846002F44
S113481000F0848006E00DF1680A002F00F0838028
S11348204FF00108022F0CBF302220228DF83B20CC
S11348309AF800302B2B03D02D2B01D0202B0ED136
S1134840302A0CD10998089B514601229847002828
S11348503FF447AC0AF1010A08F1FF3500E0454690
S1134860022F11D104F0DF04412C0DD1012D7FF76B
S113487038AC0998089B51463A46984700283FF4BB
S113488030AC023D0AF1020A4446069B9C420ADA15
S11348900998089B0DF13B010122984700283FF439
S11348A020AC0134F1E775B1A8460998089B51463C
S11348B04246984700283FF414AC27B9A046444622
S11348C0069B9C421DDBA144B246FFF76CBB002350
S11348D00693A2F13003092B3FF628AC06980A226E
S11348E002FB0033069311F8012FF2E7092304E0D9
S11348F0062302E0022300E003234A780131FFF794
S1134900BBBB20238DF840300998089B10A90122D5
S1134910984700283FF4E5AB0134D1E7B8F1000F24
S1134920CDD04446C1E70124A046BEE70DF51B7D6A
S1134930BDE8F08F6858000058580000B0F5807F3B
S11349409FBF044BC018407800F0400094BFC0B231
S1134950002070476C580000024B1B6803B11847D5
S1134960704700BF200100202DE9F34782468946A5
S11349701846002116461C46FEF7F8FF20B92046CB
S11349804FF0FF31FEF7F2FF4B465E4300F0988094
S1134990637B002B40F09680E079002800F097803C
S11349A0626A96420DD8637A6BB194F8068008F176
S11349B0FF38B8F1010F8CBF4FF000084FF0010829
S11349C003E0984601E04FF00108A37A3BB963790C
S11349D09B0704D50123A372204600F059F9A37A5A
S11349E0012B04D0012300206373E0626FE0A26A0C
S11349F0236A9A4202D1B8F1000F3ED09B1A626A30
S1134A001344E3620025E26AA379B24228BF324626
S1134A10012B01920BD162B150460A2100F0FAF841
S1134A20074638B1431CCAEB0303019302E0002795
S1134A3000E01746019A62B15146A06AFEF76EFF84
S1134A40019BA26A1A44A262E26A9A44F61AD31A31
S1134A50E362E36A13B10FB9A3793BB9204600219D
S1134A6000F021F910B1012363731FE0019B1D4481
S1134A70F6B1B8F1000FC6D100E045460AEB0600D6
S1134A80276AD4F82480A062C4F820A06662204675
S1134A9001A900F008F9B8B1012363730023E362AC
S1134AA02762C4F82480204600F0F2F80023E36271
S1134AB0A379B5FBF9F0022B1CBF0023E36206E0E7
S1134AC0304604E0002002E0019B1D44E8E702B008
S1134AD0BDE8F08738B5044623460846012115464B
S1134AE0FFF742FFA8420CBF2046002038BD38B56E
S1134AF00022CA624A7BCB7905460C46002A38D18B
S1134B00002B36D08B7A3BB94B799B0704D5012314
S1134B108B72084600F0BCF8A37A012B04D0012361
S1134B2063730023E36224E0A379022B05D0226A95
S1134B30A36A9B1A626A934205D12046002100F0C1
S1134B40B2F80028EBD1E36A013BE362A36A5A1C82
S1134B50A2621D70A379022B0ED00BB10A2D05D1D0
S1134B602046002100F09FF80028D8D10023E362FA
S1134B7002E04FF0FF3038BD284638BD074C08B579
S1134B80012000F069F8236813B1984700232360DB
S1134B900120BDE8084000F077BA00BF1C010020E6
S1134BA02DE9F34190460546B0B1B1B10F1F002481
S1134BB057F8041F09B929550CE001A800F01AF8A8
S1134BC006194645024605D8281901A900F030F80F
S1134BD03446EDE7204601E000E0084602B0BDE8B7
S1134BE0F08130B1FF2902D80170012070474FF0E5
S1134BF0FF307047FFF7F5BF10B5C9B202449042C9
S1134C0006D0034613F8014B8C4202D01846F6E74F
S1134C10002010BD30B58518C9B22B46541B181995
S1134C2005D013F8010D8842F8D1184630BD30BDC7
S1134C3010B501320346013A0CD011F8014B03F8C8
S1134C40014B002CF7D1013A03D0002103F8011BDA
S1134C50F9E710BD10BD0000421E062A38B511D870
S1134C600A4D55F82230012B01D1002038BD002413
S1134C7045F8224023B90128F7D01846FEF732FE42
S1134C809847F2E74FF0FF3038BD00BFE80100203D
S1134C90036AC1698362036B816301EA0302436AA5
S1134CA09B1AC362704738B50D46836A016A5B1A62
S1134CB004460DD0024642F82C3F436C00689847E6
S1134CC00DB1E36A2B6038B9E269E36A1344E36126
S1134CD02046FFF7DDFF002038BD00000000000083
S1134CE02DE9F04F85B00F4655EC104B8346B0F8D4
S1134CF0029000F051F94FF0010800233B707B80D3
S1134D00064687F804802046294600220023FBF744
S1134D10C1FF824608B1302311E045EC104B00F08E
S1134D203FF902280DDC003618BF01263E7045EC21
S1134D30104B00F035F901280CBF4E2349237B7139
S1134D40CBE087F804A02046294600220023FBF785
S1134D50ABFF20B105F1004387F800801D4645EC08
S1134D60104B03A800F03EF9039E5F4B73435F4E64
S1134D7093FBF6F6002E14DADFF880A1C6F10008E2
S1134D8018F0010F07D020462946DAE90023FBF783
S1134D9019FD04460D465FEA68080AF1080AEFD1D6
S1134DA01BE01AD0524BDFF854A1B046002218F091
S1134DB0010F07D010461946DAE90023FBF702FD7C
S1134DC002460B465FEA68080AF1080AEFD120465A
S1134DD02946FBF721FE04460D46204629460022BB
S1134DE0434BFBF775FF50B1204629463CA3D3E95A
S1134DF00023FBF7E7FC013604460D46EDE72046A9
S1134E00294637A3D3E90023FBF74EFF48B12046D8
S1134E1029460022374BFBF7D5FC013E04460D46DC
S1134E20EDE70FFA89F9B9F1100FA8BF4FF0100997
S1134E3007F105083B79B9F1000F36D0B9F1080F35
S1134E40CA46A8BF4FF0080A53443B712A4B03EBF0
S1134E50CA0353E9022320462946FBF7B3FC0D4657
S1134E600446FBF749FF0190FBF746FC02460B465C
S1134E7020462946FBF7F2FAD044DDF804C0CAEB19
S1134E800909CAEB060604460D464246C8EB0A0366
S1134E90DA42CFD00A239CFBF3F103FB11CC0CF1D3
S1134EA0300C02F801CD8C46F0E7BBF90210202942
S1134EB0D4BFC3EB0103C3F12003002B32460BDD47
S1134EC008EB0302904503D0302108F8011BF9E7F1
S1134ED03A791A443A71F21A7A8005B0BDE8F08F33
S1134EE09A9999999999B93FE597040040420F001E
S1134EF00000F03F0000244070590000B059000049
S1134F00002970B505DA002343800123037130239F
S1134F103FE0027991423EDA4B1C03445D1D15F8D3
S1134F20014C303C052C03F1040313D10244043238
S1134F309A42144603D89C4207D0012418E02678EC
S1134F40302E02F1FF32F3D0F5E715F8024C04F0ED
S1134F5001040DE0CCBF0124002409E013F8012D65
S1134F60303A2244092AD4BF002401241CB1013957
S1134F700029F3D105E0002AF9D030321A7001710A
S1134F8070BD002CBFD043880133438001230371DB
S1134F903123437170BD70BD10EE903AD80F704745
S1134FA053EC102B0E48184010B550B10C4CA042D5
S1134FB00FD1C3F3130171B9002A14BF01200220D9
S1134FC010BDC3F3130141B9002A14BF0520032007
S1134FD010BD042010BD012010BD052010BD00BF70
S1134FE00000F07F13B58DED000B0022019B0260E1
S1134FF0164A23F000419142044622D8009A0A43FB
S11350001FD0B1F5801F0DD20022114B51EC100BB3
S1135010FBF7D8FBCDE90001019B6FF0350223F0CB
S113502000412260226823F0FF4323F4E003A2F24C
S1135030FE3243F07F5302EB115243F4001322601B
S113504001939DED000B02B010BD00BFFFFFEF7F89
S11350500000504310B5084C084B9C4203D054F850
S1135060043B9847F8E7064C064B9C4203D054F89F
S1135070043D9847F8E710BD005A0000005A0000AC
S1135080005A0000005A0000FEE70000044B10B56F
S11350901C6824B16368A06898472468F9E710BDC8
S11350A02401002000B501464FF00300ABBE00BD53
S11350B0704700B54FF000014FF00700ABBE00BDD4
S11350C070471368012B10B50C4603D8FFF7F1FFA6
S11350D0207001E000F02DF8002010BD10B5146818
S11350E0012C03D80846FFF7DDFF01E000F00BF8C0
S11350F0002010BD0020704700B501464FF00500A8
S1135100ABBE00BD70471FB51368019001A80291A2
S11351100393FFF7F1FF0028D4BF0020012005B05E
S11351205DF804FB00B501464FF00600ABBE00BDC0
S113513070471FB513680190144601A803930291A8
S1135140FFF7F0FF2268904203464FF0000002D1BF
S11351502060022005E0B3F5805FBCBFC3F5805337
S1135160236004B010BD000062757A7A65725F6FC7
S11351706E0A000062757A7A65725F6F66660A006D
S11351806D6F756E742066696C6573797374656D83
S11351900A0000006D6F756E742066696C65737922
S11351A07374656D2030206661696C6564203A20F3
S11351B025640A0063726561746520746573742ED6
S11351C07478740A00000000746573742E74787423
S11351D0000000007772697465206572726F720A4C
S11351E00000000077726974653A20227465737454
S11351F03132333435220A007465737431323334F6
S1135200350000007265616420616E642063686526
S1135210636B2066696C6520646174610A00000038
S113522072656164206572726F720A0072656164EE
S1135230206C656E206572726F722025640A00000E
S1135240726561642064617461206572726F72209A
S113525025730A00636C6F73652066696C650A00C8
S1135260636C6F7365206572726F720A00000000D0
S1135270AA55AA55AA55AA550000000043414E2537
S11352806420676574206D657373616765203A52A5
S1135290784C454E4754483D255820527844415453
S11352A0413D25730A00000043414E2564203C2DF6
S11352B03E2043414E25640A0000000063616E5F96
S11352C07461736B5F6100006661756C7420696E54
S11352D02025732063616C6C3A2025730A0000005A
S11352E0785461736B4372656174652863616E5FA2
S11352F07461736B5F70726F632C2263616E5F7491
S113530061736B5F61222C20313032342F342C20B6
S11353102663616E41202C20352C202663616E416A
S11353202E68616E646C65290000000063616E5F25
S11353307461736B5F620000785461736B437265D0
S11353406174652863616E5F7461736B5F70726F03
S1135350632C2263616E5F7461736B5F62222C2025
S1135360313032342F342C202663616E42202C20BD
S1135370352C202663616E422E68616E646C65294B
S11353800000000043414E256420262043414E2561
S11353906420504153532E0A0000000043414E251F
S11353A06420726563656976652074696D656F75DF
S11353B0742C2054657374204641494C2A2A2A0AC5
S11353C00000000043414E207465737420636F6DC8
S11353D0706C6574650A000043414E2074657374F3
S11353E020686173204641494C2A2A2A0A00000099
S11353F000A0064000B0064000C00640554152548B
S113540025642073656E64206D6573736167650A36
S11354100000000024245445535424240A000000AE
S113542055415254256420676574206D657373611A
S113543067653A2025730A00756172745F74780099
S1135440785461736B437265617465287561727415
S11354505F70726F632C22756172745F7478222C92
S113546020323034382F342C20267478202C2035E8
S11354702C202674782E68616E646C652900000007
S1135480756172745F727800785461736B437265EE
S113549061746528756172745F70726F632C227514
S11354A06172745F7278222C20323034382F342C9D
S11354B020267278202C20352C202672782E6861C4
S11354C06E646C6529000000554152542074657364
S11354D07420636F6D706C6574650A005541525495
S11354E0207465737420686173204641494C2A2AEC
S11354F02A0A00002B4353513A2025642C256400CA
S1135500DFF804C0DFF804F0000000000000000031
S1135510434D4E45540000003138302E38392E3575
S1135520382E32370000000041544531000000009D
S11355304F4B0000415445300000000041542B43C0
S113554050494E3F000000002B4350494E3A205230
S1135550454144590000000041542B43535100007D
S113556041542B435245473F0000000041542B4314
S1135570494D490041542B4D495043414C4C3D3118
S11355800000000041542B4D495043414C4C3F0016
S113559041542B4D49504845583D30007075743A7C
S11355A025730A000D0A0000676574733A25730AAF
S11355B000000000415420726F75746520636F6DA4
S11355C0706C657465210A00415420726F757465AE
S11355D02061626F72742C20737465703D256420A1
S11355E0636D643D25732077616E743D2573210AD4
S11355F0000000002B435245473A2025642C2564C3
S11356000000000030313233343536373839000089
S113561041542B4D495050524F46494C453D312C35
S1135620222573220000000041542B4D49504F5055
S1135630454E3D25642C2568752C222573222C2586
S113564068752C30000000002B4D49504F50454EDA
S11356503D25642C256400002B4D495043414C4C9E
S11356603A25642C202573007469636B636F756E2F
S1135670743D25750A000000626F617264206C61DC
S1135680796F757420696E6974206F6B2E20627552
S1135690696C642025732025730A00004F6374200D
S11356A0313920323031370031333A34373A3437F4
S11356B0000000000A00000025730A006D61696E95
S11356C05461736B00000000785461736B4372651E
S11356D0617465286D61696E5461736B2C226D6110
S11356E0696E5461736B222C20343039362F342C7C
S11356F0204E554C4C202C20352C20266D61696E93
S11357005461736B48616E646C6529000A2A2A2A05
S1135710204F53205461736B20537461636B204F8B
S1135720766572666C6F772025732E0A0000000080
S11357300A2A2A2A204F53204D616C6C6F6320463D
S113574061696C2E0A0000003447204D6F64756C4B
S113575065205465737400003F3F3F0053756E002D
S11357604D6F6E005475650057656400546875008C
S113577046726900536174004A616E0046656200B6
S11357804D617200417072004D6179004A756E007E
S11357904A756C0041756700536570004F6374006F
S11357A04E6F76004465630074656D703D25660A2E
S11357B0000000001F1C1F1E1F1E1F1F1E1F1E1F78
S11357C05C570000605700006457000068570000F1
S11357D06C570000705700007457000078570000A1
S11357E07C57000080570000845700008857000051
S11357F08C57000090570000945700009857000001
S11358009C570000A0570000A4570000252E3373B6
S113581020252E337325336420252E32643A252E19
S113582032643A252E32642025640A00E51B000008
S1135830011C00001D1C0000391C0000551C000048
S1135840711C00008D1C0000A91C0000C51C000078
S11358500A0000002D494E46002D696E66002D4E4B
S1135860414E002D6E616E000000000000808080BB
S113587080808080808090909090908080808080D4
S11358808080808080808080808080808018040474
S113589004040404040404040404040404020202CA
S11358A00202020202020204040404040404434344
S11358B043434343414141414141414141414141CC
S11358C0414141414141414104040404040423236E
S11358D023232323212121212121212121212121AC
S11358E0212121212121212104040404800000001C
S11358F000000000000000000000000000000000A4
S11359000000000000000000000000000000000093
S11359100000000000000000000000000000000083
S11359200000000000000000000000000000000073
S11359300000000000000000000000000000000063
S11359400000000000000000000000000000000053
S11359500000000000000000000000000000000043
S11359600000000000000000000000000000000033
S11359700000000000002440000000000000594026
S11359800000000000408F40000000000088C34079
S113599000000000006AF8400000000080842E41EE
S11359A000000000D01263410000000084D797413A
S11359B000000000000024400000000000005940E6
S11359C0000000000088C3400000000084D7974115
S11359D00080E03779C34143176E05B5B5B89346E7
S11359E0F5F93FE9034F384D321D30F94877825AB3
S10B59F03CBF737FDD4F157508
S10B59F8E4B3FF7F010000008D
S1135A0080700000AAAAAAAA0000000000010102F6
S1135A100000000000000000000000000000000082
S1135A2000000000000000006801002040000000A9
S1135A3068010020000000000000000000000000D9
S1135A400000000000000000C3500000DD50000012
S1135A50F5500000010000000002010200000000F7
S1135A600000000000000000000000000000000032
S1135A700000000028010020400000002801002050
S1135A800000000000000000000000000000000012
S1135A9000000000C3500000DD500000F55000007D
S1135AA002000000000200020000000000000000EC
S1135AB000000000000000000000000000000000E2
S1135AC0A801002040000000A80100200000000000
S1135AD000000000000000000000000000000000C2
S1135AE0C3500000DD500000F55000007D4B000065
S9030411E7
